:020000040800F2
:10000000701700206D020008910B0008890B000892
:100010008D0B0008D306000813150008000000002F
:10002000000000000000000000000000D90D0008E2
:100030004507000800000000210C00081D0E000804
:10004000870200088702000887020008870200086C
:10005000870200088702000887020008870200085C
:100060008702000887020008490700088702000885
:10007000870200088702000887020008870200083C
:10008000870200088702000887020008870200082C
:10009000870200088702000887020008870200081C
:1000A000870200088702000887020008870200080C
:1000B00087020008870200088702000887020008FC
:1000C00087020008870200088702000887020008EC
:1000D0008702000861110008A111000865120008DC
:1000E00087020008870200088702000887020008CC
:1000F00087020008870200088702000887020008BC
:1001000087020008870200088702000887020008AB
:10011000870200088702000887020008870200089B
:10012000870200088702000887020008870200088B
:10013000870200088702000887020008870200087B
:10014000870200088702000887020008870200086B
:10015000870200088702000887020008870200085B
:10016000870200088702000887020008870200084B
:10017000870200088702000887020008870200083B
:10018000870200088702000800F002F800F05EF81D
:100190000AA090E8000C82448344AAF10107DA45E2
:1001A00001D100F053F8AFF2090EBAE80F0013F0D6
:1001B000010F18BFFB1A43F00103184724AF0000DA
:1001C00044AF00000A444FF0000C10F8013B13F05C
:1001D000070408BF10F8014B1D1108BF10F8015BA0
:1001E000641E05D010F8016B641E01F8016BF9D193
:1001F00013F0080F1EBF10F8014BAD1C0C1B09D1EA
:100200006D1E58BF01F801CBFAD505E014F8016B5B
:1002100001F8016B6D1EF9D59142D6D370470000ED
:100220000023002400250026103A28BF78C1FBD8FF
:10023000520728BF30C148BF0B6070471FB50AF096
:100240001EF900F0B3F81FBD10B510BD00F04AF95B
:100250001146FFF7F3FF09F0EDF800F068F903B479
:10026000FFF7F2FF03BC00F069F90000094880477E
:1002700009480047FEE7FEE7FEE7FEE7FEE7FEE788
:10028000FEE7FEE7FEE7FEE704480549054A064BA0
:1002900070470000350E0008890100087011002029
:1002A00070170020701300207013002010B54C1040
:1002B00084EA530404D54042C1F1000138BF491E0D
:1002C0001B4204D55242C3F1000338BF5B1E00F04D
:1002D0007FF814F0804F04D04042C1F1000138BFD4
:1002E000491E14F0004F04D05242C3F1000338BF3E
:1002F0005B1E10BD10B5203AC0F00B80B1E818505D
:10030000203AA0E81850B1E81850A0E81850BFF4FF
:10031000F5AF5FEA027C24BFB1E81850A0E818509E
:1003200044BF18C918C0BDE810405FEA827C24BFF2
:1003300051F8043B40F8043B08BF7047D20728BF80
:1003400031F8023B48BF11F8012B28BF20F8023BCF
:1003500048BF00F8012B70474FF0000200B513466C
:1003600094469646203922BFA0E80C50A0E80C50D5
:10037000B1F12001BFF4F7AF090728BFA0E80C5086
:1003800048BF0CC05DF804EB890028BF40F8042B7F
:1003900008BF704748BF20F8022B11F0804F18BFEC
:1003A00000F8012B704770477047704770B5064CD6
:1003B0007C44064D7D4403E0206820448047241D92
:1003C000AC42F9D170BD00004CAD00006CAD000036
:1003D00053EA020C00F069802DE9F04B4FF0000663
:1003E000002B1FBFB3FA83F503FA05F424FA05F6D0
:1003F0005E4012BF1643B2FA82F502FA05F4C5F167
:1004000020051EBF22FA05FC44EA0C04203556EAFA
:10041000044C4FEA144418BF641C4FF000084FF01E
:100420000009904271EB030C39D3002919BFB1FACE
:1004300081F701FA07F6B0FA80F700FA07F6C7F17C
:1004400020071EBF20FA07FC46EA0C062037B6FB41
:10045000F4FCA7EB0507103F07F01F0BCBF12006BC
:100460000CFA0BFB2CFA06F644BFB3460026202FED
:10047000A4BF5E464FF0000B5BEA060C08BF4FF0CE
:10048000010B19EB0B09ABFB027C48EB0608C01B08
:1004900006FB02CC0BFB03CC71EB0C01C1E70B4656
:1004A000024641464846BDE8F08B13B54FF00000C8
:1004B0004FF00001AFF30080BDE81C40704710B55D
:1004C00000F008F8006810BD10B5044600F002F80E
:1004D000046010BD004870471011002000487047AC
:1004E000101100207546FFF7F9FFAE46050069467A
:1004F000534620F00700854618B020B5FFF7C4FE2C
:10050000BDE820404FF000064FF000074FF0000814
:100510004FF0000B21F00701AC46ACE8C009ACE895
:10052000C009ACE8C009ACE8C0098D467047044674
:10053000AFF300802046FFF792FE0000014918202B
:10054000ABBEFEE726000200704721B1826842F090
:100550000102826003E0826822F00102826070473B
:100560000021084A1168084A1140D0E900231A43C3
:1005700083681A43C3681A431143044AC2F8041338
:100580007047000004230140E030FCFF00200140E0
:1005900021B1826842F48072826003E0826822F4B2
:1005A00080728260704721B1826842F4007282607A
:1005B00003E0826822F400728260704730B5024620
:1005C000002000235068104C20400D790C6844EA4C
:1005D00005242043506090680C4C2040D1E903541E
:1005E0002C438D682C434D7944EA450420439060A8
:1005F000D06A20F470000C7D641EE4B2234340EA0C
:100600000350D06230BD0000FFFEFFFCFDF7FFC0CD
:10061000F0B504460D4600200021092D11DDE068EB
:10062000A5F10A0606EB4607072606FA07F18843F6
:10063000A5F10A0606EB460603FA06F10843E06058
:100640000CE0206905EB4507072606FA07F1884309
:1006500005EB450603FA06F108432061072A0FDA85
:10066000606B561E06EB86071F2606FA07F18843C5
:10067000561E06EB860605FA06F10843606322E083
:100680000D2A0FDA206BD61F06EB86071F2606FA07
:1006900007F18843D61F06EB860605FA06F10843E4
:1006A000206310E0E06AA2F10D0606EB86071F2624
:1006B00006FA07F18843A2F10D0606EB860605FA55
:1006C00006F10843E062F0BD816841F0804181603D
:1006D000704700BFFEE721B1026842F001020260EC
:1006E00003E0026822F001020260704710B50022A8
:1006F0000268134B1A40CC680B6823434C692343B0
:100700008C692343CC6923430C6A23434C6A2343FB
:100710008C6A23434C6B23438C6B23431A43026044
:10072000426922F00702D1E90B3423431A434261A4
:100730000B6943604B6883608B68C36010BD000029
:100740003F801CF07047000010B588B0102000F00A
:100750008DF8002871D03B48007802283AD120203B
:1007600039490880072003F0ADFF044621462720C1
:1007700004F026FA04F0400038B3202269466120D4
:1007800003F082FFFF21E22004F01AFA2F480078DC
:1007900001280ED1002007E01DF800202C4909682F
:1007A00020310A54411CC8B22028F5DB002027491B
:1007B00008702848007838B920222749A82004F07A
:1007C000E1F901202349087000BF20201E49891E3D
:1007D000088032E020201C490880202269466120E0
:1007E00003F052FFFF21E22004F0EAF917480078F5
:1007F00001280ED1002007E01DF8002014490968E7
:1008000020310A54411CC8B22028F5DB00200F49D2
:100810000870072003F056FF04462146272004F005
:10082000CFF9FF21E12004F0CBF901200B4908703A
:1008300020200549891E088000BF102000F010F814
:1008400008B010BD5A0500201A0802405D050020BE
:10085000600500205B0500206A0900205C0500207F
:100860000149086070470000143C01400146002027
:10087000034A12680A400AB1012000E000207047D4
:10088000143C0140002123498279002A3AD00A46CB
:10089000126803689A430B461A600A1D12680368BF
:1008A0009A430B1D1A60027911440A6803681A43BF
:1008B0000A60184A0832126803689A43154B0833D5
:1008C0001A601A1D126803689A43124B0C331A609F
:1008D0004279102A0ED11A1F126803681A430D4B71
:1008E00008331A601A1D126803681A43094B0C3347
:1008F0001A600DE00749427911440A6803681A43F7
:100900000A6005E0027911440A6803689A430A60A4
:1009100070470000003C014001490860704700003A
:100920000C3C024070B504460A460026092502B96F
:1009300009E0012A01D1160205E0022A01D11602BE
:1009400001E04FF4407600F09FF80546092D28D1CC
:100950001548006820F44070134908600846006894
:10096000304308600846006820F0F8000860084638
:10097000006844F0020108430B490860084600681B
:1009800040F48030086000F07FF8054606480068B3
:1009900020F00200044908600846006820F0F800D2
:1009A0000860284670BD0000103C02400920134931
:1009B000096801F48031B1F5803F01D101201CE0CC
:1009C0000E49096801F0100109B1062015E00B4934
:1009D000096801F4807109B102200EE00749096835
:1009E00001F0E00109B1072007E00449096801F0BE
:1009F000020109B1082000E0092070470C3C0240C8
:100A00000348006840F0004001490860704700005A
:100A1000103C024030B502460C46092500F034F87F
:100A20000546092D19D10E48006820F440700C4984
:100A300008600846006840F40070086008460068D6
:100A400040F001000860146000F01EF805460448FC
:100A5000006820F0010002490860284630BD00000F
:100A6000103C02400548006800F0004028B10448EE
:100A700002490C390860034808607047103C024086
:100A800023016745AB89EFCD08B509200090FFF73A
:100A90008DFF009002E0FFF789FF00909DF80000B5
:100AA0000128F8D09DF8000008BDF0B50A460021E5
:100AB0000023002400BF3DE0012505FA01F315687D
:100AC00005EA03049C4234D105684F000326BE406A
:100AD000B543056015794E00B5400668354305609D
:100AE0001579012D02D01579022D16D185684F0098
:100AF0000326BE40B543856055794E00B5408668F3
:100B000035438560456801268E40B543456045689C
:100B100096798E40B6B235434560C5684F000326CE
:100B2000BE40B543C560D5794E00B540C668354373
:100B3000C560491C1029BFD3F0BDF0B500230024C7
:100B40004D07ED0E02FA05F3CE1000F1200555F821
:100B500026504E07F70E0F26BE40B543CF1000F1CA
:100B6000200646F82750CE1000F1200555F82650F3
:100B700045EA0304CE1000F1200545F82640F0BDFB
:100B8000418370470183704700BFFEE700BFFEE767
:100B90007047000070B5002100230F22C4781CB3F9
:100BA000174C246804F4E064C4F5E064C4F307213E
:100BB000C1F10404E3B20A4144789C40E1B2847874
:100BC000144021430C07210E0E4C05786155047822
:100BD00004F01F050124AC4005786D11AD0005F14E
:100BE000E025C5F8004109E0047804F01F05012460
:100BF000AC40054D0678761145F8264070BD0000E2
:100C00000CED00E000E400E080E100E00249014377
:100C1000024A1160704700000000FA050CED00E088
:100C20007047000029B1064A12680243044B1A605B
:100C300004E0034A12688243014B1A6070470000C7
:100C40003038024029B1064A12680243044B1A6048
:100C500004E0034A12688243014B1A6070470000A7
:100C60004038024029B1064A12680243044B1A6018
:100C700004E0034A12688243014B1A607047000087
:100C800044380240F0B5002100220024022500264D
:100C90000223324F3F6807F00C0121B1042905D02F
:100CA000082937D105E02E4F076036E02C4F07604A
:100CB00033E02A4F3F1F3F68C7F38056274F3F1F3F
:100CC0003F6807F03F036EB1254FB7FBF3F7DFF83E
:100CD0008CC0ACF1040CDCF800C0CCF3881C07FB22
:100CE0000CF40CE01E4FB7FBF3F7DFF870C0ACF16B
:100CF000040CDCF800C0CCF3881C07FB0CF4174F85
:100D00003F1F3F68C7F301477F1C7D00B4FBF5F729
:100D1000076002E0124F076000BF00BF0F4F3F683F
:100D200007F0F00109090F4F7A5C0768D740476068
:100D30000A4F3F6807F4E051890A0A4F7A5C476816
:100D4000D7408760054F3F6807F46041490B054F66
:100D50007A5C4768D740C760F0BD000008380240A1
:100D60000024F4002806002021B1028842F040024D
:100D7000028004E002884FF6BF731A400280704779
:100D80000246002013890B400BB1012000E0002037
:100D900070470146888970478181704710B50022ED
:100DA000028802F441520B884C8823438C882343E9
:100DB000CC8823430C8923434C8923438C892343C8
:100DC000CC8923431A430280838B4FF2FF74234064
:100DD00083830B8A038210BD7047000030B5002268
:100DE0008B071C0F0F2303FA04F20B4B8C1053F8E4
:100DF00024309343084C8D1044F8253023468C1042
:100E000053F824308C07240F00FA04F42343024CD7
:100E10008D1044F8253030BD08380140044803687F
:100E200040685A1C40F1000001490A604860704760
:100E3000C004002010B51548006840F47000134944
:100E400008601348006840F0010011490860002064
:100E50000F49083108600E4800680E4908400C49E7
:100E600008600D48091D0860081F006820F48020F4
:100E7000091F0860002006490C31086000F0C8FE18
:100E80004FF0006001498039086010BD88ED00E036
:100E900000380240FFFFF6FE1030002421B1028826
:100EA00042F08002028004E002884FF67F731A400D
:100EB0000280704721B1028842F00102028004E002
:100EC00002884FF6FE731A400280704770B5002406
:100ED00000220023058C4FF6FE7635400584028CF7
:100EE0008388048B4FF68F752C40B51E2C400D88DF
:100EF0002C43751E2A408D892A434D882A43104D64
:100F0000A84202D00F4DA84213D14FF6F7752A40E0
:100F1000CD892A434FF6FB752A408D882A434FF628
:100F2000FF652B404FF6FF552B400D8A2B434D8A12
:100F30002B43838004838D684563028470BD000069
:100F400000000140000401400A460021018B4FF6D9
:100F5000F7731940114301837047000070B50024F6
:100F600000220023058C4FF6EF7635400584028C75
:100F70008388048B48F6FF752C404FF6FF452C40C4
:100F80000D884FF6FF7606EA05252C434FF6DF75F0
:100F90002A408D8906EA05152A434D8806EA05157B
:100FA0002A43154DA84202D0144DA8421DD14FF638
:100FB0007F752A40CD894FF6FF7606EA05152A434C
:100FC0004FF6BF752A408D8806EA05152A434FF66D
:100FD000FF352B404FF2FF752B400D8A06EA850541
:100FE0002B434D8A06EA85052B43838004838D6855
:100FF0008563028470BD00000000014000040140D0
:101000000A460021018B4FF2FF7319404FF6FF7320
:1010100003EA0223194301837047000070B50024DE
:1010200000220023058C4FF6FF6635400584028CB4
:101030008388848B4FF68F752C404FF6FC752C40BF
:101040000D882C434FF6FF552A408D894FF6FF76C9
:1010500006EA05252A434D8806EA05252A43154D4B
:10106000A84202D0144DA8421DD14FF2FF752A406C
:10107000CD894FF6FF7606EA05252A434FF6FF3560
:101080002A408D8806EA05252A434EF6FF752B4037
:101090004DF6FF752B400D8A06EA05152B434D8A48
:1010A00006EA05152B43838084838D68C56302841B
:1010B00070BD000000000140000401400A4600210C
:1010C000818B4FF6F7731940114381837047416359
:1010D000704781637047C163704700000022028837
:1010E000184B98420ED0184B98420BD0B0F1804F5D
:1010F00008D0164B984205D0154B984202D0154B9C
:10110000984204D14FF68F731A404B881A43124B02
:10111000984207D0114B984204D04FF6FF431A4033
:101120000B891A4302804B68C3620B880385054B09
:10113000984202D0044B984201D18B7A0386012356
:101140008382704700000140000401400004004019
:1011500000080040000C0040001000400014004057
:1011600010B540F227710C4800F011F9012803D1A5
:101170000021094800F0C9F940F22551064800F065
:1011800006F9012806D1044800F0BAF9C4B20348B0
:10119000047000BF10BD00000010014000000020DE
:1011A00010B50821274800F0E5F810B1254800F0F7
:1011B000A7F92021234800F0DDF8012840D121487B
:1011C00000F09EF9C4B22049486880471F49096869
:1011D000401A022810D900201D4908701D480078C7
:1011E000012803D100201B49087002E001201949A1
:1011F000087001201849087016480078012808D1A5
:10120000134801780078401C114A10701348445468
:1012100007E00F4801780078401C0D4A1070104814
:1012200044540949486880470849086008480078DC
:10123000192804D106480078401E0549087000BFEF
:1012400010BD000000440040C804002048050020F4
:101250004C0500202D0500202C050020C80800208A
:10126000E108002070B50821334800F083F810B180
:10127000314800F045F940F227712F4800F087F817
:1012800001281AD12D4802780078401C2B4B187089
:101290002B48815C284800F038F9284800786428F9
:1012A0000BD1012027490870002024490870002232
:1012B00040F22771204800F094F840F225511E4872
:1012C00000F065F8012835D11B4800F019F9C5B2C6
:1012D0001D494868804704461C480068201A0228B7
:1012E00014D900201A4908701A48007801280DD135
:1012F00000201849087000BF06E017490A5C104931
:1013000064310A54411CC8B26428F6DB0F480460FB
:101310000F4801780078401C0D4A10700E48455463
:1013200010460078642804D110460078401E11460B
:10133000087000BF70BD000000480040E4050020B8
:101340004C0B0020C4050020C8040020E00500204C
:10135000E5050020C5050020E80A002021B18289AA
:1013600042F40052828104E082894DF6FF731A40F4
:101370008281704702460020B1F5007F00D100BF96
:1013800013880B400BB1012000E00020704770B5BE
:101390000246002400230025002040F66A16B142D0
:1013A00000D100BFC1F3421501F01F03012606FA68
:1013B00003F3012D02D19689334006E0022D02D1BC
:1013C000168A334001E0968A33400C12012606FA51
:1013D00004F41688344013B10CB1012000E0002061
:1013E00070BDF0B50346002400260025002040F61D
:1013F0006A17B94200D100BF1846C1F3421401F088
:101400001F06012707FA06F5012C01D10C3004E074
:10141000022C01D1103000E014301AB107682F43BC
:10142000076002E00768AF430760F0BD2DE9FF47A2
:1014300005460E460024A14600BFA046B08900B173
:1014400000BF2C8A24F44054F08804432C82AC89D9
:1014500041F20C608443B0883189084371890843A4
:101460000443AC81AC8A24F44074B0890443AC8258
:101470006846FFF707FC2048854202D01F48854296
:1014800002D1DDF80C9001E0DDF80890A88900F4A5
:10149000004040B109EBC90000EB09103168490078
:1014A000B0FBF1F707E009EBC90000EB0910316868
:1014B0008900B0FBF1F76420B7FBF0F004012009CC
:1014C000642101FB1078A88900F4004040B132206B
:1014D00000EBC800B0FBF1F000F00700044308E0A7
:1014E000322000EB08106421B0FBF1F000F00F0097
:1014F00004432C81BDE8FF87001001400014014027
:1015000001468888C0F308007047C1F30802828052
:10151000704700BFFEE7000010B52DED028B9FED78
:10152000680AB0EE408A6748008800EE100AB8EEFC
:10153000400ADFED650A80EE201AB0EE040A21EEC3
:10154000000AF1EE000A20EE200A604880ED010A50
:101550005C48408800EE100AB8EE400ADFED5A0AF7
:1015600080EE201AB0EE040A21EE000AF0EE080A1E
:1015700020EE200A554880ED040A5248808800EE8B
:10158000100AB8EE400ADFED500A80EE201AB0EEE5
:10159000040A21EE000AF0EE080A20EE200A4B4869
:1015A00080ED030A4748C08800EE100AB8EE400AF2
:1015B000DFED450A80EE201AB0EE040A21EE000AA3
:1015C000F0EE080A20EE200A404880ED020A3D486D
:1015D000008900EE100AF8EE400A9FED3B1A80EEFB
:1015E000810AF0EE040A20EE200AF0EE080A20EE4E
:1015F000200A364880ED050A35480078032190FB23
:10160000F1F201FB120020B1012818D0022842D1CA
:101610002BE03048416800208847B0EE408ABFEE9A
:10162000000AB4EE408AF1EE10FA07D0274880EDA8
:10163000068A27480078401C254908702CE0254878
:10164000416801208847B0EE408ABFEE000AB4EE40
:10165000408AF1EE10FA07D01C4880ED078A1C483A
:101660000078401C1A49087016E01A4841680220A8
:101670008847B0EE408ABFEE000AB4EE408AF1EE31
:1016800010FA07D0114880ED008A11480078401CFC
:101690000F49087000E000BF00BF0F48006900F468
:1016A0000040B0F5004F04D10120084981F8200026
:1016B00003E00020054981F82000BDEC028B10BD3D
:1016C000000000008C09002000F07F4598090020F0
:1016D000840500208C0500200010024010B54FF456
:1016E00080710248FFF74CFA10BD0000000C024068
:1016F00010B504460749086980470749C86880470C
:1017000006488168204688470448C16820468847C3
:1017100010BD000030050020A005002000040020BE
:1017200010B504460749C86880470749886880475C
:101730000648C168204688470548416820468847D2
:1017400010BD0000100500205C04002018040020DB
:101750000004002010B540F2B6310E48FFF7B7FC88
:1017600040F2B6310B48FFF7B4FC40F2B6310948FD
:10177000FFF7B1FC40F2B6310748FFF7A8FC40F292
:10178000B6310548FFF7A5FC40F2B6310248FFF735
:10179000A2FC10BD000400400008004000B58BB062
:1017A00001210220FFF74EFA01210420FFF73AFA47
:1017B0004FF4E070099002208DF8280003208DF886
:1017C000290000208DF82A0001208DF82B0009A99E
:1017D0006E48FFF76AF9022206216C48FFF7ADF95F
:1017E000022207216948FFF7A8F902220821674869
:1017F000FFF7A3F94FF4FA600790654800684008C6
:1018000000EE100AB8EE400A9FED621AC0EE010A1F
:101810009FED610A80EE801ABCEEC10A10EE100A3C
:10182000401E80B2ADF818000020ADF82000ADF8E1
:101830001A0006A95948FFF751FC6020ADF80400D2
:101840000120ADF806004FF4617003900020ADF860
:10185000100001A95148FFF739FB08214F48FFF755
:1018600073FB01A94D48FFF779FB08214B48FFF7AF
:10187000C7FB01A94948FFF7D1FB08214748FFF7FB
:101880001DFC01214548FFF709FB01214348FFF7F3
:1018900011FB01210420FFF7D5F901210820FFF7F2
:1018A000C1F94FF4E040099002208DF82800032090
:1018B0008DF8290000208DF82A0001208DF82B00DA
:1018C00009A93748FFF7F1F802220C213448FFF745
:1018D00034F902220D213248FFF72FF902220E219E
:1018E0002F48FFF72AF94FF4FA600790284800685C
:1018F000400800EE100AF8EE400A9FED261A80EE2E
:10190000810ADFED250A80EE201ABCEEC10A10EE36
:10191000100A401E80B2ADF818000020ADF820007B
:10192000ADF81A0006A91F48FFF7D8FB6020ADF8F4
:1019300004000120ADF806004FF461700390002010
:10194000ADF8100001A91748FFF7C0FA08211548A3
:10195000FFF7FAFA01A91348FFF700FB0821114825
:10196000FFF74EFB01A90F48FFF758FB08210D4870
:10197000FFF7A4FB01210B48FFF790FA012109486A
:10198000FFF798FA00F010F80BB000BD0008024015
:10199000140600200000FA430000FA44000400404E
:1019A000000C02400008004010B54FF4617012496D
:1019B000086048608860C8600861486101460F4857
:1019C000FFF785FB4FF461710C48FFF782FB4FF482
:1019D00061710A48FFF77FFB4FF461710848FFF718
:1019E00076FB4FF461710648FFF773FB4FF46171AA
:1019F0000348FFF770FB10BDB00700200004004053
:101A000000080040002100EE901A0549415800EE00
:101A1000901AB8EEE01ADFED031A81EE210A704742
:101A200000000E080000C84210B504461648407871
:101A3000012803D01448C078012804D11348416814
:101A4000642088471AE010480078012800D100E09F
:101A500000200F49097809B9012100E00021084060
:101A600048B10A484168002088470A48C1684FF4D5
:101A70007A70884702E00549886880470248007804
:101A80000349087010BD000098040020B405002030
:101A9000AC040020C8040020014908684968704768
:101AA000C00400202DE9F0472448046845684FF041
:101AB000E0208669002721480168426884EA010025
:101AC00085EA020108431CD11D4800230268304604
:101AD0003946FEF7EBFB4FF47A734FF0000CA4FB92
:101AE000032805FB038304FB0C3C1346181A6CEB1C
:101AF00001014FF47A7C10EB0C0041F10001BDE8CC
:101B0000F0874FF0E02080690D490968B0FBF1F0E3
:101B100000220A4B19685B684FF47A78A1FB089A97
:101B200003FB08A301FB02311346B9EB000261EB92
:101B3000030112EB080041F10001E0E7C0040020BE
:101B4000B00400201CB501210820FFF76BF801202C
:101B50008DF8040000208DF806008DF805008DF842
:101B600007004FF48070009069460448FEF79DFF1F
:101B70004FF480710148FFF703F81CBD000C0240D0
:101B800010B50549486880470449096801F16400B7
:101B900003F02AF8012010BD98050020C805002098
:101BA00070B505460E46134948688047044605F05F
:101BB000010060B110480068844208D90F484069AC
:101BC00080F001000D494861A0190B49086005F03B
:101BD000020002280CD10A480068844208D907484C
:101BE000406980F0020005494861A0190449086075
:101BF00070BD0000C8040020F40400200010024062
:101C0000F8040020704700B500F0CEFB00BD0000D6
:101C10000CB50020019000903448006840F48030FA
:101C20003249086000BF3148006800F4003000907D
:101C30000198401C0190009818B90198B0F5A04F88
:101C4000F1D12A48006800F4003010B10120009062
:101C500001E0002000900098012846D12348403040
:101C6000006840F0805021494031086020480068F9
:101C700040F440401E4908601C48083000681B4979
:101C8000083108600846006840F4004008600846D3
:101C9000006840F4A05008601648091F0860081F3B
:101CA000006840F08070091F086000BF0F4800689E
:101CB00000F000700028F9D040F205700E4908606D
:101CC0000A480830006820F003000849083108601D
:101CD0000846006840F00200086000BF0348083072
:101CE000006800F00C000828F8D10CBD0038024054
:101CF0000070004010544007003C024000B502460E
:101D0000FFF7CAFE034600BFFFF7C6FE99188842D8
:101D1000FAD300BD70B50446FFF7C4FE054600BF08
:101D2000FFF7C0FE2A19801A71F10001F8DB70BDBF
:101D300010B588B0044601210846FEF773FF012163
:101D40001020FEF78FFF072209212648FEF7F5FE37
:101D500007220A212348FEF7F0FE02208DF81C001E
:101D600003208DF81D0000208DF81E0001208DF845
:101D70001F004002069006A91A48FEF796FE4FF48F
:101D80008060069006A91748FEF78FFE25208DF883
:101D9000040000208DF8050003208DF806000120C6
:101DA0008DF8070001A8FEF7F5FE02940020ADF8BB
:101DB0000C00ADF80E00ADF81000ADF814000C20CA
:101DC000ADF8120002A90848FFF730FB012240F2EB
:101DD00025510548FFF705FB01210348FFF7BEFA2F
:101DE00008B010BD000002400010014010B50124F1
:101DF000FEF738FEF320FEF78FFD02215820FEF794
:101E000091FD3B4890ED0C0ADFED3A0A20EE200AE6
:101E1000BDEEC00A10EE101A3748FEF7FBFD092888
:101E200000D00024324890ED0D0ADFED320A20EE9A
:101E3000200ABDEEC00A10EE101A2F48001DFEF752
:101E4000E9FD092800D00024294890ED0E0ADFEDB5
:101E5000290A20EE200ABDEEC00A10EE101A26480C
:101E60000830FEF7D7FD092800D00024204890ED67
:101E70000F0ADFED200A20EE200ABDEEC00A10EEA8
:101E8000101A1D480C30FEF7C5FD092800D00024AB
:101E9000174890ED100ADFED170A20EE200ABDEE7C
:101EA000C00A10EE101A14481030FEF7B3FD0928CE
:101EB00000D000240E4890ED110ADFED0E0A20EE4E
:101EC000200ABDEEC00A10EE101A0B481430FEF7BF
:101ED000A1FD092800D00024642107481830FEF72E
:101EE00099FD092800D00024FEF78AFD204610BD88
:101EF000680800200000C84200000E0800B58FB03E
:101F000001218805FEF78EFE052004900020009038
:101F100003900B901048029000200D904FF4005059
:101F20000890C0100690801009900C480190002085
:101F30000E904FF400600790002005904FF40030A1
:101F40000A9069460648FEF7D1FB01210448FEF7D6
:101F5000C2FB0FB000BD00008C0900204C200140E6
:101F60001064024010B502F0C7FB02F043F91C48B0
:101F7000407820F080008030194948700846407849
:101F800020F07000403048700846407820F00E0085
:101F9000001D48700846407820F00100487008464F
:101FA000007820F0E000803008700846007820F0CB
:101FB000100008700846007820F0080008700846F5
:101FC000007820F00600801C08700846007820F099
:101FD0000100401C0870088800F054FE10BD00008D
:101FE0008805002010B50D4805F0BEF97C230022BD
:101FF0003C210A4805F072F9202301223C210748C0
:1020000005F06CF9802302223C21044805F066F9B2
:102010000348C1680A20884710BD0000F00900206D
:10202000C804002010B51C4805F09EF91B48C16883
:102030003220884780236B22D021174805F04EF9C3
:102040001648C1680520884700231922D02112486C
:1020500005F044F900236B22D0210F4805F03EF92A
:1020600000233722D0210C4805F038F906231A2224
:10207000D021094805F032F918231B22D021064847
:1020800005F02CF910231C22D021034805F026F975
:1020900002F094FC10BD0000C8070020C804002016
:1020A00010B54FF48050064908801E2000F082FBD6
:1020B0004FF480500249891E0880012010BD0000A5
:1020C0001A04024010B52DED048B86B00446012C95
:1020D0007DD1AB49086807F03EFD41EC190BA949D9
:1020E0009FEDA92B9FEDAA1BB0EE490AF0EE690AFD
:1020F00008688047B0EE408AF0EE608A51EC180B19
:1021000007F0CCFC00909E49486807F024FD41ECA4
:10211000190B9C499FED9C2B9FED9D1BB0EE490A2E
:10212000F0EE690A08688047B0EE408AF0EE608AF7
:1021300051EC180B07F0B2FC01909149886807F048
:102140000AFD41EC190B8F499FED8F2B9FED901BE2
:10215000B0EE490AF0EE690A08688047B0EE408A9E
:10216000F0EE608A51EC180B07F098FC029084495D
:10217000C86807F0F0FC41EC190B82499FED822BF7
:102180009FED831BB0EE490AF0EE690A08688047AC
:10219000B0EE408AF0EE608A51EC180B07F07EFC3E
:1021A00003907749086907F0D6FC41EC190B754993
:1021B0009FED752B9FED761BB0EE490AF0EE690A94
:1021C00008688047B0EE408AF0EE608A00E01FE0C9
:1021D00051EC180B07F062FC04906949486907F05C
:1021E000BAFC41EC190B67499FED672B9FED681B0B
:1021F000B0EE490AF0EE690A08688047B0EE408AFE
:10220000F0EE608A51EC180B07F048FC05909BE05B
:102210005B49086807F09FFC41EC190B59499FED99
:102220005E2B9FED5B1BB0EE490AF0EE690A086871
:102230008047B0EE408AF0EE608A51EC180B07F050
:102240002DFC00904E49486807F085FC41EC190BC5
:102250004C499FED512B9FED4E1BB0EE490AF0EE1D
:10226000690A08688047B0EE408AF0EE608A51EC57
:10227000180B07F013FC01904149886807F06BFCCC
:1022800041EC190B3F499FED442B9FED411BB0EEF4
:10229000490AF0EE690A08688047B0EE408AF0EE1D
:1022A000608A51EC180B07F0F9FB02903449C868BA
:1022B00007F051FC41EC190B32499FED372B9FED94
:1022C000341BB0EE490AF0EE690A08688047B0EEA8
:1022D000408AF0EE608A51EC180B07F0DFFB0390A8
:1022E0002749086907F037FC41EC190B25499FED98
:1022F0002A2B9FED271BB0EE490AF0EE690A086809
:102300008047B0EE408AF0EE608A51EC180B07F07F
:10231000C5FB04901A49486907F01DFC41EC190BF4
:1023200018499FED1D2B9FED1A1BB0EE490AF0EEE8
:10233000690A08688047B0EE408AF0EE608A51EC86
:10234000180B07F0ABFB059015480099FEF7BFFE90
:1023500013480199FEF7BDFE11480299FEF7BBFE36
:1023600010480399FEF7B3FE0E480499FEF7B1FE3C
:102370000C480599FEF7AFFE06B0BDEC048B10BD0E
:10238000B0070020880400200000000000B08D404D
:102390000000000000B09D400000000000208C40C4
:1023A000000400400008004070B587B03448007851
:1023B000012863D13348007801280AD1002005E0C4
:1023C0003149095C0DF80010411CC8B21928F7DB2F
:1023D00009E0002005E02D49095C0DF80010411CC2
:1023E000C8B21928F7DB00202549087000BF3AE081
:1023F0000024002316E000EB4002254D05EB82028D
:1024000002EB83018A785AB10D786D1C1DF8052006
:102410004D78EA408D782A40CD78AA40144300BF19
:10242000591CCBB2032BE6DBB4F5AF7F14D9A4F56E
:10243000AF7100EE101AF8EE400A9FED161A9FEDEC
:10244000160A00EE810ABCEEC00A10EE101A8AB21B
:10245000124921F8102004E04FF461720F4921F86D
:102460001020411CC8B20C28C2DB9DF818009DF852
:10247000171040EA01200A49088000BF07B070BD6C
:102480002C0500202D050020E1080020C8080020B0
:1024900046A600082FA13D3F00006144120900201C
:1024A00030050020014640F2B630814201DA0020BA
:1024B000704740F23A70814201DD0220F8E70120C6
:1024C000F6E7000002490979024A117070470000DE
:1024D000180400209804002010B50446204603F09C
:1024E000DFFE204604F0B8F82046FFF7EBFF204659
:1024F00001F0AEFE2046FFF797FA10BD70B52DED46
:10250000048B00BF1C498868804704460D461B4960
:1025100003C9221A65EB0101104607F097FB9FEDF6
:10252000180B53EC102B07F013FC41EC180B134A5B
:1025300030C2154A92ED0C0BB0EE403AF0EE603A24
:10254000124A526802F11800104A5268B0EE484A26
:10255000F0EE684AD0ED022A90ED012AD0ED001A83
:1025600092ED0B1AD2ED0A0A92ED090A02F0C8FDAB
:10257000BDEC048B70BD0000C80400208004002066
:102580008DEDB5A0F7C6B03E50100020100500201C
:102590000146B5EEC00AF1EE10FA05DBF1EEC00A15
:1025A000C1ED000A00207047DFED030AC1ED000A0B
:1025B0004FF0FF30F7E70000000000001CB50121DC
:1025C0000846FEF72FFB01210420FEF72BFB01211B
:1025D0001020FEF727FB01210802FEF743FB032032
:1025E0008DF804000F20009000208DF807000320D4
:1025F0008DF8050069461148FEF757FA03208DF85B
:1026000004000120009000208DF8070003208DF8C1
:10261000050069460A48FEF748FA00208DF80400D4
:102620004FF40040009000208DF8070003208DF843
:10263000050069460348FEF738FA1CBD0008024051
:10264000000002400010024000B52DED060B2DEDFC
:102650000A8B83B0B0EE61BAF0EE42BAB0EE62CA55
:1026600068469FED4A0A80ED000A9FED480A80ED1A
:10267000010A9FED460A80ED020A00BF9FED440A61
:102680002BEE000AB0EE40BA9FED410A2BEE800A15
:10269000F0EE40BAB0EE6B0A06F032FEB0EE408AC1
:1026A000B0EE4B0A06F02CFEB0EE40AAB0EE4C0A9B
:1026B00006F026FEF0EE40AAB0EE6B0A06F068FEC9
:1026C000F0EE408AB0EE4B0A06F062FEB0EE409AA1
:1026D000B0EE4C0A06F05CFEF0EE409A2AEE2A0AB2
:1026E000DDED0D0A20EE200A68EE890A60EEAA0AE6
:1026F00048EE690A9DED0E1A00EE810A68EE090A9D
:1027000060EE880A48EEA90A9DED0F1A00EE810AD4
:102710008DED000A2AEE290ADDED0D0A20EE200AD1
:1027200068EE890A60EEA90A48EE2A0A9DED0E1AA3
:1027300000EE810A68EE090A60EEA90A48EEEA0A8C
:102740009DED0F1A00EE810A8DED010A28EE8A0A2E
:10275000DDED0E0A20EE200ADDED0D0AB1EE491A7C
:1027600001EE200A68EE0A0A9DED0F1A00EE810ABA
:102770008DED020A9DED000ADDED010A9DED021AC4
:1027800003B0BDEC0A8B06B000BD000000000000E5
:1027900034FA8E3C10B501F003FF01F03FFCFFF767
:1027A0007FFC0348C1686420884701F03BFF10BDEF
:1027B000C804002010B5044600BF02210A48FEF7F5
:1027C000DFFA0028F9D021460748FEF7E5FA00BFF6
:1027D00001210548FEF7D4FA0028F9D00248FEF797
:1027E000D8FAC0B210BD0000003800402DE9F04F0B
:1027F0002DED088B89B0CC48007810B101280FD19D
:1028000006E003F0F5F9012801D1C749087008E096
:1028100003F036F9012802D10220C349087000E014
:1028200000BF00BFC0480078022804D009B0BDEC4A
:10283000088BBDE8F08F4FF00008C1460024254604
:1028400000263746B94840890102B948D0E900302E
:10285000591A60F10000B64AC2E90010B3488089F5
:10286000002306CAA0FB01CA03FB01A100FB021062
:10287000410241EADC5000F5FA60C117AD4A03C2DB
:10288000AA4880880204A9480089DFF8A4C2DCE9CC
:10289000001BA0FB01CE03FB01E100FB0B104FEA84
:1028A000DC1141EA4061511843EBE010CDE904101E
:1028B0009E4840884FEAC0329C48C088DFF870C20A
:1028C000DCE9001BA0FB01CE03FB01E100FB0B10C8
:1028D0004FEA1C2141EA0061511843EB2020CDE969
:1028E00006109448D0E900204FF4FA63D21A70F130
:1028F00000007DDA8E48D0E90010A1FB012300FB27
:10290000013301FB0030D10F41EA40084FEAE07982
:102910008848D0E900104FF4FA6AB1EB0A0260F17E
:102920000001104607F02EF941EC1B0B9FED821BB6
:10293000B0EE4B0AF0EE6B0A06F08CF9B0EE40AA4E
:10294000F0EE60AA9FED7E0B53EC102B51EC1A0BAE
:1029500007F0FEF907F09EFDCDE90201DDE9021066
:1029600045104FEA3104DDE902014FEA900040EAE8
:1029700081764FEAA1076F48D0E90030724A9A1A6F
:1029800070F1FF303DDA6B4940F2DC5CD1E900B018
:102990001BEB0C0240F10001104607F0F3F841EC8C
:1029A0001A0B9FED651BB0EE4A0AF0EE6A0A06F0BC
:1029B00051F9B0EE409AF0EE609A51EC190B07F025
:1029C00069FDCDE9000107234FF0000CDDE900109F
:1029D000A1FB032A00FB03A001FB0C0014194541D5
:1029E0000B23DDE90010A1FB032A00FB03A000E09C
:1029F00008E001FB0C0040104FEA320296194741F3
:102A000000BF00BF4B48D0E90010B1EB080160EBFC
:102A10000900484AC2E90010DDE90410091B60EB17
:102A20000502CDE90412DDE90610891B60EB0702FF
:102A3000CDE90612454800680023DDE90612A0FB37
:102A400001CA03FB01A100FB02114FEA5C5040EAFE
:102A5000C12C4815DDE90421BCEB020260EB010149
:102A6000D00B40EA4140C913324AC2E90201104684
:102A7000D0E90220D21A984100DAD7E69FED340A55
:102A8000B0EE408A2B49D1E90221104607F084FCC0
:102A900000EE100ADFED2F0A80EE201AF0EE418AD8
:102AA000DFED2D0AB0EE680A05F0CEFDF7EE000A64
:102AB00030EEC00ADFED290A20EE200AB0EE408A8F
:102AC000B0EE480A264804F0C2F9B0EE408AB0EEF3
:102AD000480A244803F084FFB0EE408A154890ED80
:102AE000040ADFED210A20EE200ADFED200A08EEBD
:102AF000200A80ED040A1E4948688047B0F5FA6F45
:102B000004D20C4890ED040A80ED050A094890EDC6
:102B1000040AD0ED050A30EE600A80ED040A0020B8
:102B20000149087000BF81E6F4050020380C002040
:102B3000E8050020180C0020000000000000004004
:102B4000000000000000144024FAFFFFF005002000
:102B50000000000080E6C547AEDC423E002A2D475B
:102B6000900C0020480C00206666663FCDCCCC3D22
:102B7000C804002070B50446002502F0ABFF01F048
:102B800083FF01F0A9FF20202F490880072001F0D2
:102B900099FD06463146272002F012F8FF21E12078
:102BA00002F00EF8FF21E22002F00AF80522274980
:102BB000302001F0E7FF052224492A2001F0E2FF3E
:102BC0000321232001F0FCFF0121212001F0F8FF67
:102BD0000121222001F0F4FF06213D2001F0F0FF49
:102BE0001D2001F06FFD38B91C2001F06BFD18B9F4
:102BF0007321502001F0E4FF06213D2001F0E0FFA9
:102C000001213C2001F0DCFFF221242001F0D8FF5B
:102C10003221252001F0D4FF0E21262001F0D0FF23
:102C2000012C04D10E21202001F0CAFF03E00F2166
:102C3000202001F0C5FF20200349891E0880044898
:102C40000470284670BD00001A080240500500209C
:102C50005A05002010B504494868804703480168B8
:102C60004FF4E130884710BDF8050020980500209A
:102C700003480078012801D1002070470120FCE7BB
:102C8000C50500201FB50446082010490880201201
:102C900000F01EF80090E0B200F01AF80190201247
:102CA00000F016F80290E0B200F012F8039008204D
:102CB0000649891E0880DDE9021040EA012040EA49
:102CC0000140009940EA016004B010BD1A040240BE
:102CD00010B5044600BF02210A48FEF751F800284B
:102CE000F9D021460748FEF757F800BF01210548F3
:102CF000FEF746F80028F9D00248FEF74AF8C0B2BD
:102D000010BD0000003C004010B52DED028B0446C4
:102D10009FED4F0AB0EE408A4E4801780078401C83
:102D20004C4A1070052091FBF0F200FB121020B10C
:102D3000BFEE000ABDEC028B10BD24B1012C2CD0DB
:102D4000022C7CD153E044484078C0F302100428A0
:102D50000CD04148407820F0700040303E49487027
:102D6000088801F00BFDBFEE000AE3E73A49088846
:102D700001F004FD00EE100AB8EE400A9FED371A8C
:102D8000C0EE010A9FED360A20EE800ADFED350A1B
:102D900020EE200AB0EE408A56E02F484078C0F37B
:102DA000021005280CD02C48407820F070005030DC
:102DB00029494870088801F0E1FCBFEE000AB9E734
:102DC0002549088801F0DAFC00EE100AF8EE400A06
:102DD0009FED221A80EE810ADFED210A20EE200A03
:102DE000DFED200A20EE200AB0EE408A2CE01A48DF
:102DF0004078C0F3021006280CD01748407820F025
:102E00007000603014494870088801F0B7FCBFEECC
:102E1000000A8FE71049088801F0B0FC00EE100AA4
:102E2000B8EE400A9FED0D1AC0EE010A9FED0C0AA4
:102E300020EE800AF3EE0C0A20EE200A00E002E009
:102E4000B0EE408A00E000BF00BFB0EE480A71E774
:102E500000000000940500208805002000000047C5
:102E60006F1203409A99894030B52DED048B83B0E1
:102E7000054668469FEDB80A80ED000A9FEDB60A48
:102E800080ED010A9FEDB40A80ED020A00BFB3484D
:102E900090F8D903012802D1B04981F8D803AF488E
:102EA00090F8D803012811D1AC4804F03FF9AB48A1
:102EB000503004F03BF9A948A03004F037F9A84994
:102EC000C868804703B0BDEC048B30BDA34890EDCB
:102ED000401BB0EE410AF0EE610A53EC102B9FED5F
:102EE000A11B51EC110B06F033FF41EC180B9B4872
:102EF00090ED001BB0EE410AF0EE610A53EC102B8E
:102F00009FED9A1B51EC110B06F022FF41EC190BBF
:102F100053EC182B06F072FB904A03C28F4890EDD9
:102F2000541BB0EE410AF0EE610A53EC102B9FEDFA
:102F30008D1B51EC110B06F00BFF41EC180B874871
:102F400090ED141BB0EE410AF0EE610A53EC102B29
:102F50009FED861B51EC110B06F0FAFE41EC190BAC
:102F600053EC182B06F04AFB7C4AC2E914011046C8
:102F700090ED681BB0EE410AF0EE610A53EC102BA5
:102F80009FED781B51EC110B06F0E2FE41EC180BA3
:102F9000724890ED281BB0EE410AF0EE610A53EC46
:102FA000102B9FED721B51EC110B06F0D1FE41EC82
:102FB000190B53EC182B06F021FB684AA03203C210
:102FC000664890F8DA0318B96A488068848B0BE089
:102FD000624890EDA41BB0EE410AF0EE610A51EC9C
:102FE000100B06F05BFD04466348006890ED000A94
:102FF00010EE101A084607F0A1F9584AC2E902017A
:103000005D48006890ED010A10EE101A084607F0BE
:1030100095F9524AC2E916015748006890ED020A34
:1030200010EE101A084607F089F94C4AA032C2E99E
:1030300002012946494803F03DFFB0EE408AF0EE18
:10304000608A51EC180B06F0A7FA00902946434815
:10305000503003F02FFFB0EE408AF0EE608A51EC62
:10306000180B06F099FA019029463C48A03003F06D
:1030700021FFB0EE408AF0EE608A51EC180B06F0AA
:103080008BFA029000203649096808619DED000A1C
:10309000DDED010A30EE600ADDED020A70EE200A75
:1030A00000EE104AB8EEC00A30EE800ABDEEC00A4B
:1030B0002B48006880ED020A9DED000AB1EE400A3F
:1030C000DDED010A30EE600ADDED020A70EE600A05
:1030D00000EE104AB8EEC00A30EE800ABDEEC00A1B
:1030E0001F48006880ED010A00201D4909684861F9
:1030F0009DED000ADDED010A30EE200ADDED020A49
:1031000070EE600A00EE104AB8EEC00A30EE800A97
:10311000BDEEC00A1248006880ED030A9DED000A6A
:10312000B1EE400ADDED010A30EE200ADDED020AC3
:1031300070EE200A00EE104AB8EEC00A30EE800AA7
:10314000BDEEC00A0648006880ED000A04488168A8
:103150000120884700BFB5E60000000020000020E5
:10316000FC040020000000A09999B93F000000C0B5
:10317000CCCCEC3F300500205C04002070B52DED78
:10318000068B0446ED4890F8D80301280DD1EB4892
:10319000F03003F0CBFFEA4803F0C8FFE8485030B6
:1031A00003F0C4FFBDEC068B70BDE44890F8DA0371
:1031B00002286FD1E14890ED7C1BB0EE410AF0EEA1
:1031C000610A53EC102B9FEDDF1B51EC110B06F045
:1031D000BFFD41EC180BD94890ED3C1BB0EE410A05
:1031E000F0EE610A53EC102B9FEDD81B51EC110B44
:1031F00006F0AEFD41EC190B53EC182B06F0FEF96E
:10320000CF4A503A03C2CD4890ED901BB0EE410A30
:10321000F0EE610A53EC102B9FEDCA1B51EC110B21
:1032200006F096FD41EC180BC44890ED501BB0EE33
:10323000410AF0EE610A53EC102B9FEDC41B51ECD8
:10324000110B06F085FD41EC190B53EC182B06F021
:10325000D5F9BA4A02F5A07203C2B84890ED641BD2
:10326000B0EE410AF0EE610A53EC102B9FEDB71B54
:1032700051EC110B06F06CFD41EC180B9FEDB50BFA
:1032800053EC102B06F0BAF9AC4A02F5C87203C22F
:1032900091E0FFE7B1498968C98BA1F5AF60B049FA
:1032A0004A680221904700EE100AB8EEC00A9FED6E
:1032B000AD1AC0EE010A9FEDAC0A20EE800AB0EE16
:1032C000408AA6498968498BC1F5AF60A4494A681C
:1032D0000221904700EE100AB8EEC00ADFEDA10A05
:1032E00080EE201A9FEDA00A21EE000AF0EE408A3F
:1032F0009FED9E0A28EE000A10EE101A084607F00D
:103300001DF841EC190B8D4890ED3C1BB0EE410AC5
:10331000F0EE610A53EC102B9FED8C1B51EC110B5E
:1033200006F016FD41EC1A0B53EC192B06F066F96A
:10333000834A503A03C29FED8D0A28EE800A10EEB0
:10334000101A084606F0FAFF41EC190B7B4890ED85
:10335000501BB0EE410AF0EE610A53EC102B9FEDCA
:103360007B1B51EC110B06F0F3FC41EC1A0B53ECF8
:10337000192B06F043F9714A02F5A07203C26F4897
:1033800090ED641BB0EE410AF0EE610A53EC102B95
:103390009FED6E1B51EC110B06F0DAFC41EC190BA2
:1033A0009FED6C0B53EC102B06F028F9634A02F5E5
:1033B000C87203C200BF6E484068D0ED000AB0EE8C
:1033C000600A02F0EFFE10EE105A284606F0B6FF33
:1033D0005B4A503AC2E9020165484068D0ED010AF3
:1033E000B0EE600A02F0DEFE10EE105A284606F03B
:1033F000A5FF534AC2E902015D48006890ED020A48
:1034000010EE101A084606F099FF4D4A5032C2E9F4
:1034100002012146A2F1A00003F04CFD21464848DC
:1034200003F048FD21464648503003F043FD00BFFD
:10343000424890ED401BB0EE410AF0EE610A9FED6C
:103440004D1B53EC112B51EC100B06F07FFD04D2F9
:103450009FED480B394880ED400B384890ED401BFC
:10346000B0EE410AF0EE610A9FED441B53EC112BC4
:1034700051EC100B06F030FC04D29FED400B2F48AE
:1034800080ED400B00BF00BF2C4890ED541BB0EE08
:10349000410AF0EE610A9FED371B53EC112B51EC02
:1034A000100B06F053FD04D29FED320B234880ED44
:1034B000540B224890ED541BB0EE410AF0EE610A25
:1034C0009FED2E1B53EC112B51EC100B06F004FC5E
:1034D00004D29FED2A0B194880ED540B00BF00BFAA
:1034E000164890ED681BB0EE410AF0EE610A9FEDC0
:1034F000211B53EC112B51EC100B06F027FD04D2CD
:103500009FED1C0B0D4880ED680B0C4890ED681B7F
:10351000B0EE410AF0EE610A9FED181B53EC112B3F
:1035200051EC100B06F0D8FB04D29FED140B0348AE
:1035300080ED680B00BF00BF34E6000020000020D3
:1035400060010020000000A09999B93F000000C070
:10355000CCCCEC3F00000000000000003005002053
:10356000880400200000FA43C1B8B23ECDCCCC3D67
:103570005C04002000000020FB21E93F0000002047
:10358000FB21E9BF10B588B0874803F050FF3C210C
:10359000854803F0C7FF844803F074FF0321824885
:1035A00003F0C0FF804803F06DFF7F4803F03FFF4A
:1035B0003D217D4803F0B6FF7B4803F063FF002404
:1035C00009E0794803F087FF06A90855764803F01B
:1035D000B0FE601CC4B2052CF3DB734803F07BFF24
:1035E0008DF81D00704803F007FF6F4803F0E1FEFF
:1035F0009DF819009DF8181040EA012000B200EE75
:10360000100AB8EEC00A6948406880ED030A9DF8C8
:103610001B009DF81A1040EA012000B200EE100ACB
:10362000B8EEC00A6148406880ED050A9DF81D00AB
:103630009DF81C1040EA012000B200EE100AB8EE1E
:10364000C00A5A48406880ED040A5848406800F1B2
:103650000C015648406800F10C0291ED021AD1EDC0
:10366000010A91ED000A5248144603F070FB84ED04
:10367000000AC4ED010A84ED021A03A803F0B8FDA4
:103680004A48406890ED030A48484068D0ED090A6E
:1036900030EE600A45484068D0ED060A80EE201AF8
:1036A0008DED031A4148406890ED040A3F48406898
:1036B000D0ED0A0A30EE600A3C484068D0ED070AB7
:1036C00080EE201A8DED041A3848406890ED050A06
:1036D00036484068D0ED0B0A30EE600A3348406847
:1036E000D0ED080A80EE201A8DED051A9DED030A33
:1036F00020EE000ADDED040A9DED041A00EE810AB9
:10370000DDED050A9DED051A00EE810A27484068A7
:1037100080ED0C0A25484068D0ED0C0AB7EE001A7F
:1037200030EEC10AF0EEC00A9FED220AF4EEC00AA4
:10373000F1EE10FA05D21D48406803A90EC90EC06B
:1037400016E01D480088401C1B4908809FED1B1A8D
:10375000DFED1A0A9FED190A684603F041FD13498F
:103760004968D0E900238068C1E90023886000BF70
:10377000134801880088401C114A1080642910D128
:103780000D4800880A2802DD0120084908700A480F
:1037900000880649496848630020094908800649AD
:1037A000088008B010BD0000F0090020A00500202E
:1037B000000A0020CDCC4C3EB005002000000000E7
:1037C000B205002010B500F0BFFD00F053FE00F080
:1037D000F1FF10BD10B52DED048B0446CA4890F8DA
:1037E000D803012822D1C94803F0A0FCC7485030B3
:1037F00003F09CFCC548A03003F098FCC448006866
:1038000090ED030AC04880EDF30AC148006890EDCE
:10381000040ABD4880EDF40ABD48006890ED050A31
:10382000B94880EDF50ABDEC048B10BDB64890EDAB
:10383000B81BB0EE410AF0EE610A53EC102B9FED7D
:10384000B51B51EC110B06F083FA41EC180BAE4896
:1038500090ED781BB0EE410AF0EE610A53EC102BAC
:103860009FEDAE1B51EC110B06F072FA41EC190BF7
:1038700053EC182B05F0C2FEA34A02F5F07203C206
:10388000A14890EDCC1BB0EE410AF0EE610A53EC7A
:10389000102B9FEDA01B51EC110B06F059FA41ECD7
:1038A000180B994890ED8C1BB0EE410AF0EE610ABE
:1038B00053EC102B9FED991B51EC110B06F048FABD
:1038C00041EC190B53EC182B05F098FE8E4A02F5CB
:1038D0000C7203C28C4890EDE01BB0EE410AF0EE92
:1038E000610A53EC102B9FED8B1B51EC110B06F072
:1038F0002FFA41EC180B844890EDA01BB0EE410A62
:10390000F0EE610A53EC102B9FED841B51EC110B70
:1039100006F01EFA41EC190B53EC182B05F06EFE65
:10392000794A02F5207203C27948006890ED030AD3
:103930007548D0EDF30A30EE600A10EE101A084612
:1039400006F0FCFC714AC2E902017148006890ED82
:10395000040A6D48D0EDF40A30EE600A10EE101A39
:10396000084606F0EBFC694A5032C2E90201684899
:10397000006890ED050A6448D0EDF50A30EE600A63
:1039800010EE101A084606F0D9FC604AA032C2E9CF
:10399000020121465D4803F08DFA21465B48503014
:1039A00003F088FA21465948A03003F083FA00BF9B
:1039B000554890ED7C1BB0EE410AF0EE610A9FED98
:1039C000591B53EC112B51EC100B06F0BFFA04D22B
:1039D0009FED540B4C4880ED7C0B4B4890ED7C1BCD
:1039E000B0EE410AF0EE610A9FED501B53EC112B33
:1039F00051EC100B06F070F904D29FED4C0B4248CD
:103A000080ED7C0B00BF00BF3F4890ED901BB0EEF7
:103A1000410AF0EE610A9FED431B53EC112B51EC70
:103A2000100B06F093FA04D29FED3E0B364880ED62
:103A3000900B354890ED901BB0EE410AF0EE610A14
:103A40009FED3A1B53EC112B51EC100B06F044F98F
:103A500004D29FED360B2C4880ED900B00BF00BFC9
:103A6000294890EDA41BB0EE410AF0EE610A9FEDEB
:103A7000311B53EC112B51EC100B06F067FA04D2FA
:103A80009FED2C0B204880EDA40B1F4890EDA41B4C
:103A9000B0EE410AF0EE610A9FED281B53EC112BAA
:103AA00051EC100B06F018F904D29FED240B1648C8
:103AB00080EDA40B00BF23498968888B06F0B3F81A
:103AC00041EC190B20499FED212B9FED221BB0EEFD
:103AD000490AF0EE690A08688047B0EE408AF0EEC5
:103AE000608A094890EDA41BB0EE410AF0EE610A2D
:103AF00053EC102B51EC180B05F080FD034AA0325B
:103B0000C2E9040100BF8EE6200000200002002070
:103B100018040020000000A09999B93F000000C0DF
:103B2000CCCCEC3F000000201857D63F000000200E
:103B30001857D6BF0000000000C07240000000000F
:103B400000C072C030050020880400200000000082
:103B500000208C400000000000E0954070B52DED85
:103B6000028B0446FD4890F8D803012822D1FC4876
:103B700003F0DCFAFA48503003F0D8FAF848A030E5
:103B800003F0D4FAF748006890ED000AF34880ED9E
:103B9000F00AF448006890ED010AF04880EDF10A5F
:103BA000F048006890ED020AEC4880EDF20ABDECA6
:103BB000028B70BDE94890F8D90300287DD1EA490D
:103BC0008968C98BA1F5AF60E8494A68022190472E
:103BD00000EE100AB8EEC00ADFEDE50A80EE201A0A
:103BE000B6EE000A61EE000A00EE104AB8EE400A96
:103BF00020EE800ADFEDDF0A80EE201A11EE105A67
:103C0000284606F09BFB41EC180BD44890EDB41B02
:103C1000B0EE410AF0EE610A53EC102B51EC180B98
:103C200005F0ECFCCD4A02F5347203C2CE49896836
:103C3000498BA1F5AF60CD494A680221904700EE5B
:103C4000100AF8EEC00A9FEDCA1A80EE810AF6EE5D
:103C5000000A60EE200A00EE104AB8EE400A20EE9C
:103C6000800ADFEDC40A80EE201A11EE105A2846B1
:103C700006F064FB41EC180BB84890EDC81BB0EEA1
:103C8000410AF0EE610A53EC102B51EC180B05F0D1
:103C9000B5FCB24A02F5487203C2B3498968898B00
:103CA000A1F5AF60B1494A680221904700EE100AC1
:103CB000B8EEC00A9FEDAE1A00E0ABE0C0EE010A1C
:103CC000B6EE000A60EE800A00EE104AB8EE400A36
:103CD00020EE800ADFEDA70A80EE201A11EE105ABE
:103CE000284606F02BFB41EC180B9C4890EDDC1BA2
:103CF000B0EE410AF0EE610A53EC102B51EC180BB8
:103D000005F07CFC954A02F55C7203C200BF934843
:103D100090EDB41BB0EE410AF0EE610A9FED961BE8
:103D200053EC112B51EC100B06F010F904D29FED5F
:103D3000920B8A4880EDB40B884890EDB41BB0EE2E
:103D4000410AF0EE610A9FED8E1B53EC112B51ECF2
:103D5000100B05F0C1FF04D29FED890B7F4880ED69
:103D6000B40B00BF00BF7D4890EDC81BB0EE410A08
:103D7000F0EE610A9FED801B53EC112B51EC100B00
:103D800006F0E4F804D29FED7C0B744880EDC80B7C
:103D9000724890EDC81BB0EE410AF0EE610A9FED4B
:103DA000781B53EC112B51EC100B05F095FF04D24E
:103DB0009FED730B694880EDC80B00BF00BF6748DB
:103DC00090EDDC1BB0EE410AF0EE610A9FED6E1B38
:103DD00053EC112B51EC100B06F0B8F804D29FED08
:103DE0006A0B5E4880EDDC0B5C4890EDDC1BB0EEAE
:103DF000410AF0EE610A9FED661B53EC112B51EC6A
:103E0000100B05F069FF04D29FED610B534880ED64
:103E1000DC0B00BF5348006890ED000A4F48D0ED1E
:103E2000F00A30EE600A10EE101A084606F086FA24
:103E30004B4AC2E902014B48006890ED010A47482D
:103E4000D0EDF10A30EE600A10EE101A084606F0C6
:103E500075FA434A5032C2E902014248006890EDC7
:103E6000020A3E48D0EDF20A30EE600A10EE101A57
:103E7000084606F063FA3A4AA032C2E90201214636
:103E8000374803F017F821463548503003F012F850
:103E900021463348A03003F00DF800BF2F4890EDC5
:103EA000B81BB0EE410AF0EE610A9FED3B1B53ECEC
:103EB000112B51EC100B06F049F804D29FED360B94
:103EC000264880EDB80B254890EDB81BB0EE410AAE
:103ED000F0EE610A9FED321B53EC112B51EC100BED
:103EE00005F0FAFE04D29FED2E0B1C4880EDB80BB6
:103EF00000BF00BF194890EDCC1BB0EE410AF0EEB8
:103F0000610A9FED251B53EC112B51EC100B06F0B1
:103F10001DF804D29FED200B104880EDCC0B0F480C
:103F200090EDCC1BB0EE410AF0EE610A9FED1C1B38
:103F300053EC112B51EC100B05F0CEFE04D29FED8B
:103F4000180B064880EDCC0B00BF00BF034890ED76
:103F5000E01BB0EE410AF0EE610A25E020000020EF
:103F6000F002002018040020300500208804002002
:103F70000000FA4300007A440000000000002440E2
:103F800000000000000024C000000000000000400D
:103F90000000000000000000000000000000E03F02
:103FA000000000000000E0BF1FED051B53EC112BCB
:103FB00051EC100B05F0CAFF04D21FED090B0D48A0
:103FC00080EDE00B0B4890EDE01BB0EE410AF0EE07
:103FD000610A1FED0D1B53EC112B51EC100B05F07A
:103FE0007BFE04D21FED120B024880EDE00B00BFF8
:103FF00000BFDCE52000002010B50648007838B985
:10400000012240F227710448FDF7EBF9012010BDB1
:104010000020FCE7C40500200048004000B585B042
:1040200001218803FCF70EFE0020ADF800004FF4DC
:104030008270ADF802000020ADF80400ADF8060073
:10404000ADF808004FF40070ADF80A001020ADF88C
:104050000C000020ADF80E000720ADF810006946F6
:104060000448FCF79BFE01210248FCF77DFE05B0E9
:1040700000BD00000038004010B5044600BF02211A
:104080000A48FCF77DFE0028F9D021460748FCF7D6
:1040900083FE00BF01210548FCF772FE0028F9D01D
:1040A0000248FCF776FEC0B210BD000000300140AF
:1040B000F0B52DED048B95B0074600BF1849886810
:1040C000804704460D46174903C9221A65EB0101D2
:1040D000104605F0BBFD9FED140B53EC102B05F0C3
:1040E00037FE41EC180B0F4A30C250221049684687
:1040F000FCF700F90F484068B0EE482AF0EE682A55
:1041000090ED081AD0ED070A90ED060A084810381D
:104110000FC801F097FD15B0BDEC048BF0BD000099
:10412000C8040020500400208DEDB5A0F7C6B03EB5
:10413000601000201005002010B588B00446012151
:104140000220FCF76FFD01218804FCF77BFD0722AC
:104150000A212648FCF7F1FC07220B212348FCF733
:10416000ECFC02208DF81C0003208DF81D000020BF
:104170008DF81E0001208DF81F008002069006A910
:104180001A48FCF792FC4FF40060069006A9174805
:10419000FCF78BFC27208DF8040000208DF805002B
:1041A00001208DF806008DF8070001A8FCF7F2FC4D
:1041B00002940020ADF80C00ADF80E00ADF8100030
:1041C000ADF814000C20ADF8120002A90848FDF764
:1041D0002DF9012240F225510548FDF702F9012190
:1041E0000348FDF7BBF808B010BD00000004024012
:1041F0000048004000B585B00121C803FCF722FD4E
:104200000020ADF800004FF48270ADF802000020ED
:10421000ADF80400ADF806000120ADF8080040023A
:10422000ADF80A001820ADF80C000020ADF80E0023
:104230000720ADF8100069460448FCF7AFFD0121E6
:104240000248FCF791FD05B000BD0000003C0040B5
:1042500070B504463748006890F8D803012848D163
:104260000020354908803348006890F8D9030128B8
:1042700000D170BD3148007800B9FAE72F48C07806
:10428000012800D1F5E72D484078012800D1F0E75A
:104290002A488078012800D1EBE7294A9268908B60
:1042A000274A5169884708B9012500E00025244ABA
:1042B0009268108B224A51698847022801D1012057
:1042C00000E00020054085B11E48008820441D49BB
:1042D00008800846008840F6B831884227DD002073
:1042E0001449096881F8D80321E0002015490880A5
:1042F0001DE000201349088011488068808B40F23F
:104300008E31884205DA0C48008820440A4908802A
:1043100002E00020084908800748008840F6B831CC
:10432000884204DD01200349096881F8D80300BFF1
:104330009FE7000000040020A8040020980400204B
:1043400030050020AA0400201FB53C22D021464899
:1043500002F08FFFC0B28DF808003B22D021424806
:1043600002F087FFC0B28DF809009DF808009DF8A3
:10437000091040EA012000B2ADF800003E22D02131
:10438000394802F076FFC0B28DF80A003D22D021F4
:10439000354802F06EFFC0B28DF80B009DF80A00A0
:1043A0009DF80B1040EA012000B2ADF80200402257
:1043B000D0212D4802F05DFFC0B28DF80C003F22E5
:1043C000D021294802F055FFC0B28DF80D009DF8AC
:1043D0000C009DF80D1040EA012000B2ADF8040079
:1043E000BDF9000000EE100AB8EEC00A1F4880EDCB
:1043F000000ABDF9020000EE100AB8EEC00A1B4820
:1044000080ED010ABDF9040000EE100AB8EEC00A02
:10441000164880ED020A90ED000AD0ED0C0A30EE4D
:10442000600A80ED060A90ED010AD0ED0D0A30EE2B
:10443000600A80ED070A90ED020AD0ED0E0A30EE18
:10444000600A80ED080A90ED081AD0ED070A90ED99
:10445000060A074802F03EFA044880ED060AC0ED5D
:10446000070A80ED081A1FBDC80700206808002051
:10447000D40700201FB54422D021464802F0F9FE9F
:10448000C0B28DF808004322D021424802F0F1FE6C
:10449000C0B28DF809009DF808009DF8091040EAA7
:1044A000012000B2ADF800004622D021394802F0C8
:1044B000E0FEC0B28DF80A004522D021354802F056
:1044C000D8FEC0B28DF80B009DF80A009DF80B10C5
:1044D00040EA012000B2ADF802004822D0212D4868
:1044E00002F0C7FEC0B28DF80C004722D021294847
:1044F00002F0BFFEC0B28DF80D009DF80C009DF8D3
:104500000D1040EA012000B2ADF80400BDF9000032
:1045100000EE100AB8EEC00A1F4880ED030ABDF98C
:10452000020000EE100AB8EEC00A1B4880ED040A33
:10453000BDF9040000EE100AB8EEC00A164880ED7E
:10454000050A90ED030AD0ED0F0A30EE600A80ED07
:10455000090A90ED040AD0ED100A30EE600A80EDF1
:104560000A0A90ED050AD0ED110A30EE600A80EDDE
:104570000B0A90ED0B1AD0ED0A0A90ED090A0748D4
:1045800002F0E5FB044880ED090AC0ED0A0A80ED5F
:104590000B1A1FBDC807002068080020180800205B
:1045A0001CB501210220FCF73DFB01208DF8040021
:1045B00000208DF8060003208DF8050001208DF8FD
:1045C00007000003009069461548FCF76EFA4FF4A7
:1045D000805013491831088002208DF804004FF4F0
:1045E0006040009000208DF8060001208DF8070043
:1045F00003208DF8050069460948FCF756FA0522A4
:104600000D210748FCF799FA05220E210448FCF712
:1046100094FA05220F210248FCF78FFA1CBD000016
:104620000004024070B500241DE04FF480500F4993
:104630000880A02101EB4401C8B2FEF7BBF80020BE
:10464000FEF7B8F806460020FEF7B4F8054645EA3E
:104650000620074921F814004FF480500349891EB1
:104660000880601CC4B2062CDFDD70BD1A04024055
:10467000380C00200348007808B90120704700205A
:10468000FCE700005D0500202DE9F04107460D46DE
:10469000164610200A4948833846FFF7EDFC80464D
:1046A000002405E0FF20FFF7E7FC2855601CC4B29A
:1046B000B442F7DB1020024908834046BDE8F08190
:1046C0000000024070B50446102007494883204688
:1046D000FFF7D2FCFF20FFF7CFFC05461020024970
:1046E0000883284670BD00000000024001200149F7
:1046F00008707047C50500201CB501210620FCF795
:1047000091FA01208DF8040000208DF806000320A6
:104710008DF8050001208DF80700082000906946FB
:104720001448FCF7C2F90820124918310880022009
:104730008DF804004FF4E050009000208DF8060042
:1047400001208DF8070003208DF8050069460A480E
:10475000FCF7ABF906220A210748FCF7EEF906221E
:104760000B210548FCF7E9F906220C210248FCF769
:10477000E4F91CBD00040240000802401CB50446D8
:1047800008200B4908802012FEF7A2FAADF80000BD
:10479000E0B2FEF79DFAADF8020008200449891E38
:1047A0000880BDF80200BDF8001040EA01201CBDE1
:1047B0001A04024010B57748007800F0010048B9AB
:1047C000744802F05EFF28B1734802F011FD714891
:1047D000AFF300807148007800F0010048B96F48DD
:1047E00002F04FFF28B16E4802F002FD6B48AFF3B4
:1047F00000806C480078012868D16B480068E0B9F7
:104800009FED6A0A6A4880ED0C0A9FED680A80ED08
:104810000D0A9FED660A80ED0E0A9FED640A80ED99
:104820000F0A9FED620A80ED100A9FED600A80ED8D
:10483000110A01205C49086010BD5B48006840F621
:10484000B831884243DC58480068401C564908602B
:10485000514890ED000A5648D0ED000A30EE200A8B
:104860004D4880ED000A90ED010A5148D0ED010A53
:1048700030EE200A484880ED010A90ED020A4C48CB
:10488000D0ED020A30EE200A434880ED020A444887
:1048900090ED000A4648D0ED030A30EE200A404869
:1048A00080ED000A90ED010A4148D0ED040A30EE97
:1048B000200A3B4880ED010A90ED020A3C48D0ED09
:1048C000050A30EE200A364880ED020A60E000203A
:1048D00035490860334908702F4890ED000ADFED34
:1048E000350A80EE201A324880ED0C1A2A4890EDE5
:1048F000010ADFED300A80EE201A2D4880ED0D1AF6
:10490000254890ED020ADFED2B0A80EE201A9FED7C
:104910002A0A31EE400A264880ED0E0A204890ED22
:10492000000ADFED240A80EE201A214880ED0F1ADC
:104930001B4890ED010ADFED1F0A80EE201A1C488B
:1049400080ED101A164890ED020ADFED1A0A80EE8B
:10495000201A174880ED111A9FED140A0E4880EDB9
:10496000000A9FED120A80ED010A9FED100A80ED0A
:10497000020A9FED0E0A0A4880ED000A9FED0B0A1D
:1049800080ED010A9FED090A80ED020A00F052F85D
:1049900000BF51E724050020B008002020050020BA
:1049A000BC080020100500202805002000000000A1
:1049B0006808002000803B4500F07F4500B51820C6
:1049C000FDF720F8BCEEC00A10EE100A1749487037
:1049D00008464078012824D10020FDF713F8144838
:1049E00080ED0C0A0420FDF70DF8114880ED0D0A4A
:1049F0000820FDF707F80E4880ED0E0A0C20FDF7A1
:104A000001F80B4880ED0F0A1020FCF7FBFF084867
:104A100080ED100A1420FCF7F5FF054880ED110A1F
:104A200002E001200149087000BD000010050020CF
:104A30006808002010B5FDF7D9F910B90220014926
:104A4000887010BD1005002070B54FF480500D49DE
:104A500008800020FDF7AEFE0020FDF7ABFE044607
:104A60000020FDF7A7FE05460020FDF7A3FE064641
:104A70004FF480500349891E0880200400EB052074
:104A8000304470BD1A0402400EB501218803FCF7C2
:104A9000E9F804210220FCF7A1F910200190002080
:104AA0008DF808000C208DF8090001208DF80A000F
:104AB00001A8FBF7E7FE0A208DF8000000208DF822
:104AC00001000F208DF8020001208DF803006846D8
:104AD000FCF760F80EBD000000B585B001210803A9
:104AE000FCF7C0F80020ADF800004FF48270ADF87C
:104AF00002000020ADF80400ADF80600ADF8080093
:104B00004FF40070ADF80A001020ADF80C00002042
:104B1000ADF80E000720ADF8100069460448FCF718
:104B20003DF901210248FCF71FF905B000BD000066
:104B30000030014010B50E480078012813D10D480F
:104B40000078012812D120200B49088020220B492F
:104B5000A02000F017F820200749891E08800020B7
:104B60000449087002E000200549087010BD0000EB
:104B70005A0500205C0500201A0802402A0900207E
:104B80005B0500202DE9F04107460D461646102032
:104B90000A4948833846FFF76FFA8046002404E04C
:104BA000285DFFF769FA601CC4B2B442F8DB10203C
:104BB000024908834046BDE8F08100000000024041
:104BC00070B505460C461020064948832846FFF775
:104BD00053FA06462046FFF74FFA10200149088392
:104BE000304670BD0000024070B505462C460B49AA
:104BF0000869804701280FD12078472809D16078BB
:104C0000502806D1A078532803D105480168E01C3C
:104C1000884702494869804770BD0000C8050020E8
:104C20000806002070B52DED048BFE480078312871
:104C300004D032287ED033287DD1E1E1FA4890EDCE
:104C4000002BB0EE420AF0EE620AF84890ED002B1D
:104C5000B0EE421AF0EE621A53EC102B51EC110B2D
:104C600005F082FA41EC190B9FEDF10B53EC102B80
:104C700005F06EF841EC180B04F040FFEE49088097
:104C8000E94890ED022BB0EE420AF0EE620AE748E6
:104C900090ED022BB0EE421AF0EE621A53EC102B9C
:104CA00051EC110B05F060FA41EC190B9FEDE00B94
:104CB00053EC102B05F04CF841EC180B04F01EFFE0
:104CC000DD494880D84890ED042BB0EE420AF0EE62
:104CD000620AD64890ED042BB0EE421AF0EE621A4A
:104CE00053EC102B51EC110B05F03EFA41EC190B73
:104CF0009FEDCF0B53EC102B05F02AF841EC180B6D
:104D000004F0FCFECC4988800020C88008814881DE
:104D10008881C881C54890ED061BB0EE410AF0EECF
:104D2000610A9FEDC31B53EC112B51EC100B05F0E6
:104D30000FF801E068E09BE141EC180B04F0DEFEA7
:104D4000BD490882B94890ED081BB0EE410AF0EE6B
:104D5000610A9FEDB71B53EC112B51EC100B04F0C3
:104D6000F7FF41EC180B04F0C9FE81B2B248418252
:104D7000AE4890ED0A1BB0EE410AF0EE610A9FEDDD
:104D8000AC1B53EC112B51EC100B04F0E1FF41EC88
:104D9000180B04F0B3FE81B2A74881820021C182C2
:104DA000018341838183C183A04890ED0C1BB0EE49
:104DB000410AF0EE610A51EC100B04F09FFE9E498F
:104DC0000884994890ED0E2BB0EE420AF0EE620A8C
:104DD000964890ED0E2BB0EE421AF0EE621A53ECAC
:104DE000102B51EC110B05F0BFF941EC180B04F03E
:104DF00085FE81B29048418400218184C18401856F
:104E000041858185C18534E1874890ED102BB0EE56
:104E1000420AF0EE620A854890ED102BB0EE421A7D
:104E2000F0EE621A53EC102B51EC110B05F09CF9CB
:104E300041EC190B9FED7E0B53EC102B04F088FF17
:104E400041EC180B04F05AFE7B490880764890ED3F
:104E5000122BB0EE420AF0EE620A744890ED122B6B
:104E6000B0EE421AF0EE621A53EC102B51EC110B1B
:104E700005F07AF941EC190B9FED6D0B53EC102BFB
:104E800004F066FF41EC180B04F038FE6A494880D4
:104E9000654890ED142BB0EE420AF0EE620A6348CA
:104EA00090ED142BB0EE421AF0EE621A53EC102B78
:104EB00051EC110B05F058F941EC190B9FED5C0B0F
:104EC00053EC102B04F044FF41EC180B04F016FED9
:104ED000594988800020C880088148818881C8811C
:104EE000514890ED002BB0EE420AF0EE620A4F48B6
:104EF00090ED002BB0EE421AF0EE621A53EC102B3C
:104F000051EC110B05F030F941EC190B9FED480BFA
:104F100053EC102B04F01CFF41EC180B04F0EEFDD9
:104F200045490882404890ED022BB0EE420AF0EE6F
:104F3000620A3E4890ED022BB0EE421AF0EE621A81
:104F400053EC102B51EC110B05F00EF941EC190B41
:104F50009FED370B53EC102B04F0FAFE41EC180BCD
:104F600004F0CCFD81B2344841822F4890ED042BEF
:104F7000B0EE420AF0EE620A2C4890ED042BB0EE3F
:104F8000421AF0EE621A53EC102B51EC110B05F0A3
:104F9000EBF841EC190B9FED260B53EC102B04F0B2
:104FA000D7FE41EC180B04F0A9FD81B222488182A2
:104FB0000021C182018341838183C18300201E4976
:104FC000088400211C4841841C48406890ED020A76
:104FD000BCEEC00A10EE100A81B21748818417484F
:104FE000406890ED010ABCEEC00A10EE100A81B2D2
:104FF0001148C1840021018541858185C18538E042
:105000000A200D490880142048801E20888028200E
:10501000C880322008813C20488146208881502069
:10502000C8810DE000000020B010002050100020CA
:105030000000000000005940BC0900205C04002072
:105040000020088200212C4841828182C182018394
:1050500041838183C1830020274908840021264899
:1050600041848184C184018541858185C18500E0B9
:1050700000BF00BF53212148FCF747FA00BF402181
:105080001E48FCF777F90028F9D054211B48FCF79B
:105090003CFA00BF40211948FCF76CF90028F9D010
:1050A000002424E000251FE0134800EB041010F852
:1050B00015101248FCF729FA00BF40210F48FCF7F1
:1050C00059F90028F9D00C4800EB041030F815000D
:1050D00001120A48FCF719FA00BF40210748FCF703
:1050E00049F90028F9D06D1C082DDDDB641C032C68
:1050F000D8DBBDEC048B70BDBC0900200010014062
:1051000010B52DED0A0BB0B09FEDFE0B53EC102B3C
:105110009DED380B51EC100B04F02CFBCDE92C016C
:105120003398139005F00AF9CDE9180134981390DB
:1051300005F004F9CDE916013598139005F0FEF855
:10514000CDE914019DED300ADFEDF00A20EE200AD2
:105150008DED120A9DED120A01F024F88DED130A6F
:10516000139805F0EBF8CDE91E019DED310ADFED56
:10517000E70A20EE200A8DED120A9DED120A01F0D9
:1051800011F88DED130A139805F0D8F8CDE91C013C
:105190009DED320ADFEDDD0A20EE200A8DED120AC8
:1051A0009DED120A00F0FEFF8DED130A139805F035
:1051B000C5F8CDE91A019DED1E0B51EC100B04F062
:1051C000EBF9D349096808609DED1C0B51EC100BFD
:1051D00004F0E2F9CE49096848609DED1A0B51ECE4
:1051E000100B04F0D9F9CA49096888609DED140BC9
:1051F00053EC102B9DED140B51EC100B04F0A8FD9B
:10520000CDE90E019DED160B53EC102B9DED160B09
:1052100051EC100B04F09CFDCDE90A019DED180B3B
:1052200053EC102B9DED180B51EC100B04F090FD7E
:10523000CDE908019DED0A0B53EC102B9DED080BF9
:1052400051EC100B04F0DAF9CDE90C019DED0E0BD9
:1052500053EC102B9DED0C0B51EC100B04F0CEF920
:10526000CDE910019DED100B51EC100B04F094F9F9
:1052700013902FA89DED130AFDF78AF99DED2F0AD3
:10528000B5EEC00AF1EE10FA01D13AB010BD2F9878
:1052900005F054F8CDE912019DED120B53EC102BE3
:1052A0009DED180B51EC100B04F064FACDE91801D8
:1052B0002F9805F043F8CDE912019DED120B53EC48
:1052C000102B9DED160B51EC100B04F053FACDE9A9
:1052D00016012F9805F032F8CDE912019DED120B61
:1052E00053EC102B9DED140B51EC100B04F042FA13
:1052F000CDE91401874890ED010AD0ED030A20EEB4
:10530000200AD0ED000A90ED021A00EEC10AF0EE7C
:10531000000A20EE200A8DED130A139805F00EF80E
:10532000CDE92A017B4890ED000AD0ED010A20EE7C
:10533000200AD0ED020A90ED031A00EE810AF0EE89
:10534000000A20EE200A8DED130A139804F0F6FFF0
:10535000CDE928016F4890ED010A60EE000A90ED5A
:10536000020A90ED021A40EE010AB7EE000AB0EE12
:10537000001A01EE600A8DED130A139804F0DEFFA7
:10538000CDE926019DED280B53EC102B9DED140B60
:1053900051EC100B04F0DCFCCDE912019DED260B65
:1053A00053EC102B9DED160B51EC100B04F0D0FCC0
:1053B000CDE910019DED120B53EC102B9DED100B60
:1053C00051EC100B04F0D0FECDE924019DED260B2D
:1053D00053EC102B9DED180B51EC100B04F0B8FCA6
:1053E000CDE912019DED2A0B53EC102B9DED140B12
:1053F00051EC100B04F0ACFCCDE910019DED120B4B
:1054000053EC102B9DED100B51EC100B04F0ACFE87
:10541000CDE922019DED2A0B53EC102B9DED160BCF
:1054200051EC100B04F094FCCDE912019DED280B1A
:1054300053EC102B9DED180B51EC100B04F088FC75
:10544000CDE910019DED120B53EC102B9DED100BCF
:1054500051EC100B04F088FECDE920019DED240BEA
:1054600053EC102B9FED2C0B51EC100B04F070FC47
:10547000CDE912019DED1E0B53EC102B9DED120B8F
:1054800051EC100B04F0BAF8CDE91E019DED220B92
:1054900053EC102B9FED200B51EC100B04F058FC3B
:1054A000CDE912019DED1C0B53EC102B9DED120B61
:1054B00051EC100B04F0A2F8CDE91C019DED200B7E
:1054C00053EC102B9FED140B51EC100B04F040FC2F
:1054D000CDE912019DED1A0B53EC102B9DED120B33
:1054E00051EC100B04F08AF8CDE91A010948C068A4
:1054F000059004F023FFCDE906019DED1A0B53EC56
:10550000102B0DE000000000000000408DC1793D2F
:105510005C04002078070020000000000000F03F3D
:105520009DED060B51EC100B04F012FCCDE90A01C5
:10553000FB488068019004F001FFCDE902019DED78
:105540001C0B53EC102B9DED020B51EC100B04F0D7
:10555000FFFBCDE90601F24890ED010AB1EE400AE9
:105560008DED010A019804F0E9FECDE902019DEDFF
:105570001E0B53EC102B9DED020B51EC100B04F0A5
:10558000E7FBCDE904019DED060B53EC102B9DEDDF
:10559000040B51EC100B04F0E7FDCDE908019DED83
:1055A0000A0B53EC102B9DED080B51EC100B04F083
:1055B000DBFDCDE90C019DED2C0B53EC102B9DED8B
:1055C0000C0B51EC100B04F0C3FBCDE91001D448D7
:1055D00000680D9004F0B2FECDE90E019DED100BB8
:1055E00053EC102B9DED0E0B51EC100B04F006F854
:1055F000CDE912019DED120B51EC100B03F0CCFF25
:10560000C74908600846C068059004F097FECDE9D8
:1056100006019DED1C0B53EC102B9DED060B51EC80
:10562000100B04F095FBCDE90A01BD48806801909C
:1056300004F084FECDE902019DED1A0B53EC102B12
:105640009DED020B51EC100B04F082FBCDE906013D
:10565000B3480068019004F071FECDE902019DEDB0
:105660001E0B53EC102B9DED020B51EC100B04F0B4
:105670006FFBCDE904019DED060B53EC102B9DED66
:10568000040B51EC100B03F0B9FFCDE908019DEDBF
:105690000A0B53EC102B9DED080B51EC100B04F092
:1056A00063FDCDE90C019DED2C0B53EC102B9DED12
:1056B0000C0B51EC100B04F04BFBCDE9100198489A
:1056C00040680D9004F03AFECDE90E019DED100BFF
:1056D00053EC102B9DED0E0B51EC100B03F08EFFD5
:1056E000CDE912019DED120B51EC100B03F054FFAC
:1056F0008B4948600846C068059004F01FFECDE95C
:1057000006019DED1E0B53EC102B9DED060B51EC8D
:10571000100B04F01DFBCDE90A018148406801909F
:1057200004F00CFECDE902019DED1A0B53EC102B99
:105730009DED020B51EC100B04F00AFBCDE90601C4
:1057400077480068019004F0F9FDCDE902019DED74
:105750001C0B53EC102B9DED020B51EC100B04F0C5
:10576000F7FACDE904019DED060B53EC102B9DEDEE
:10577000040B51EC100B04F0F7FCCDE908019DED92
:105780000A0B53EC102B9DED080B51EC100B03F0A2
:1057900035FFCDE90C019DED2C0B53EC102B9DED4D
:1057A0000C0B51EC100B04F0D3FACDE910015C485E
:1057B00080680D9004F0C2FDCDE90E019DED100B47
:1057C00053EC102B9DED0E0B51EC100B03F016FF5C
:1057D000CDE912019DED120B51EC100B03F0DCFE34
:1057E0004F49886008468068059004F0A7FDCDE920
:1057F00006019DED1E0B53EC102B9DED060B51EC9D
:10580000100B04F0A5FACDE90A0145484068019063
:1058100004F094FDCDE902019DED1C0B53EC102B1F
:105820009DED020B51EC100B04F092FACDE906014C
:105830003B480068019004F081FDCDE902019DED37
:105840001A0B53EC102B9DED020B51EC100B04F0D6
:105850007FFACDE904019DED060B53EC102B9DED75
:10586000040B51EC100B03F0C9FECDE908019DEDCE
:105870000A0B53EC102B9DED080B51EC100B04F0B0
:1058800073FCCDE90C019DED2C0B53EC102B9DED21
:105890000C0B51EC100B04F05BFACDE91001204821
:1058A000C0680D9004F04AFDCDE90E019DED100B8E
:1058B00053EC102B9DED0E0B51EC100B03F09EFEE4
:1058C000CDE912019DED120B51EC100B03F064FEBB
:1058D0001349C860084690ED000A20EE000AD0ED9A
:1058E000010A90ED011A00EE810AD0ED020A90ED56
:1058F000021A00EE810AD0ED030A90ED031A00EEC1
:10590000810A8DED130A2FA89DED130AFCF740FEC6
:105910009DED2F0AB5EEC00AF1EE10FA02D1B4E403
:1059200078070020544890ED000ADDED2F0A80EE44
:10593000201A80ED001A90ED010ADDED2F0A80EEAD
:10594000201A80ED011A90ED020ADDED2F0A80EE9B
:10595000201A80ED021A90ED030ADDED2F0A80EE89
:10596000201A80ED031A90ED010A60EE000A90ED16
:10597000020A90ED021A40EE010AB7EE000AB0EEFC
:10598000001A01EE600A8DED120A90ED000AD0EDCA
:10599000010A20EE200AD0ED020A90ED031A00EE73
:1059A000810AF0EE000A20EE200A8DED110ADDEDED
:1059B000120A9DED110A01F003FF8DED130A9DED12
:1059C000130A00F0C9FB2D4880ED000A2A4890ED2B
:1059D000000AD0ED020A20EE200AD0ED010A90ED77
:1059E000031A00EEC10AF0EE000A20EE200A8DED47
:1059F000120A9DED120A00F001FF8DED130A9DEDD4
:105A0000130A00F0A9FB1D4880ED010A1A4890ED29
:105A1000000A60EE000A90ED010A90ED011A40EED6
:105A2000010AB7EE000AB0EE001A11EE200A8DED61
:105A3000120AD0ED010A90ED020A20EE800AD0EDA4
:105A4000000A90ED031A00EEC10AF0EE000A20EE03
:105A5000200A8DED110ADDED120A9DED110A01F00B
:105A6000AFFE8DED130A9DED130A00F075FB0348A0
:105A700080ED020A00BF08E47807002098070020A4
:105A800010B51248007878B910480078012803D181
:105A900000200E49087002E001200C4908704820DF
:105AA00000F078F8002010BD08480078012803D1E4
:105AB00000200649087002E0012004490870FEF742
:105AC000C3FF034908600120EDE700000506002040
:105AD000F00500201CB501210520FBF7A3F80120EB
