:020000040800F2
:10000000C01800206D020008910B0008890B000841
:100010008D0B0008D3060008AF1500080000000093
:10002000000000000000000000000000D90D0008E2
:100030004507000800000000210C00081D0E000804
:10004000870200088702000887020008870200086C
:10005000870200088702000887020008870200085C
:100060008702000887020008490700088702000885
:10007000870200088702000887020008870200083C
:10008000870200088702000887020008870200082C
:10009000870200088702000887020008870200081C
:1000A000870200088702000887020008870200080C
:1000B00087020008870200088702000887020008FC
:1000C00087020008870200088702000887020008EC
:1000D00087020008611100083D12000801130008A2
:1000E00087020008870200088702000887020008CC
:1000F00087020008870200088702000887020008BC
:1001000087020008870200088702000887020008AB
:10011000870200088702000887020008870200089B
:10012000870200088702000887020008870200088B
:10013000870200088702000887020008870200087B
:10014000870200088702000887020008870200086B
:10015000870200088702000887020008870200085B
:10016000870200088702000887020008870200084B
:10017000870200088702000887020008870200083B
:10018000870200088702000800F002F800F05EF81D
:100190000AA090E8000C82448344AAF10107DA45E2
:1001A00001D100F053F8AFF2090EBAE80F0013F0D6
:1001B000010F18BFFB1A43F0010318472CBC0000C5
:1001C0004CBC00000A444FF0000C10F8013B13F047
:1001D000070408BF10F8014B1D1108BF10F8015BA0
:1001E000641E05D010F8016B641E01F8016BF9D193
:1001F00013F0080F1EBF10F8014BAD1C0C1B09D1EA
:100200006D1E58BF01F801CBFAD505E014F8016B5B
:1002100001F8016B6D1EF9D59142D6D370470000ED
:100220000023002400250026103A28BF78C1FBD8FF
:10023000520728BF30C148BF0B6070471FB50AF096
:10024000A4FF00F0B3F81FBD10B510BD00F04AF9CF
:100250001146FFF7F3FF09F0A1FF00F068F903B4BE
:10026000FFF7F2FF03BC00F069F90000094880477E
:1002700009480047FEE7FEE7FEE7FEE7FEE7FEE788
:10028000FEE7FEE7FEE7FEE704480549054A064BA0
:1002900070470000350E000889010008C0120020D8
:1002A000C0180020C0140020C014002010B54C104D
:1002B00084EA530404D54042C1F1000138BF491E0D
:1002C0001B4204D55242C3F1000338BF5B1E00F04D
:1002D0007FF814F0804F04D04042C1F1000138BFD4
:1002E000491E14F0004F04D05242C3F1000338BF3E
:1002F0005B1E10BD10B5203AC0F00B80B1E818505D
:10030000203AA0E81850B1E81850A0E81850BFF4FF
:10031000F5AF5FEA027C24BFB1E81850A0E818509E
:1003200044BF18C918C0BDE810405FEA827C24BFF2
:1003300051F8043B40F8043B08BF7047D20728BF80
:1003400031F8023B48BF11F8012B28BF20F8023BCF
:1003500048BF00F8012B70474FF0000200B513466C
:1003600094469646203922BFA0E80C50A0E80C50D5
:10037000B1F12001BFF4F7AF090728BFA0E80C5086
:1003800048BF0CC05DF804EB890028BF40F8042B7F
:1003900008BF704748BF20F8022B11F0804F18BFEC
:1003A00000F8012B704770477047704770B5064CD6
:1003B0007C44064D7D4403E0206820448047241D92
:1003C000AC42F9D170BD000054BA000074BA00000C
:1003D00053EA020C00F069802DE9F04B4FF0000663
:1003E000002B1FBFB3FA83F503FA05F424FA05F6D0
:1003F0005E4012BF1643B2FA82F502FA05F4C5F167
:1004000020051EBF22FA05FC44EA0C04203556EAFA
:10041000044C4FEA144418BF641C4FF000084FF01E
:100420000009904271EB030C39D3002919BFB1FACE
:1004300081F701FA07F6B0FA80F700FA07F6C7F17C
:1004400020071EBF20FA07FC46EA0C062037B6FB41
:10045000F4FCA7EB0507103F07F01F0BCBF12006BC
:100460000CFA0BFB2CFA06F644BFB3460026202FED
:10047000A4BF5E464FF0000B5BEA060C08BF4FF0CE
:10048000010B19EB0B09ABFB027C48EB0608C01B08
:1004900006FB02CC0BFB03CC71EB0C01C1E70B4656
:1004A000024641464846BDE8F08B13B54FF00000C8
:1004B0004FF00001AFF30080BDE81C40704710B55D
:1004C00000F008F8006810BD10B5044600F002F80E
:1004D000046010BD004870475C120020004870475F
:1004E0005C1200207546FFF7F9FFAE46050069462D
:1004F000534620F00700854618B020B5FFF7C4FE2C
:10050000BDE820404FF000064FF000074FF0000814
:100510004FF0000B21F00701AC46ACE8C009ACE895
:10052000C009ACE8C009ACE8C0098D467047044674
:10053000AFF300802046FFF792FE0000014918202B
:10054000ABBEFEE726000200704721B1826842F090
:100550000102826003E0826822F00102826070473B
:100560000021084A1168084A1140D0E900231A43C3
:1005700083681A43C3681A431143044AC2F8041338
:100580007047000004230140E030FCFF00200140E0
:1005900021B1826842F48072826003E0826822F4B2
:1005A00080728260704721B1826842F4007282607A
:1005B00003E0826822F400728260704730B5024620
:1005C000002000235068104C20400D790C6844EA4C
:1005D00005242043506090680C4C2040D1E903541E
:1005E0002C438D682C434D7944EA450420439060A8
:1005F000D06A20F470000C7D641EE4B2234340EA0C
:100600000350D06230BD0000FFFEFFFCFDF7FFC0CD
:10061000F0B504460D4600200021092D11DDE068EB
:10062000A5F10A0606EB4607072606FA07F18843F6
:10063000A5F10A0606EB460603FA06F10843E06058
:100640000CE0206905EB4507072606FA07F1884309
:1006500005EB450603FA06F108432061072A0FDA85
:10066000606B561E06EB86071F2606FA07F18843C5
:10067000561E06EB860605FA06F10843606322E083
:100680000D2A0FDA206BD61F06EB86071F2606FA07
:1006900007F18843D61F06EB860605FA06F10843E4
:1006A000206310E0E06AA2F10D0606EB86071F2624
:1006B00006FA07F18843A2F10D0606EB860605FA55
:1006C00006F10843E062F0BD816841F0804181603D
:1006D000704700BFFEE721B1026842F001020260EC
:1006E00003E0026822F001020260704710B50022A8
:1006F0000268134B1A40CC680B6823434C692343B0
:100700008C692343CC6923430C6A23434C6A2343FB
:100710008C6A23434C6B23438C6B23431A43026044
:10072000426922F00702D1E90B3423431A434261A4
:100730000B6943604B6883608B68C36010BD000029
:100740003F801CF07047000010B588B0102000F00A
:100750008DF8002871D03B48007802283AD120203B
:1007600039490880072004F0C5FD044621462720AA
:1007700005F032F904F0400038B3202269466120C8
:1007800004F09AFDFF21E22005F026F92F480078B9
:1007900001280ED1002007E01DF800202C4909682F
:1007A00020310A54411CC8B22028F5DB002027491B
:1007B00008702848007838B920222749A82005F079
:1007C000EDF801202349087000BF20201E49891E32
:1007D000088032E020201C490880202269466120E0
:1007E00004F06AFDFF21E22005F0F6F817480078D2
:1007F00001280ED1002007E01DF8002014490968E7
:1008000020310A54411CC8B22028F5DB00200F49D2
:100810000870072004F06EFD04462146272005F0ED
:10082000DBF8FF21E12005F0D7F801200B49087023
:1008300020200549891E088000BF102000F010F814
:1008400008B010BD5A0500201A0802405D050020BE
:10085000600500205B050020B20900205C05002037
:100860000149086070470000143C01400146002027
:10087000034A12680A400AB1012000E000207047D4
:10088000143C0140002123498279002A3AD00A46CB
:10089000126803689A430B461A600A1D12680368BF
:1008A0009A430B1D1A60027911440A6803681A43BF
:1008B0000A60184A0832126803689A43154B0833D5
:1008C0001A601A1D126803689A43124B0C331A609F
:1008D0004279102A0ED11A1F126803681A430D4B71
:1008E00008331A601A1D126803681A43094B0C3347
:1008F0001A600DE00749427911440A6803681A43F7
:100900000A6005E0027911440A6803689A430A60A4
:1009100070470000003C014001490860704700003A
:100920000C3C024070B504460A460026092502B96F
:1009300009E0012A01D1160205E0022A01D11602BE
:1009400001E04FF4407600F09FF80546092D28D1CC
:100950001548006820F44070134908600846006894
:10096000304308600846006820F0F8000860084638
:10097000006844F0020108430B490860084600681B
:1009800040F48030086000F07FF8054606480068B3
:1009900020F00200044908600846006820F0F800D2
:1009A0000860284670BD0000103C02400920134931
:1009B000096801F48031B1F5803F01D101201CE0CC
:1009C0000E49096801F0100109B1062015E00B4934
:1009D000096801F4807109B102200EE00749096835
:1009E00001F0E00109B1072007E00449096801F0BE
:1009F000020109B1082000E0092070470C3C0240C8
:100A00000348006840F0004001490860704700005A
:100A1000103C024030B502460C46092500F034F87F
:100A20000546092D19D10E48006820F440700C4984
:100A300008600846006840F40070086008460068D6
:100A400040F001000860146000F01EF805460448FC
:100A5000006820F0010002490860284630BD00000F
:100A6000103C02400548006800F0004028B10448EE
:100A700002490C390860034808607047103C024086
:100A800023016745AB89EFCD08B509200090FFF73A
:100A90008DFF009002E0FFF789FF00909DF80000B5
:100AA0000128F8D09DF8000008BDF0B50A460021E5
:100AB0000023002400BF3DE0012505FA01F315687D
:100AC00005EA03049C4234D105684F000326BE406A
:100AD000B543056015794E00B5400668354305609D
:100AE0001579012D02D01579022D16D185684F0098
:100AF0000326BE40B543856055794E00B5408668F3
:100B000035438560456801268E40B543456045689C
:100B100096798E40B6B235434560C5684F000326CE
:100B2000BE40B543C560D5794E00B540C668354373
:100B3000C560491C1029BFD3F0BDF0B500230024C7
:100B40004D07ED0E02FA05F3CE1000F1200555F821
:100B500026504E07F70E0F26BE40B543CF1000F1CA
:100B6000200646F82750CE1000F1200555F82650F3
:100B700045EA0304CE1000F1200545F82640F0BDFB
:100B8000418370470183704700BFFEE700BFFEE767
:100B90007047000070B5002100230F22C4781CB3F9
:100BA000174C246804F4E064C4F5E064C4F307213E
:100BB000C1F10404E3B20A4144789C40E1B2847874
:100BC000144021430C07210E0E4C05786155047822
:100BD00004F01F050124AC4005786D11AD0005F14E
:100BE000E025C5F8004109E0047804F01F05012460
:100BF000AC40054D0678761145F8264070BD0000E2
:100C00000CED00E000E400E080E100E00249014377
:100C1000024A1160704700000000FA050CED00E088
:100C20007047000029B1064A12680243044B1A605B
:100C300004E0034A12688243014B1A6070470000C7
:100C40003038024029B1064A12680243044B1A6048
:100C500004E0034A12688243014B1A6070470000A7
:100C60004038024029B1064A12680243044B1A6018
:100C700004E0034A12688243014B1A607047000087
:100C800044380240F0B5002100220024022500264D
:100C90000223324F3F6807F00C0121B1042905D02F
:100CA000082937D105E02E4F076036E02C4F07604A
:100CB00033E02A4F3F1F3F68C7F38056274F3F1F3F
:100CC0003F6807F03F036EB1254FB7FBF3F7DFF83E
:100CD0008CC0ACF1040CDCF800C0CCF3881C07FB22
:100CE0000CF40CE01E4FB7FBF3F7DFF870C0ACF16B
:100CF000040CDCF800C0CCF3881C07FB0CF4174F85
:100D00003F1F3F68C7F301477F1C7D00B4FBF5F729
:100D1000076002E0124F076000BF00BF0F4F3F683F
:100D200007F0F00109090F4F7A5C0768D740476068
:100D30000A4F3F6807F4E051890A0A4F7A5C476816
:100D4000D7408760054F3F6807F46041490B054F66
:100D50007A5C4768D740C760F0BD000008380240A1
:100D60000024F4004406002021B1028842F0400231
:100D7000028004E002884FF6BF731A400280704779
:100D80000246002013890B400BB1012000E0002037
:100D900070470146888970478181704710B50022ED
:100DA000028802F441520B884C8823438C882343E9
:100DB000CC8823430C8923434C8923438C892343C8
:100DC000CC8923431A430280838B4FF2FF74234064
:100DD00083830B8A038210BD7047000030B5002268
:100DE0008B071C0F0F2303FA04F20B4B8C1053F8E4
:100DF00024309343084C8D1044F8253023468C1042
:100E000053F824308C07240F00FA04F42343024CD7
:100E10008D1044F8253030BD08380140044803687F
:100E200040685A1C40F1000001490A604860704760
:100E3000C004002010B51548006840F47000134944
:100E400008601348006840F0010011490860002064
:100E50000F49083108600E4800680E4908400C49E7
:100E600008600D48091D0860081F006820F48020F4
:100E7000091F0860002006490C31086001F058F98C
:100E80004FF0006001498039086010BD88ED00E036
:100E900000380240FFFFF6FE1030002421B1028826
:100EA00042F08002028004E002884FF67F731A400D
:100EB0000280704721B1028842F00102028004E002
:100EC00002884FF6FE731A400280704770B5002406
:100ED00000220023058C4FF6FE7635400584028CF7
:100EE0008388048B4FF68F752C40B51E2C400D88DF
:100EF0002C43751E2A408D892A434D882A43104D64
:100F0000A84202D00F4DA84213D14FF6F7752A40E0
:100F1000CD892A434FF6FB752A408D882A434FF628
:100F2000FF652B404FF6FF552B400D8A2B434D8A12
:100F30002B43838004838D684563028470BD000069
:100F400000000140000401400A460021018B4FF6D9
:100F5000F7731940114301837047000070B50024F6
:100F600000220023058C4FF6EF7635400584028C75
:100F70008388048B48F6FF752C404FF6FF452C40C4
:100F80000D884FF6FF7606EA05252C434FF6DF75F0
:100F90002A408D8906EA05152A434D8806EA05157B
:100FA0002A43154DA84202D0144DA8421DD14FF638
:100FB0007F752A40CD894FF6FF7606EA05152A434C
:100FC0004FF6BF752A408D8806EA05152A434FF66D
:100FD000FF352B404FF2FF752B400D8A06EA850541
:100FE0002B434D8A06EA85052B43838004838D6855
:100FF0008563028470BD00000000014000040140D0
:101000000A460021018B4FF2FF7319404FF6FF7320
:1010100003EA0223194301837047000070B50024DE
:1010200000220023058C4FF6FF6635400584028CB4
:101030008388848B4FF68F752C404FF6FC752C40BF
:101040000D882C434FF6FF552A408D894FF6FF76C9
:1010500006EA05252A434D8806EA05252A43154D4B
:10106000A84202D0144DA8421DD14FF2FF752A406C
:10107000CD894FF6FF7606EA05252A434FF6FF3560
:101080002A408D8806EA05252A434EF6FF752B4037
:101090004DF6FF752B400D8A06EA05152B434D8A48
:1010A00006EA05152B43838084838D68C56302841B
:1010B00070BD000000000140000401400A4600210C
:1010C000818B4FF6F7731940114381837047416359
:1010D000704781637047C163704700000022028837
:1010E000184B98420ED0184B98420BD0B0F1804F5D
:1010F00008D0164B984205D0154B984202D0154B9C
:10110000984204D14FF68F731A404B881A43124B02
:10111000984207D0114B984204D04FF6FF431A4033
:101120000B891A4302804B68C3620B880385054B09
:10113000984202D0044B984201D18B7A0386012356
:101140008382704700000140000401400004004019
:1011500000080040000C0040001000400014004057
:1011600010B540F227712C4800F05FF9012803D137
:101170000021294800F017FA40F22551264800F0D6
:1011800054F9012847D1244800F008FAC4B2234991
:101190004868804722490968401A022810D900206F
:1011A0002049088001202049087020480078012843
:1011B00003D100201D49087002E001201B4908707E
:1011C0001A48007801280BD1164801880088401C75
:1011D000144A1080164844541648174908600AE01B
:1011E000104801880088401C0E4A10801148445461
:1011F0000F48114908600B480088B0F5007F04D102
:1012000008480088401E074908800449486880470C
:101210000349086000BF10BD00100140C804002051
:10122000AC050020B005002098050020B205002084
:10123000040A0020040C00209C05002010B50821A1
:10124000274800F0E5F810B1254800F0A7F9202163
:10125000234800F0DDF8012840D1214800F09EF934
:10126000C4B22049486880471F490968401A0228CB
:1012700010D900201D4908701D480078012803D1AD
:1012800000201B49087002E0012019490870012064
:101290001849087016480078012808D113480178C9
:1012A0000078401C114A10701348445407E00F485E
:1012B00001780078401C0D4A1070104844540949C8
:1012C000486880470849086008480078192804D110
:1012D00006480078401E0549087000BF10BD000098
:1012E00000440040C8040020480500204C050020B0
:1012F0002D0500202C0500201009002029090020C0
:1013000070B50821334800F083F810B1314800F07F
:1013100045F940F227712F4800F087F801281AD1CB
:101320002D4802780078401C2B4B18702B48815CAC
:10133000284800F038F92848007840280BD10120CF
:1013400027490870002024490870002240F22771C4
:10135000204800F094F840F225511E4800F065F84E
:10136000012835D11B4800F019F9C5B21D4948685C
:10137000804704461C480068201A022814D900201F
:101380001A4908701A48007801280DD10020184920
:10139000087000BF06E017490A5C104940310A5442
:1013A000411CC8B24028F6DB0F4804600F480178A2
:1013B0000078401C0D4A10700E48455410460078C5
:1013C000402804D110460078401E1146087000BF26
:1013D00070BD000000480040F8050020480F0020C4
:1013E000D8050020C8040020F4050020F9050020DD
:1013F000D9050020080F002021B1828942F4005253
:10140000828104E082894DF6FF731A408281704721
:1014100002460020B1F5007F00D100BF13880B40C9
:101420000BB1012000E00020704770B50246002497
:1014300000230025002040F66A16B14200D100BF0B
:10144000C1F3421501F01F03012606FA03F3012D33
:1014500002D19689334006E0022D02D1168A33402C
:1014600001E0968A33400C12012606FA04F416882D
:10147000344013B10CB1012000E0002070BDF0B584
:101480000346002400260025002040F66A17B942D2
:1014900000D100BF1846C1F3421401F01F06012716
:1014A00007FA06F5012C01D10C3004E0022C01D121
:1014B000103000E014301AB107682F43076002E0D3
:1014C0000768AF430760F0BD2DE9FF4705460E46AC
:1014D0000024A14600BFA046B08900B100BF2C8AFD
:1014E00024F44054F08804432C82AC8941F20C600F
:1014F0008443B08831890843718908430443AC812F
:10150000AC8A24F44074B0890443AC826846FFF787
:10151000B9FB2048854202D01F48854202D1DDF840
:101520000C9001E0DDF80890A88900F4004040B17B
:1015300009EBC90000EB091031684900B0FBF1F775
:1015400007E009EBC90000EB091031688900B0FB26
:10155000F1F76420B7FBF0F004012009642101FBDE
:101560001078A88900F4004040B1322000EBC80098
:10157000B0FBF1F000F00700044308E0322000EB7C
:1015800008106421B0FBF1F000F00F0004432C813F
:10159000BDE8FF8700100140001401400146888823
:1015A000C0F308007047C1F308028280704700BF93
:1015B000FEE7000010B52DED028B9FED680AB0EE3E
:1015C000408A6748008800EE100AB8EE400ADFED56
:1015D000650A80EE201AB0EE040A21EE000AF1EE50
:1015E000000A20EE200A604880ED010A5C4840882D
:1015F00000EE100AB8EE400ADFED5A0A80EE201A1B
:10160000B0EE040A21EE000AF0EE080A20EE200AED
:10161000554880ED040A5248808800EE100AB8EE62
:10162000400ADFED500A80EE201AB0EE040A21EEE7
:10163000000AF0EE080A20EE200A4B4880ED030A6B
:101640004748C08800EE100AB8EE400ADFED450AB0
:1016500080EE201AB0EE040A21EE000AF0EE080A2D
:1016600020EE200A404880ED020A3D48008900EE45
:10167000100AF8EE400A9FED3B1A80EE810AF0EE68
:10168000040A20EE200AF0EE080A20EE200A36486E
:1016900080ED050A35480078032190FBF1F201FB4B
:1016A000120020B1012818D0022842D12BE0304886
:1016B000416800208847B0EE408ABFEE000AB4EED1
:1016C000408AF1EE10FA07D0274880ED068A2748B5
:1016D0000078401C254908702CE02548416801200D
:1016E0008847B0EE408ABFEE000AB4EE408AF1EEC1
:1016F00010FA07D01C4880ED078A1C480078401C6F
:101700001A49087016E01A48416802208847B0EE6E
:10171000408ABFEE000AB4EE408AF1EE10FA07D01C
:10172000114880ED008A11480078401C0F4908706C
:1017300000E000BF00BF0F48006900F40040B0F5B2
:10174000004F04D10120084981F8200003E0002067
:10175000054981F82000BDEC028B10BD000000009F
:10176000D409002000F07F45E00900208405002016
:101770008C0500200010024010B54FF48071024823
:10178000FFF7FEF910BD0000000C0240034800788E
:10179000012802D1002001490870704798050020F7
:1017A00010B504460749086980470749C86880475B
:1017B00006488168204688470448C1682046884713
:1017C00010BD000030050020B4050020F803002003
:1017D00010B504460749C8688047074988688047AC
:1017E0000648C16820468847054841682046884722
:1017F00010BD0000100500205C0400201004002033
:10180000F803002010B540F2B6310E48FFF75FFC38
:1018100040F2B6310B48FFF75CFC40F2B6310948A4
:10182000FFF759FC40F2B6310748FFF750FC40F291
:10183000B6310548FFF74DFC40F2B6310248FFF7DC
:101840004AFC10BD000400400008004000B58BB009
:1018500001210220FFF7F6F901210420FFF7E2F948
:101860004FF4E070099002208DF8280003208DF8D5
:10187000290000208DF82A0001208DF82B0009A9ED
:101880006E48FFF712F9022206216C48FFF755F95E
:10189000022207216948FFF750F902220821674810
:1018A000FFF74BF94FF4FA6007906548006840086D
:1018B00000EE100AB8EE400A9FED621AC0EE010A6F
:1018C0009FED610A80EE801ABCEEC10A10EE100A8C
:1018D000401E80B2ADF818000020ADF82000ADF831
:1018E0001A0006A95948FFF7F9FB6020ADF804007B
:1018F0000120ADF806004FF4617003900020ADF8B0
:10190000100001A95148FFF7E1FA08214F48FFF7FD
:101910001BFB01A94D48FFF721FB08214B48FFF7AE
:101920006FFB01A94948FFF779FB08214748FFF7FA
:10193000C5FB01214548FFF7B1FA01214348FFF7F4
:10194000B9FA01210420FFF77DF901210820FFF7F2
:1019500069F94FF4E040099002208DF82800032037
:101960008DF8290000208DF82A0001208DF82B0029
:1019700009A93748FFF799F802220C213448FFF7EC
:10198000DCF802220D213248FFF7D7F802220E219F
:101990002F48FFF7D2F84FF4FA6007902848006804
:1019A000400800EE100AF8EE400A9FED261A80EE7D
:1019B000810ADFED250A80EE201ABCEEC10A10EE86
:1019C000100A401E80B2ADF818000020ADF82000CB
:1019D000ADF81A0006A91F48FFF780FB6020ADF89C
:1019E00004000120ADF806004FF461700390002060
:1019F000ADF8100001A91748FFF768FA082115484B
:101A0000FFF7A2FA01A91348FFF7A8FA0821114825
:101A1000FFF7F6FA01A90F48FFF700FB08210D4870
:101A2000FFF74CFB01210B48FFF738FA0121094869
:101A3000FFF740FA00F010F80BB000BD00080240BC
:101A4000300600200000FA430000FA440004004081
:101A5000000C02400008004010B54FF461701249BC
:101A6000086048608860C8600861486101460F48A6
:101A7000FFF72DFB4FF461710C48FFF72AFB4FF481
:101A800061710A48FFF727FB4FF461710848FFF7BF
:101A90001EFB4FF461710648FFF71BFB4FF46171A9
:101AA0000348FFF718FB10BDF407002000040040B6
:101AB00000080040F0B52DED088B99B006463021A6
:101AC0006846FEF749FC00BF7549886880470446B0
:101AD0000D46002003E0315C0DF80010401C30285A
:101AE000F9DB302269460CA8FEF704FC9DED0E1BC5
:101AF000B0EE410AF0EE610A6A4806F033F88DED67
:101B00000E0B9DED101BB0EE410AF0EE610A664827
:101B100006F028F88DED100B9DED121BB0EE410A7A
:101B2000F0EE610A614806F01DF88DED120B9DED97
:101B3000141BB0EE410AF0EE610A5D4806F012F89F
:101B40008DED140B9DED161BB0EE410AF0EE610A0F
:101B5000584806F007F88DED160B574903C9221AAD
:101B600065EB0101104608F0F7FE41EC1A0B5348F3
:101B700090ED042BB0EE420AF0EE620A9DED102BC0
:101B8000B0EE421AF0EE621A53EC102B51EC110B2E
:101B900009F070F953EC1A2B08F0A0FC9FED480BEC
:101BA00053EC102B08F05AFF08F0AAFB46490860D6
:101BB0004148D0E90010621A65EB0001104608F0B8
:101BC000CBFE41EC1A0B3D4890ED022BB0EE420AE1
:101BD000F0EE620A9DED0E2BB0EE421AF0EE621AA4
:101BE00053EC102B51EC110B09F044F953EC1A2B68
:101BF00008F074FC9FED320B53EC102B08F02EFF15
:101C000008F07EFB304948602B48D0E90010621A8A
:101C100065EB0001104608F09FFE41EC1A0B2748C7
:101C200090ED062BB0EE420AF0EE620A9DED122B0B
:101C3000B0EE421AF0EE621A53EC102B51EC110B7D
:101C400009F018F953EC1A2B08F048FC9FED1C0B17
:101C500053EC102B08F002FF08F052FB1A49886081
:101C60009DF83000154908709DED0E0B084680ED7B
:101C7000020B9DED100B80ED040B9DED120B80ED22
:101C8000060B9DED140B80ED080B9DED160B80ED02
:101C90000A0B094830C0012019B0BDEC088BF0BD1B
:101CA000C804002090100020E01000203011002017
:101CB00080110020D01100202806002020120020D2
:101CC0000000000080842E4150120020002100EE10
:101CD000901A0549415800EE901AB8EEE01ADFED6F
:101CE000031A81EE210A704700000E080000C84266
:101CF00038B50020009001249248016900208847EF
:101D000000B938BDAA238F48006840302146621CC4
:101D1000D4B243548B48006840302146621CD4B290
:101D2000435403238748006840302146621CD4B2E4
:101D3000435400238348006840302146621CD4B2DB
:101D4000435481488068808B00909DF801307D4825
:101D5000006840302146621CD4B243549DF80030E4
:101D60007848006840302146621CD4B2435476481B
:101D70008068008B00909DF8013072480068403008
:101D80002146621CD4B243549DF800306D4800686F
:101D900040302146621CD4B243546B488068C08BEB
:101DA00000909DF801306748006840302146621C71
:101DB000D4B243549DF80030624800684030214658
:101DC000621CD4B2435460488068408B00909DF8F8
:101DD00001305C48006840302146621CD4B2435454
:101DE0009DF800305748006840302146621CD4B24C
:101DF000435455488068008C00909DF8013051484C
:101E0000006840302146621CD4B243549DF8003033
:101E10004C48006840302146621CD4B243544A48C2
:101E20008068408C00909DF8013046480068403042
:101E30002246611CCCB283549DF8003041480068B2
:101E400040302146621CD4B243543F488068808CA5
:101E500000909DF801303B48006840302146621CEC
:101E6000D4B243549DF800303648006840302146D3
:101E7000621CD4B2435434488068C08C00909DF8F2
:101E800001303048006840302146621CD4B24354CF
:101E90009DF800302B48006840302146621CD4B2C7
:101EA000435429488068008D00909DF801302548F2
:101EB000006840302146621CD4B243549DF8003083
:101EC0002048006840302146621CD4B243541E486A
:101ED0008068808D00909DF801301A48006840307D
:101EE0002146621CD4B243549DF800301548006866
:101EF00040302146621CD4B24354601FC1B2114825
:101F0000006880F844100025012007E00D490968A9
:101F10004031095C2944CDB2411CC8B2A042F5DB76
:101F20000848006840302146621CD4B24554601E07
:101F30000449096881F8400002498868804700BF69
:101F4000DFE60000600500203005002010B50446E3
:101F500016484078012803D01448C078012804D1DD
:101F600013484168642088471AE010480078012827
:101F700000D100E000200F49097809B9012100E0F3
:101F80000021084048B10A484168002088470A48B3
:101F9000C1684FF47A70884702E005498868804735
:101FA000024800780349087010BD00009804002022
:101FB000C8050020AC040020C804002001490868BE
:101FC00049687047C00400202DE9F04724480468A0
:101FD00045684FF0E0208669002721480168426883
:101FE00084EA010085EA020108431CD11D48002350
:101FF000026830463946FEF759F94FF47A734FF0CC
:10200000000CA4FB032805FB038304FB0C3C1346D4
:10201000181A6CEB01014FF47A7C10EB0C0041F1C3
:102020000001BDE8F0874FF0E02080690D490968A4
:10203000B0FBF1F000220A4B19685B684FF47A7824
:10204000A1FB089A03FB08A301FB02311346B9EB7D
:10205000000261EB030112EB080041F10001E0E72F
:10206000C0040020B00400201CB501210820FEF7A8
:10207000D9FD01208DF8040000208DF806008DF8B0
:1020800005008DF807004FF4807000906946044801
:10209000FEF70BFD4FF480710148FEF771FD1CBD8A
:1020A000000C024010B500F03FFC0449096801F142
:1020B000400003F0A5FC012010BD0000DC0500205D
:1020C00070B505460E46134948688047044605F03A
:1020D000010060B110480068844208D90F48406987
:1020E00080F001000D494861A0190B49086005F016
:1020F000020002280CD10A480068844208D9074827
:10210000406980F0020005494861A019044908604F
:1021100070BD0000C8040020F4040020001002403C
:10212000F8040020704700B500F070FB00BD00000F
:102130000CB50020019000903448006840F48030D5
:102140003249086000BF3148006800F40030009058
:102150000198401C0190009818B90198B0F5A04F63
:10216000F1D12A48006800F4003010B1012000903D
:1021700001E0002000900098012846D1234840301B
:10218000006840F0805021494031086020480068D4
:1021900040F440401E4908601C48083000681B4954
:1021A000083108600846006840F4004008600846AE
:1021B000006840F4A05008601648091F0860081F16
:1021C000006840F08070091F086000BF0F48006879
:1021D00000F000700028F9D040F205700E49086048
:1021E0000A480830006820F00300084908310860F8
:1021F0000846006840F00200086000BF034808304D
:10220000006800F00C000828F8D10CBD003802402E
:102210000070004010544007003C024000B50246E8
:10222000FFF7CCFE034600BFFFF7C8FE99188842AF
:10223000FAD300BD70B50446FFF7C6FE054600BFE1
:10224000FFF7C2FE2A19801A71F10001F8DB70BD98
:1022500010B50124FEF706FCF320FEF75DFB02211A
:102260005820FEF75FFB3B4890ED0C0ADFED3A0A81
:1022700020EE200ABDEEC00A10EE101A3748FEF715
:10228000C9FB092800D00024324890ED0D0ADFED8B
:10229000320A20EE200ABDEEC00A10EE101A2F48B6
:1022A000001DFEF7B7FB092800D00024294890ED57
:1022B0000E0ADFED290A20EE200ABDEEC00A10EE5C
:1022C000101A26480830FEF7A5FB092800D0002484
:1022D000204890ED0F0ADFED200A20EE200ABDEE27
:1022E000C00A10EE101A1D480C30FEF793FB0928A7
:1022F00000D00024174890ED100ADFED170A20EEF9
:10230000200ABDEEC00A10EE101A14481030FEF775
:1023100081FB092800D000240E4890ED110ADFED62
:102320000E0A20EE200ABDEEC00A10EE101A0B486D
:102330001430FEF76FFB092800D000246421074801
:102340001830FEF767FB092800D00024FEF758FB81
:10235000204610BDB00800200000C84200000E0852
:1023600000B58FB001218805FEF75CFC05200490C4
:102370000020009003900B901048029000200D90D8
:102380004FF400500890C0100690801009900C483F
:10239000019000200E904FF40060079000200590FF
:1023A0004FF400300A9069460648FEF79FF9012174
:1023B0000448FEF790F90FB000BD0000D4090020DA
:1023C0004C2001401064024010B503F0A1F802F067
:1023D00029FD1C48407820F0800080301949487061
:1023E0000846407820F07000403048700846407839
:1023F00020F00E00001D48700846407820F00100D3
:1024000048700846007820F0E000803008700846E8
:10241000007820F0100008700846007820F00800CE
:1024200008700846007820F00600801C08700846F6
:10243000007820F00100401C0870088801F08EF838
:1024400010BD00008805002010B50D4805F042FEC3
:102450007C2300223C210A4805F0F6FD20230122BE
:102460003C21074805F0F0FD802302223C2104486E
:1024700005F0EAFD0348C1680A20884710BD000046
:10248000100E0020C804002010B51C4805F022FEE4
:102490001B48C1683220884780236B22D02117480F
:1024A00005F0D2FD1648C16805208847002319228F
:1024B000D021124805F0C8FD00236B22D0210F481F
:1024C00005F0C2FD00233722D0210C4805F0BCFDE9
:1024D00006231A22D021094805F0B6FD18231B2235
:1024E000D021064805F0B0FD10231C22D02103485E
:1024F00005F0AAFD03F06EF910BD000010080020E1
:10250000C804002010B54FF48050064908801E20F2
:1025100000F0C0FB4FF480500249891E0880012062
:1025200010BD00001A04024010B52DED048B86B0DA
:102530000446012C7DD1AB49086808F092F941ECC2
:10254000190BA9499FEDA92B9FEDAA1BB0EE490AD3
:10255000F0EE690A08688047B0EE408AF0EE608AC3
:1025600051EC180B08F04EF900909E49486808F0AD
:1025700078F941EC190B9C499FED9C2B9FED9D1B1D
:10258000B0EE490AF0EE690A08688047B0EE408A6A
:10259000F0EE608A51EC180B08F034F90190914983
:1025A000886808F05EF941EC190B8F499FED8F2B7D
:1025B0009FED901BB0EE490AF0EE690A086880476B
:1025C000B0EE408AF0EE608A51EC180B08F01AF970
:1025D00002908449C86808F044F941EC190B82491B
:1025E0009FED822B9FED831BB0EE490AF0EE690A46
:1025F00008688047B0EE408AF0EE608A51EC180B14
:1026000008F000F903907749086908F02AF941ECCD
:10261000190B75499FED752B9FED761BB0EE490A9E
:10262000F0EE690A08688047B0EE408AF0EE608AF2
:1026300000E01FE051EC180B08F0E4F80490694941
:10264000486908F00EF941EC190B67499FED672BBB
:102650009FED681BB0EE490AF0EE690A08688047F2
:10266000B0EE408AF0EE608A51EC180B08F0CAF820
:1026700005909BE05B49086808F0F3F841EC190B02
:1026800059499FED5E2B9FED5B1BB0EE490AF0EEC2
:10269000690A08688047B0EE408AF0EE608A51EC23
:1026A000180B08F0AFF800904E49486808F0D9F8C8
:1026B00041EC190B4C499FED512B9FED4E1BB0EE99
:1026C000490AF0EE690A08688047B0EE408AF0EEE9
:1026D000608A51EC180B08F095F801904149886820
:1026E00008F0BFF841EC190B3F499FED442B9FEDDB
:1026F000411BB0EE490AF0EE690A08688047B0EE67
:10270000408AF0EE608A51EC180B08F07BF80290DA
:102710003449C86808F0A5F841EC190B32499FED1F
:10272000372B9FED341BB0EE490AF0EE690A0868BA
:102730008047B0EE408AF0EE608A51EC180B08F04A
:1027400061F803902749086908F08BF841EC190BF0
:1027500025499FED2A2B9FED271BB0EE490AF0EE8D
:10276000690A08688047B0EE408AF0EE608A51EC52
:10277000180B08F047F804901A49486908F071F8F6
:1027800041EC190B18499FED1D2B9FED1A1BB0EE64
:10279000490AF0EE690A08688047B0EE408AF0EE18
:1027A000608A51EC180B08F02DF805901548009937
:1027B000FEF78DFC13480199FEF78BFC1148029936
:1027C000FEF789FC10480399FEF781FC0E48049936
:1027D000FEF77FFC0C480599FEF77DFC06B0BDECCA
:1027E000048B10BDF40700208804002000000000C6
:1027F00000B08D400000000000B09D4000000000CF
:1028000000208C40000400400008004070B587B0F4
:1028100034480078012863D13348007801280AD170
:10282000002005E03149095C0DF80010411CC8B2D8
:102830001928F7DB09E0002005E02D49095C0DF8B7
:102840000010411CC8B21928F7DB00202549087088
:1028500000BF3AE00024002316E000EB4002254DC3
:1028600005EB820202EB83018A785AB10D786D1C68
:102870001DF805204D78EA408D782A40CD78AA4091
:10288000144300BF591CCBB2032BE6DBB4F5AF7F7A
:1028900014D9A4F5AF7100EE101AF8EE400A9FEDBE
:1028A000161A9FED160A00EE810ABCEEC00A10EE61
:1028B000101A8AB2124921F8102004E04FF4617214
:1028C0000F4921F81020411CC8B20C28C2DB9DF82A
:1028D00018009DF8171040EA01200A49088000BF3F
:1028E00007B070BD2C0500202D050020290900200F
:1028F0001009002052B300082FA13D3F00006144A1
:102900005A09002030050020014640F2B6308142CD
:1029100001DA0020704740F23A70814201DD022066
:10292000F8E70120F6E7000010B5124801780078BA
:10293000401C104A1070052091FBF0F200FB1210B1
:10294000052813D2DFE800F00306090C0F0000F0A1
:10295000FDFB0CE001F0BCFF09E0FFF7C9F906E060
:1029600000F0EEFC03E002F0D9FC00E000BF00BF85
:1029700010BD00001400002002490979024A1170BC
:1029800070470000100400209804002010B5044691
:10299000204604F05DFC204604F024FD2046FFF7AD
:1029A000EBFF204602F06CFA2046FFF7CFFA10BD8D
:1029B00070B52DED048B00BF1C4988688047044624
:1029C0000D461B4903C9221A65EB0101104607F0A9
:1029D000C3FF9FED180B53EC102B08F03FF841ECB0
:1029E000180B134A30C2154B5868154B5B6803F13E
:1029F0001801134B5B68B0EE485AF0EE685A90ED40
:102A0000024AD0ED013A90ED003AD1ED022A91ED63
:102A1000012AD1ED001A93ED0B1AD3ED0A0A93EDBA
:102A2000090A03F059F8BDEC048B70BDC8040020FE
:102A3000800400208DEDB5A0F7C6B03EB40500209F
:102A4000100500200146B5EEC00AF1EE10FA05DBD4
:102A5000F1EEC00AC1ED000A00207047DFED030A65
:102A6000C1ED000A4FF0FF30F7E700000000000062
:102A70000146B5EEC00AF1EE10FA05DBF1EEC00A30
:102A8000C1ED000A00207047DFED030AC1ED000A26
:102A90004FF0FF30F7E70000000000001CB50121F7
:102AA0000846FEF7BFF801210420FEF7BBF801211C
:102AB0001020FEF7B7F801210802FEF7D3F8032033
:102AC0008DF804000F20009000208DF807000320EF
:102AD0008DF8050069461148FDF7E7FF03208DF8E2
:102AE00004000120009000208DF8070003208DF8DD
:102AF000050069460A48FDF7D8FF00208DF804005C
:102B00004FF40040009000208DF8070003208DF85E
:102B1000050069460348FDF7C8FF1CBD00080240D8
:102B2000000002400010024000B52DED060B2DED17
:102B30000A8B83B0B0EE61BAF0EE42BAB0EE62CA70
:102B400068469FED4A0A80ED000A9FED480A80ED35
:102B5000010A9FED460A80ED020A00BF9FED440A7C
:102B60002BEE000AB0EE40BA9FED410A2BEE800A30
:102B7000F0EE40BAB0EE6B0A07F076FAB0EE408A9B
:102B8000B0EE4B0A07F070FAB0EE40AAB0EE4C0A75
:102B900007F06AFAF0EE40AAB0EE6B0A07F0ACFA62
:102BA000F0EE408AB0EE4B0A07F0A6FAB0EE409A7B
:102BB000B0EE4C0A07F0A0FAF0EE409A2AEE2A0A8C
:102BC000DDED0D0A20EE200A68EE890A60EEAA0A01
:102BD00048EE690A9DED0E1A00EE810A68EE090AB8
:102BE00060EE880A48EEA90A9DED0F1A00EE810AF0
:102BF0008DED000A2AEE290ADDED0D0A20EE200AED
:102C000068EE890A60EEA90A48EE2A0A9DED0E1ABE
:102C100000EE810A68EE090A60EEA90A48EEEA0AA7
:102C20009DED0F1A00EE810A8DED010A28EE8A0A49
:102C3000DDED0E0A20EE200ADDED0D0AB1EE491A97
:102C400001EE200A68EE0A0A9DED0F1A00EE810AD5
:102C50008DED020A9DED000ADDED010A9DED021ADF
:102C600003B0BDEC0A8B06B000BD00000000000000
:102C700034FA8E3C10B502F0ABFA01F0E9FFFFF731
:102C800041FC0348C1686420884702F0E3FA10BDA4
:102C9000C804002010B5044600BF02210A48FEF710
:102CA0006FF80028F9D021460748FEF775F800BFF5
:102CB00001210548FEF764F80028F9D00248FEF724
:102CC00068F8C0B210BD0000003800402DE9F04F98
:102CD0002DED088B89B0CC48007810B101280FD1B8
:102CE00006E003F071FC012801D1C749087008E033
:102CF00003F0B2FB012802D10220C349087000E0B2
:102D000000BF00BFC0480078022804D009B0BDEC65
:102D1000088BBDE8F08F4FF00008C146002425461F
:102D200000263746B94840890102B948D0E9003049
:102D3000591A60F10000B64AC2E90010B348808910
:102D4000002306CAA0FB01CA03FB01A100FB02107D
:102D5000410241EADC5000F5FA60C117AD4A03C2F6
:102D6000AA4880880204A9480089DFF8A4C2DCE9E7
:102D7000001BA0FB01CE03FB01E100FB0B104FEA9F
:102D8000DC1141EA4061511843EBE010CDE9041039
:102D90009E4840884FEAC0329C48C088DFF870C225
:102DA000DCE9001BA0FB01CE03FB01E100FB0B10E3
:102DB0004FEA1C2141EA0061511843EB2020CDE984
:102DC00006109448D0E900204FF4FA63D21A70F14B
:102DD00000007DDA8E48D0E90010A1FB012300FB42
:102DE000013301FB0030D10F41EA40084FEAE0799E
:102DF0008848D0E900104FF4FA6AB1EB0A0260F19A
:102E00000001104607F044FD41EC1B0B9FED821BB7
:102E1000B0EE4B0AF0EE6B0A06F0D4FDB0EE40AA1D
:102E2000F0EE60AA9FED7E0B53EC102B51EC1A0BC9
:102E300007F014FE08F0B4F9CDE90201DDE9021053
:102E400045104FEA3104DDE902014FEA900040EA03
:102E500081764FEAA1076F48D0E90030724A9A1A8A
:102E600070F1FF303DDA6B4940F2DC5CD1E900B033
:102E70001BEB0C0240F10001104607F009FD41EC8C
:102E80001A0B9FED651BB0EE4A0AF0EE6A0A06F0D7
:102E900099FDB0EE409AF0EE609A51EC190B08F0F3
:102EA0007FF9CDE9000107234FF0000CDDE90010A8
:102EB000A1FB032A00FB03A001FB0C0014194541F0
:102EC0000B23DDE90010A1FB032A00FB03A000E0B7
:102ED00008E001FB0C0040104FEA3202961947410E
:102EE00000BF00BF4B48D0E90010B1EB080160EB18
:102EF0000900484AC2E90010DDE90410091B60EB33
:102F00000502CDE90412DDE90610891B60EB07021A
:102F1000CDE90612454800680023DDE90612A0FB52
:102F200001CA03FB01A100FB02114FEA5C5040EA19
:102F3000C12C4815DDE90421BCEB020260EB010164
:102F4000D00B40EA4140C913324AC2E9020110469F
:102F5000D0E90220D21A984100DAD7E69FED340A70
:102F6000B0EE408A2B49D1E90221104608F09AF8C8
:102F700000EE100ADFED2F0A80EE201AF0EE418AF3
:102F8000DFED2D0AB0EE680A06F016FAF7EE000A39
:102F900030EEC00ADFED290A20EE200AB0EE408AAA
:102FA000B0EE480A264804F008FEB0EE408AB0EEC3
:102FB000480A244804F0DAFBB0EE408A154890ED48
:102FC000040ADFED210A20EE200ADFED200A08EED8
:102FD000200A80ED040A1E4948688047B0F5FA6F60
:102FE00004D20C4890ED040A80ED050A094890EDE2
:102FF000040AD0ED050A30EE600A80ED040A0020D4
:103000000149087000BF81E60C060020E80F00208F
:1030100000060020C80F0020000000000000004053
:10302000000000000000144024FAFFFF0806002002
:103030000000000080E6C547AEDC423E002A2D4776
:1030400040100020F80F00206666663FCDCCCC3DD6
:10305000C804002070B50446002503F027FA02F0EA
:103060001FFC02F045FC20202F490880072002F0B9
:1030700041F906463146272002F0AEFCFF21E1204F
:1030800002F0AAFCFF21E22002F0A6FC052227495B
:10309000302002F083FC052224492A2002F07EFC25
:1030A0000321232002F098FC0121212002F094FC4E
:1030B0000121222002F090FC06213D2002F08CFC30
:1030C0001D2002F017F938B91C2002F013F918B9C5
:1030D0007321502002F080FC06213D2002F07CFC90
:1030E00001213C2002F078FCF221242002F074FC43
:1030F0003221252002F070FC0E21262002F06CFC0B
:10310000012C04D10E21202002F066FC03E00F21E7
:10311000202002F061FC20200349891E0880044819
:103120000470284670BD00001A08024050050020B7
:103130005A05002010B5034948688047024948688D
:10314000804710BD10060020A00500207CB500209F
:10315000019000900124754801690020884700B95A
:103160007CBDAA237148006840302146621CD4B25D
:1031700043546E48006840302146621CD4B2435428
:1031800001236A48006840302146621CD4B243548F
:1031900000236648006840302146621CD4B2435484
:1031A0006348406890ED010ADFED620A20EE200AD4
:1031B000BDEEC00A10EE100A80B201909DF80530F5
:1031C0005A48006840302146621CD4B243549DF8EE
:1031D00004305648006840302146621CD4B2435443
:1031E0005348406890ED000ADFED520A20EE200AB5
:1031F000BDEEC00A10EE100A80B201909DF80530B5
:103200004A48006840302146621CD4B243549DF8BD
:1032100004304648006840302146621CD4B2435412
:103220004348406890ED020ADFED420A20EE200A92
:10323000BDEEC00A10EE100A80B201909DF8053074
:103240003A48006840302146621CD4B243549DF88D
:1032500004303648006840302146621CD4B24354E2
:103260003548006890ED020ADFED320A20EE200AB0
:10327000BCEEC00A8DED000A9DF803302B480068B3
:1032800040302146621CD4B243549DF80230274896
:10329000006840302146621CD4B243549DF801308E
:1032A0002248006840302146621CD4B243549DF845
:1032B00000301E48006840302146621CD4B243549E
:1032C0001E4803781948006840302146621CD4B279
:1032D000435401231548006840302146621CD4B293
:1032E0004354601FC1B21148006880F844100025A3
:1032F000012007E00D4909684031095C2944CDB23D
:10330000411CC8B2A042F5DB0848006840302146A5
:10331000621CD4B24554601E0449096881F840001B
:1033200002498868804700BF1AE700006005002056
:103330005C0400200000C84210040020100500209A
:1033400038B50020009001247D480169002088479D
:1033500000B938BDAA237A48006840302146621C73
:10336000D4B243547648006840302146621CD4B23F
:10337000435406237248006840302146621CD4B290
:10338000435400236E48006840302146621CD4B28A
:1033900043546C480068008880B200909DF801306A
:1033A0006748006840302146621CD4B243549DF8FF
:1033B00000306348006840302146621CD4B2435458
:1033C00060480068808880B200909DF801305C48B9
:1033D000006840302146621CD4B243549DF800304E
:1033E0005748006840302146621CD4B243545548C7
:1033F0000068008980B200909DF801305048006854
:1034000040302146621CD4B243549DF800304C48F1
:10341000006840302146621CD4B2435449480068D9
:10342000808980B200909DF80130454800684030A6
:103430002146621CD4B243549DF8003040480068D5
:1034400040302146621CD4B243543E480068008A92
:1034500080B200909DF80130394800684030214624
:10346000621CD4B243549DF80030354800684030A7
:103470002146621CD4B2435432480068808A80B22C
:1034800000909DF801302E48006840302146621CB3
:10349000D4B243549DF8003029480068403021469A
:1034A000621CD4B24354002000909DF8013024489F
:1034B000006840302146621CD4B243549DF800306D
:1034C0001F48006840302146621CD4B2435400209B
:1034D00000909DF801301A48006840302146621C77
:1034E000D4B243549DF8003015480068403021465E
:1034F000621CD4B24354601FC1B21148006880F806
:1035000044100025012007E00D4909684031095C9D
:103510002944CDB2411CC8B2A042F5DB084800687E
:1035200040302146621CD4B24554601E04490968EB
:1035300081F8400002498868804700BF09E7000021
:1035400060050020FC04002003480078012801D118
:10355000002070470120FCE7D90500201FB5044674
:10356000082010490880201200F01EF80090E0B2F8
:1035700000F01AF80190201200F016F80290E0B264
:1035800000F012F8039008200649891E0880DDE942
:10359000021040EA012040EA0140009940EA01603F
:1035A00004B010BD1A04024010B5044600BF022149
:1035B0000A48FDF7E5FB0028F9D021460748FDF74A
:1035C000EBFB00BF01210548FDF7DAFB0028F9D02D
:1035D0000248FDF7DEFBC0B210BD0000003C004019
:1035E00010B52DED028B04469FED4F0AB0EE408AD8
:1035F0004E4801780078401C4C4A1070052091FB21
:10360000F0F200FB121020B1BFEE000ABDEC028BFD
:1036100010BD24B1012C2CD0022C7CD153E04448A5
:103620004078C0F3021004280CD04148407820F0C4
:10363000700040303E494870088801F0ABFFBFEE93
:10364000000AE3E73A49088801F0A4FF00EE100AF7
:10365000B8EE400A9FED371AC0EE010A9FED360A18
:1036600020EE800ADFED350A20EE200AB0EE408A17
:1036700056E02F484078C0F3021005280CD02C48A3
:10368000407820F07000503029494870088801F0D7
:1036900081FFBFEE000AB9E72549088801F07AFFEB
:1036A00000EE100AF8EE400A9FED221A80EE810A21
:1036B000DFED210A20EE200ADFED200A20EE200AAD
:1036C000B0EE408A2CE01A484078C0F30210062879
:1036D0000CD01748407820F07000603014494870D2
:1036E000088801F057FFBFEE000A8FE710490888ED
:1036F00001F050FF00EE100AB8EE400A9FED0D1ADF
:10370000C0EE010A9FED0C0A20EE800AF3EE0C0ACF
:1037100020EE200A00E002E0B0EE408A00E000BFA8
:1037200000BFB0EE480A71E70000000094050020D9
:1037300088050020000000476F1203409A998940D5
:1037400030B52DED048B83B0054668469FEDB80A71
:1037500080ED000A9FEDB60A80ED010A9FEDB40AE4
:1037600080ED020A00BFB34890F8D903012802D1C6
:10377000B04981F8D803AF4890F8D803012811D197
:10378000AC4804F089FBAB48503004F085FBA948F5
:10379000A03004F081FBA849C868804703B0BDECA5
:1037A000048B30BDA34890ED401BB0EE410AF0EE13
:1037B000610A53EC102B9FEDA11B51EC110B07F08C
:1037C0004DF941EC180B9B4890ED001BB0EE410AFF
:1037D000F0EE610A53EC102B9FED9A1B51EC110B8C
:1037E00007F03CF941EC190B53EC182B06F0BAFD2D
:1037F000904A03C28F4890ED541BB0EE410AF0EEA0
:10380000610A53EC102B9FED8D1B51EC110B07F04F
:1038100025F941EC180B874890ED141BB0EE410AD6
:10382000F0EE610A53EC102B9FED861B51EC110B4F
:1038300007F014F941EC190B53EC182B06F092FD2C
:103840007C4AC2E91401104690ED681BB0EE410AB3
:10385000F0EE610A53EC102B9FED781B51EC110B2D
:1038600007F0FCF841EC180B724890ED281BB0EE05
:10387000410AF0EE610A53EC102B9FED721B51ECE4
:10388000110B07F0EBF841EC190B53EC182B06F079
:1038900069FD684AA03203C2664890F8DA0318B995
:1038A0006A488068848B0BE0624890EDA41BB0EE00
:1038B000410AF0EE610A51EC100B06F0A3FF04463A
:1038C0006348006890ED000A10EE101A084607F0F1
:1038D000BBFB584AC2E902015D48006890ED010A4D
:1038E00010EE101A084607F0AFFB524AC2E9160163
:1038F0005748006890ED020A10EE101A084607F0CB
:10390000A3FB4C4AA032C2E902012946494804F00F
:1039100087F9B0EE408AF0EE608A51EC180B06F0A1
:10392000EFFC009029464348503004F079F9B0EE9E
:10393000408AF0EE608A51EC180B06F0E1FC019031
:1039400029463C48A03004F06BF9B0EE408AF0EE16
:10395000608A51EC180B06F0D3FC02900020364927
:10396000096808619DED000ADDED010A30EE600A8C
:10397000DDED020A70EE200A00EE104AB8EEC00A31
:1039800030EE800ABDEEC00A2B48006880ED020AC6
:103990009DED000AB1EE400ADDED010A30EE600A4D
:1039A000DDED020A70EE600A00EE104AB8EEC00AC1
:1039B00030EE800ABDEEC00A1F48006880ED010AA3
:1039C00000201D49096848619DED000ADDED010AEE
:1039D00030EE200ADDED020A70EE600A00EE104AB9
:1039E000B8EEC00A30EE800ABDEEC00A1248006888
:1039F00080ED030A9DED000AB1EE400ADDED010AFB
:103A000030EE200ADDED020A70EE200A00EE104AC8
:103A1000B8EEC00A30EE800ABDEEC00A0648006863
:103A200080ED000A044881680120884700BFB5E6A0
:103A30000000000018000020FC040020000000A08E
:103A40009999B93F000000C0CCCCEC3F3005002074
:103A50005C04002070B52DED068B0446ED4890F80F
:103A6000D80301280DD1EB48F03004F015FAEA48EC
:103A700004F012FAE848503004F00EFABDEC068B60
:103A800070BDE44890F8DA0302286FD1E14890ED68
:103A90007C1BB0EE410AF0EE610A53EC102B9FED57
:103AA000DF1B51EC110B06F0D9FF41EC180BD94884
:103AB00090ED3C1BB0EE410AF0EE610A53EC102B86
:103AC0009FEDD81B51EC110B06F0C8FF41EC190B10
:103AD00053EC182B06F046FCCF4A503A03C2CD48AF
:103AE00090ED901BB0EE410AF0EE610A53EC102B02
:103AF0009FEDCA1B51EC110B06F0B0FF41EC180B07
:103B0000C44890ED501BB0EE410AF0EE610A53EC50
:103B1000102B9FEDC41B51EC110B06F09FFF41ECE5
:103B2000190B53EC182B06F01DFCBA4A02F5A072D3
:103B300003C2B84890ED641BB0EE410AF0EE610A92
:103B400053EC102B9FEDB71B51EC110B06F086FFC9
:103B500041EC180B9FEDB50B53EC102B06F002FC5B
:103B6000AC4A02F5C87203C291E0FFE7B149896827
:103B7000C98BA1F5AF60B0494A680221904700EEB9
:103B8000100AB8EEC00A9FEDAD1AC0EE010A9FED13
:103B9000AC0A20EE800AB0EE408AA6498968498BBB
:103BA000C1F5AF60A4494A680221904700EE100AAF
:103BB000B8EEC00ADFEDA10A80EE201A9FEDA00A40
:103BC00021EE000AF0EE408A9FED9E0A28EE000AE0
:103BD00010EE101A084607F037FA41EC190B8D4821
:103BE00090ED3C1BB0EE410AF0EE610A53EC102B55
:103BF0009FED8C1B51EC110B06F030FF41EC1A0BC2
:103C000053EC192B06F0AEFB834A503A03C29FEDEA
:103C10008D0A28EE800A10EE101A084607F014FAF2
:103C200041EC190B7B4890ED501BB0EE410AF0EED1
:103C3000610A53EC102B9FED7B1B51EC110B06F02E
:103C40000DFF41EC1A0B53EC192B06F08BFB714A5C
:103C500002F5A07203C26F4890ED641BB0EE410AFA
:103C6000F0EE610A53EC102B9FED6E1B51EC110B23
:103C700006F0F4FE41EC190B9FED6C0B53EC102B8E
:103C800006F070FB634A02F5C87203C200BF6E48BB
:103C90004068D0ED000AB0EE600A03F055FA10EE6D
:103CA000105A284607F0D0F95B4A503AC2E902019F
:103CB00065484068D0ED010AB0EE600A03F044FAAE
:103CC00010EE105A284607F0BFF9534AC2E9020124
:103CD0005D48006890ED020A10EE101A084607F0E1
:103CE000B3F94D4A5032C2E902012146A2F1A000C7
:103CF00003F096FF2146484803F092FF21464648CC
:103D0000503003F08DFF00BF424890ED401BB0EEF5
:103D1000410AF0EE610A9FED4D1B53EC112B51EC63
:103D2000100B06F099FF04D29FED480B394880ED47
:103D3000400B384890ED401BB0EE410AF0EE610AAE
:103D40009FED441B53EC112B51EC100B06F04AFE77
:103D500004D29FED400B2F4880ED400B00BF00BF09
:103D60002C4890ED541BB0EE410AF0EE610A9FED35
:103D7000371B53EC112B51EC100B06F06DFF04D2E6
:103D80009FED320B234880ED540B224890ED541BDD
:103D9000B0EE410AF0EE610A9FED2E1B53EC112BA1
:103DA00051EC100B06F01EFE04D29FED2A0B1948B1
:103DB00080ED540B00BF00BF164890ED681BB0EEBD
:103DC000410AF0EE610A9FED211B53EC112B51ECDF
:103DD000100B06F041FF04D29FED1C0B0D4880ED47
:103DE000680B0C4890ED681BB0EE410AF0EE610ADA
:103DF0009FED181B53EC112B51EC100B06F0F2FD4C
:103E000004D29FED140B034880ED680B00BF00BF88
:103E100034E600001800002058010020000000A037
:103E20009999B93F000000C0CCCCEC3F00000000E5
:103E30000000000030050020880400200000FA4344
:103E4000C1B8B23ECDCCCC3D5C04002000000020C7
:103E5000FB21E93F00000020FB21E9BF10B588B03D
:103E6000874804F09AF93C21854804F011FA844807
:103E700004F0BEF90321824804F00AFA804804F0F5
:103E8000B7F97F4804F089F93D217D4804F000FA34
:103E90007B4804F0ADF9002409E0794804F0D1F939
:103EA00006A90855764804F0FAF8601CC4B2052C3F
:103EB000F3DB734804F0C5F98DF81D00704804F079
:103EC00051F96F4804F02BF99DF819009DF818106E
:103ED00040EA012000B200EE100AB8EEC00A6948BC
:103EE000406880ED030A9DF81B009DF81A1040EA17
:103EF000012000B200EE100AB8EEC00A6148406826
:103F000080ED050A9DF81D009DF81C1040EA012077
:103F100000B200EE100AB8EEC00A5A48406880EDC0
:103F2000040A5848406800F10C015648406800F106
:103F30000C0291ED021AD1ED010A91ED000A5248EE
:103F4000144603F0BAFD84ED000AC4ED010A84EDC5
:103F5000021A03A804F002F84A48406890ED030AE8
:103F600048484068D0ED090A30EE600A454840688C
:103F7000D0ED060A80EE201A8DED031A4148406804
:103F800090ED040A3F484068D0ED0A0A30EE600A1E
:103F90003C484068D0ED070A80EE201A8DED041AE7
:103FA0003848406890ED050A36484068D0ED0B0A65
:103FB00030EE600A33484068D0ED080A80EE201ADF
:103FC0008DED051A9DED030A20EE000ADDED040AD1
:103FD0009DED041A00EE810ADDED050A9DED051A3E
:103FE00000EE810A2748406880ED0C0A25484068A9
:103FF000D0ED0C0AB7EE001A30EEC10AF0EEC00A9E
:104000009FED220AF4EEC00AF1EE10FA05D21D4827
:10401000406803A90EC90EC016E01D480088401C68
:104020001B4908809FED1B1ADFED1A0A9FED190A44
:10403000684603F08BFF13494968D0E90023806884
:10404000C1E90023886000BF134801880088401C34
:10405000114A1080642910D10D4800880A2802DD19
:104060000120084908700A480088064949684863E1
:104070000020094908800649088008B010BD0000EA
:10408000100E0020B4050020200E0020CDCC4C3EA8
:10409000C405002000000000C605002010B500F097
:1040A0006BFF00F0FFFF01F091FA10BD10B52DED90
:1040B000048B0446CA4890F8D803012822D1C94885
:1040C00003F0EAFEC748503003F0E6FEC548A030D2
:1040D00003F0E2FEC448006890ED030AC04880ED9A
:1040E000F30AC148006890ED040ABD4880EDF40A67
:1040F000BD48006890ED050AB94880EDF50ABDECB1
:10410000048B10BDB64890EDB81BB0EE410AF0EE3E
:10411000610A53EC102B9FEDB51B51EC110B06F00F
:104120009DFC41EC180BAE4890ED781BB0EE410AB7
:10413000F0EE610A53EC102B9FEDAE1B51EC110B0E
:1041400006F08CFC41EC190B53EC182B06F00AF925
:10415000A34A02F5F07203C2A14890EDCC1BB0EE69
:10416000410AF0EE610A53EC102B9FEDA01B51ECBD
:10417000110B06F073FC41EC180B994890ED8C1B69
:10418000B0EE410AF0EE610A53EC102B9FED991B43
:1041900051EC110B06F062FC41EC190B53EC182B9F
:1041A00006F0E0F88E4A02F50C7203C28C4890EDDE
:1041B000E01BB0EE410AF0EE610A53EC102B9FEDCC
:1041C0008B1B51EC110B06F049FC41EC180B844899
:1041D00090EDA01BB0EE410AF0EE610A53EC102BFB
:1041E0009FED841B51EC110B06F038FC41EC190BD0
:1041F00053EC182B06F0B6F8794A02F5207203C288
:104200007948006890ED030A7548D0EDF30A30EE66
:10421000600A10EE101A084606F016FF714AC2E94D
:1042200002017148006890ED040A6D48D0EDF40A6F
:1042300030EE600A10EE101A084606F005FF694AD3
:104240005032C2E902016848006890ED050A6448EE
:10425000D0EDF50A30EE600A10EE101A084606F0AE
:10426000F3FE604AA032C2E9020121465D4803F034
:10427000D7FC21465B48503003F0D2FC2146594818
:10428000A03003F0CDFC00BF554890ED7C1BB0EE94
:10429000410AF0EE610A9FED591B53EC112B51ECD2
:1042A000100B06F0D9FC04D29FED540B4C4880ED66
:1042B0007C0B4B4890ED7C1BB0EE410AF0EE610A9E
:1042C0009FED501B53EC112B51EC100B06F08AFBA9
:1042D00004D29FED4C0B424880ED7C0B00BF00BF29
:1042E0003F4890ED901BB0EE410AF0EE610A9FED61
:1042F000431B53EC112B51EC100B06F0ADFC04D218
:104300009FED3E0B364880ED900B354890ED901BAD
:10431000B0EE410AF0EE610A9FED3A1B53EC112B0F
:1043200051EC100B06F05EFB04D29FED360B2C48CF
:1043300080ED900B00BF00BF294890EDA41BB0EEAC
:10434000410AF0EE610A9FED311B53EC112B51EC49
:10435000100B06F081FC04D29FED2C0B204880ED61
:10436000A40B1F4890EDA41BB0EE410AF0EE610AC9
:104370009FED281B53EC112B51EC100B06F032FB78
:1043800004D29FED240B164880EDA40B00BF2349F7
:104390008968888B06F0CDFA41EC190B20499FED16
:1043A000212B9FED221BB0EE490AF0EE690A086846
:1043B0008047B0EE408AF0EE608A094890EDA41B79
:1043C000B0EE410AF0EE610A53EC102B51EC180BE1
:1043D00005F0C8FF034AA032C2E9040100BF8EE61F
:1043E00018000020F801002010040020000000A0A8
:1043F0009999B93F000000C0CCCCEC3F00000020F0
:104400001857D63F000000201857D6BF0000000004
:1044100000C072400000000000C072C030050020E3
:10442000880400200000000000208C4000000000F4
:1044300000E0954070B52DED028B0446FD4890F8E4
:10444000D803012822D1FC4803F026FDFA48503059
:1044500003F022FDF848A03003F01EFDF748006885
:1044600090ED000AF34880EDF00AF448006890ED02
:10447000010AF04880EDF10AF048006890ED020A68
:10448000EC4880EDF20ABDEC028B70BDE94890F873
:10449000D90300287DD1EA498968C98BA1F5AF60AD
:1044A000E8494A680221904700EE100AB8EEC00AB7
:1044B000DFEDE50A80EE201AB6EE000A61EE000A92
:1044C00000EE104AB8EE400A20EE800ADFEDDF0A67
:1044D00080EE201A11EE105A284606F0B5FD41EC88
:1044E000180BD44890EDB41BB0EE410AF0EE610A0F
:1044F00053EC102B51EC180B05F034FFCD4A02F5AC
:10450000347203C2CE498968498BA1F5AF60CD49A9
:104510004A680221904700EE100AF8EEC00A9FEDAB
:10452000CA1A80EE810AF6EE000A60EE200A00EE5A
:10453000104AB8EE400A20EE800ADFEDC40A80EE91
:10454000201A11EE105A284606F07EFD41EC180B99
:10455000B84890EDC81BB0EE410AF0EE610A53EC8A
:10456000102B51EC180B05F0FDFEB24A02F5487213
:1045700003C2B3498968898BA1F5AF60B1494A6824
:104580000221904700EE100AB8EEC00A9FEDAE1A65
:1045900000E0ABE0C0EE010AB6EE000A60EE800A71
:1045A00000EE104AB8EE400A20EE800ADFEDA70ABE
:1045B00080EE201A11EE105A284606F045FD41EC17
:1045C000180B9C4890EDDC1BB0EE410AF0EE610A3E
:1045D00053EC102B51EC180B05F0C4FE954A02F574
:1045E0005C7203C200BF934890EDB41BB0EE410A69
:1045F000F0EE610A9FED961B53EC112B51EC100B62
:1046000006F02AFB04D29FED920B8A4880EDB40B92
:10461000884890EDB41BB0EE410AF0EE610A9FEDC0
:104620008E1B53EC112B51EC100B06F0DBF904D26E
:104630009FED890B7F4880EDB40B00BF00BF7D4824
:1046400090EDC81BB0EE410AF0EE610A9FED801BB1
:1046500053EC112B51EC100B06F0FEFA04D29FED37
:104660007C0B744880EDC80B724890EDC81BB0EE0F
:10467000410AF0EE610A9FED781B53EC112B51ECCF
:10468000100B06F0AFF904D29FED730B694880ED73
:10469000C80B00BF00BF674890EDDC1BB0EE410ABD
:1046A000F0EE610A9FED6E1B53EC112B51EC100BD9
:1046B00006F0D2FA04D29FED6A0B5E4880EDDC0B67
:1046C0005C4890EDDC1BB0EE410AF0EE610A9FED14
:1046D000661B53EC112B51EC100B06F083F904D23E
:1046E0009FED610B534880EDDC0B00BF5348006821
:1046F00090ED000A4F48D0EDF00A30EE600A10EE5F
:10470000101A084606F0A0FC4B4AC2E902014B48C9
:10471000006890ED010A4748D0EDF10A30EE600ADA
:1047200010EE101A084606F08FFC434A5032C2E9D8
:1047300002014248006890ED020A3E48D0EDF20ABC
:1047400030EE600A10EE101A084606F07DFC3A4A78
:10475000A032C2E902012146374803F061FA21463E
:104760003548503003F05CFA21463348A03003F05E
:1047700057FA00BF2F4890EDB81BB0EE410AF0EE9B
:10478000610A9FED3B1B53EC112B51EC100B06F013
:1047900063FA04D29FED360B264880EDB80B25480E
:1047A00090EDB81BB0EE410AF0EE610A9FED321BAE
:1047B00053EC112B51EC100B06F014F904D29FEDC1
:1047C0002E0B1C4880EDB80B00BF00BF194890EDC0
:1047D000CC1BB0EE410AF0EE610A9FED251B53ECB5
:1047E000112B51EC100B06F037FA04D29FED200B81
:1047F000104880EDCC0B0F4890EDCC1BB0EE410A79
:10480000F0EE610A9FED1C1B53EC112B51EC100BC9
:1048100006F0E8F804D29FED180B064880EDCC0BAB
:1048200000BF00BF034890EDE01BB0EE410AF0EE80
:10483000610A25E018000020E80200201004002092
:1048400030050020880400200000FA4300007A446C
:10485000000000000000244000000000000024C010
:104860000000000000000040000000000000000008
:10487000000000000000E03F000000000000E0BF7A
:104880001FED051B53EC112B51EC100B06F0E4F956
:1048900004D21FED090B0D4880EDE00B0B4890EDA5
:1048A000E01BB0EE410AF0EE610A1FED0D1B53EC68
:1048B000112B51EC100B06F095F804D21FED120BE2
:1048C000024880EDE00B00BF00BFDCE518000020CF
:1048D0007CB50020019000900124A24801690020CD
:1048E000884700B97CBDAA239E4800684030214615
:1048F000621CD4B243549B48006840302146621C7D
:10490000D4B2435402239748006840302146621CC9
:10491000D4B2435400239348006840302146621CBF
:10492000D4B243549048406890ED060ABDEEC00AE8
:1049300010EE100A00B201909DF805308948006819
:1049400040302146621CD4B243549DF8043085485F
:10495000006840302146621CD4B24354824840680B
:1049600090ED070ABDEEC00A10EE100A00B20190E9
:104970009DF805307B48006840302146621CD4B267
:1049800043549DF804307748006840302146621C4B
:10499000D4B243547448406890ED080ABDEEC00A92
:1049A00010EE100A00B201909DF805306D480068C5
:1049B00040302146621CD4B243549DF8043069480B
:1049C000006840302146621CD4B2435466484068B7
:1049D00090ED090ABDEEC00A10EE100A00B2019077
:1049E0009DF805305F48006840302146621CD4B213
:1049F00043549DF804305B48006840302146621CF7
:104A0000D4B243545848406890ED0A0ABDEEC00A3B
:104A100010EE100A00B201909DF805305148006870
:104A200040302146621CD4B243549DF804304D48B6
:104A3000006840302146621CD4B243544A48406862
:104A400090ED0B0ABDEEC00A10EE100A00B2019004
:104A50009DF805304348006840302146621CD4B2BE
:104A600043549DF804303F48006840302146621CA2
:104A7000D4B243543D48406890ED030ABDEEC00AED
:104A800010EE100A00B201909DF80530354800681C
:104A900040302146621CD4B243549DF80430314862
:104AA000006840302146621CD4B243542F4840680D
:104AB00090ED040ABDEEC00A10EE100A00B201909B
:104AC0009DF805302748016840312046621CD4B269
:104AD0000B549DF804302348006840302146621C86
:104AE000D4B243542148406890ED050ABDEEC00A97
:104AF00010EE100A00B201909DF8053019480068C8
:104B000040302146621CD4B243549DF8043015480D
:104B1000006840302146621CD4B24354601FC1B2C9
:104B20001048006880F844100025012007E00D4976
:104B300009684031095C2944CDB2411CC8B2A04289
:104B4000F5DB0848006840302146621CD4B2455469
:104B5000601E0449096881F840000249886880475E
:104B600000BFBFE66005002010050020B40500204E
:104B700010B588B0044601210846FCF753F801211E
:104B80001020FCF76FF8072209212648FBF7D5FF14
:104B900007220A212348FBF7D0FF02208DF81C00D2
:104BA00003208DF81D0000208DF81E0001208DF8D7
:104BB0001F004002069006A91A48FBF776FF4FF443
:104BC0008060069006A91748FBF76FFF25208DF837
:104BD000040000208DF8050003208DF80600012058
:104BE0008DF8070001A8FBF7D5FF02940020ADF86F
:104BF0000C00ADF80E00ADF81000ADF814000C205C
:104C0000ADF8120002A90848FCF75EFC012240F250
:104C100025510548FCF733FC01210348FCF7ECFB68
:104C200008B010BD000002400010014010B5064859
:104C3000007838B9012240F227710448FCF71FFCC4
:104C4000012010BD0020FCE7D805002000480040EE
:104C500000B585B001218803FBF7F4FF0020ADF813
:104C600000004FF48270ADF802000020ADF804009F
:104C7000ADF80600ADF808004FF40070ADF80A007A
:104C80001020ADF80C000020ADF80E000720ADF8A4
:104C9000100069460448FCF781F801210248FCF73E
:104CA00063F805B000BD00000038004010B50446B0
:104CB00000BF02210A48FCF763F80028F9D021461A
:104CC0000748FCF769F800BF01210548FCF758F8D0
:104CD0000028F9D00248FCF75CF8C0B210BD000013
:104CE0000030014070B52DED048B064600BF184919
:104CF0008868804704460D461648D0E90010621ABD
:104D000065EB0001104605F027FE9FED130B53ECF9
:104D1000102B05F0A3FE41EC180B0E4A30C21049CF
:104D20004968B0EE483AF0EE683AD1ED082A91EDC4
:104D3000072AD1ED061A0B4991ED021AD1ED010AAD
:104D400091ED000A01F06AFCBDEC048B70BD00001F
:104D5000C8040020500400208DEDB5A0F7C6B03E79
:104D6000100500205012002010B588B00446012123
:104D70000220FBF757FF01218804FBF763FF07229E
:104D80000A212648FBF7D9FE07220B212348FBF70F
:104D9000D4FE02208DF81C0003208DF81D00002099
:104DA0008DF81E0001208DF81F008002069006A9D4
:104DB0001A48FBF77AFE4FF40060069006A91748E0
:104DC000FBF773FE27208DF8040000208DF8050006
:104DD00001208DF806008DF8070001A8FBF7DAFE28
:104DE00002940020ADF80C00ADF80E00ADF81000F4
:104DF000ADF814000C20ADF8120002A90848FCF729
:104E000063FB012240F225510548FCF738FB0121E4
:104E10000348FCF7F1FA08B010BD0000000402409E
:104E20000048004000B585B00121C803FBF70AFF28
:104E30000020ADF800004FF48270ADF802000020B1
:104E4000ADF80400ADF806000120ADF808004002FE
:104E5000ADF80A001820ADF80C000020ADF80E00E7
:104E60000720ADF8100069460448FBF797FF0121C1
:104E70000248FBF779FF05B000BD0000003C004090
:104E800070B504463748006890F8D803012848D127
:104E90000020354908803348006890F8D90301287C
:104EA00000D170BD3148007800B9FAE72F48C078CA
:104EB000012800D1F5E72D484078012800D1F0E71E
:104EC0002A488078012800D1EBE7294A9268908B24
:104ED000274A5169884708B9012500E00025244A7E
:104EE0009268108B224A51698847022801D101201B
:104EF00000E00020054085B11E48008820441D497F
:104F000008800846008840F6B831884227DD002036
:104F10001449096881F8D80321E000201549088068
:104F20001DE000201349088011488068808B40F202
:104F30008E31884205DA0C48008820440A490880EE
:104F400002E00020084908800748008840F6B83190
:104F5000884204DD01200349096881F8D80300BFB5
:104F60009FE70000F8030020A80400209804002018
:104F700030050020AA0400201FB53C22D02146485D
:104F800003F02DF8C0B28DF808003B22D021424832
:104F900003F025F8C0B28DF809009DF808009DF8CF
:104FA000091040EA012000B2ADF800003E22D021F5
:104FB000394803F014F8C0B28DF80A003D22D02120
:104FC000354803F00CF8C0B28DF80B009DF80A00CC
:104FD0009DF80B1040EA012000B2ADF8020040221B
:104FE000D0212D4802F0FBFFC0B28DF80C003F220B
:104FF000D021294802F0F3FFC0B28DF80D009DF8D2
:105000000C009DF80D1040EA012000B2ADF804003C
:10501000BDF9000000EE100AB8EEC00A1F4880ED8E
:10502000000ABDF9020000EE100AB8EEC00A1B48E3
:1050300080ED010ABDF9040000EE100AB8EEC00AC6
:10504000164880ED020A90ED000AD0ED0C0A30EE11
:10505000600A80ED060A90ED010AD0ED0D0A30EEEF
:10506000600A80ED070A90ED020AD0ED0E0A30EEDC
:10507000600A80ED080A90ED081AD0ED070A90ED5D
:10508000060A074802F0ECFA044880ED060AC0ED73
:10509000070A80ED081A1FBD10080020B008002084
:1050A0001C0800201FB54422D021464802F097FF7B
:1050B000C0B28DF808004322D021424802F08FFF91
:1050C000C0B28DF809009DF808009DF8091040EA6B
:1050D000012000B2ADF800004622D021394802F08C
:1050E0007EFFC0B28DF80A004522D021354802F07B
:1050F00076FFC0B28DF80B009DF80A009DF80B10EA
:1051000040EA012000B2ADF802004822D0212D482B
:1051100002F065FFC0B28DF80C004722D02129486B
:1051200002F05DFFC0B28DF80D009DF80C009DF8F7
:105130000D1040EA012000B2ADF80400BDF90000F6
:1051400000EE100AB8EEC00A1F4880ED030ABDF950
:10515000020000EE100AB8EEC00A1B4880ED040AF7
:10516000BDF9040000EE100AB8EEC00A164880ED42
:10517000050A90ED030AD0ED0F0A30EE600A80EDCB
:10518000090A90ED040AD0ED100A30EE600A80EDB5
:105190000A0A90ED050AD0ED110A30EE600A80EDA2
:1051A0000B0A90ED0B1AD0ED0A0A90ED090A074898
:1051B00002F083FC044880ED090AC0ED0A0A80ED84
:1051C0000B1A1FBD10080020B00800206008002046
:1051D0001CB501210220FBF725FD01208DF80400FC
:1051E00000208DF8060003208DF8050001208DF8C1
:1051F00007000003009069461548FBF756FC4FF482
:10520000805013491831088002208DF804004FF4B3
:105210006040009000208DF8060001208DF8070006
:1052200003208DF8050069460948FBF73EFC05227E
:105230000D210748FBF781FC05220E210448FBF7EE
:105240007CFC05220F210248FBF777FC1CBD000007
:105250000004024070B500241DE04FF480500F4957
:105260000880A02101EB4401C8B2FDF713FD002026
:10527000FDF710FD06460020FDF70CFD054645EA4A
:105280000620074921F814004FF480500349891E75
:105290000880601CC4B2062CDFDD70BD1A04024019
:1052A000E80F00200348007808B90120704700206B
:1052B000FCE700005D0500202DE9F04107460D46A2
:1052C000164610200A4948833846FFF7EFFC80460F
:1052D000002405E0FF20FFF7E9FC2855601CC4B25C
:1052E000B442F7DB1020024908834046BDE8F08154
:1052F0000000024070B5044610200749488320464C
:10530000FFF7D4FCFF20FFF7D1FC0546102002492F
:105310000883284670BD00000000024038B5012413
:1053200000200090754801690120884708B90020D5
:1053300038BDAA237148006840302146621CD4B2AF
:1053400043546E48006840302146621CD4B2435436
:10535000F1236A48006840302146621CD4B24354AD
:1053600000236648006840302146621CD4B2435492
:10537000634890ED000ABDEEC00A10EE100A00B2BC
:1053800000909DF801305D48006840302146621C65
:10539000D4B243549DF8003058480068403021464C
:1053A000621CD4B24354564890ED010ABDEEC00AC7
:1053B00010EE100A00B200909DF801304F480068CE
:1053C00040302146621CD4B243549DF800304B4813
:1053D000006840302146621CD4B24354484890EDE6
:1053E000020ABDEEC00A10EE100A00B200909DF84D
:1053F00001304248006840302146621CD4B2435418
:105400009DF800303D48006840302146621CD4B20F
:1054100043543B4890ED030ABDEEC00A10EE100A5B
:1054200000B200909DF801303448006840302146B9
:10543000621CD4B243549DF80030304800684030BC
:105440002146621CD4B243542D4890ED040ABDEEAF
:10545000C00A10EE100A00B200909DF801302748F3
:10546000006840302146621CD4B243549DF800309D
:105470002248006840302146621CD4B24354204880
:1054800090ED050ABDEEC00A10EE100A00B20090C1
:105490009DF801301948006840302146621CD4B2A2
:1054A00043549DF800301548006840302146621C86
:1054B000D4B24354601FC1B21048006880F8441051
:1054C0000025012007E00D4909684031095C2944A5
:1054D000CDB2411CC8B2A042F5DB0848006840309C
:1054E0002146621CD4B24554601E0449096881F803
:1054F0004000024988688047012019E760050020C4
:10550000B80600200120014908707047D905002025
:105510001CB501210620FBF785FB01208DF8040056
:1055200000208DF8060003208DF8050001208DF87D
:1055300007000820009069461448FBF7B6FA0820D7
:1055400012491831088002208DF804004FF4E05011
:10555000009000208DF8060001208DF80700032040
:105560008DF8050069460A48FBF79FFA06220A21D2
:105570000748FBF7E2FA06220B210548FBF7DDFAA4
:1055800006220C210248FBF7D8FA1CBD0004024099
:10559000000802401CB5044608200B490880201270
:1055A000FEF702F8ADF80000E0B2FDF7FDFFADF840
:1055B000020008200449891E0880BDF80200BDF8D9
:1055C000001040EA01201CBD1A04024010B57748C3
:1055D000007800F0010048B9744802F008FF28B1D3
:1055E000734802F0BBFC7148AFF30080714800784B
:1055F00000F0010048B96F4802F0F9FE28B16E488A
:1056000002F0ACFC6B48AFF300806C4800780128D6
:1056100068D16B480068E0B99FED6A0A6A4880ED7E
:105620000C0A9FED680A80ED0D0A9FED660A80ED79
:105630000E0A9FED640A80ED0F0A9FED620A80ED6D
:10564000100A9FED600A80ED110A01205C49086094
:1056500010BD5B48006840F6B831884243DC5848CA
:105660000068401C56490860514890ED000A5648B1
:10567000D0ED000A30EE200A4D4880ED000A90ED92
:10568000010A5148D0ED010A30EE200A484880ED69
:10569000010A90ED020A4C48D0ED020A30EE200AD1
:1056A000434880ED020A444890ED000A4648D0ED98
:1056B000030A30EE200A404880ED000A90ED010A0E
:1056C0004148D0ED040A30EE200A3B4880ED010A43
:1056D00090ED020A3C48D0ED050A30EE200A36482B
:1056E00080ED020A60E00020354908603349087007
:1056F0002F4890ED000ADFED350A80EE201A32487F
:1057000080ED0C1A2A4890ED010ADFED300A80EE98
:10571000201A2D4880ED0D1A254890ED020ADFED84
:105720002B0A80EE201A9FED2A0A31EE400A264805
:1057300080ED0E0A204890ED000ADFED240A80EE8D
:10574000201A214880ED0F1A1B4890ED010ADFED69
:105750001F0A80EE201A1C4880ED101A164890EDA2
:10576000020ADFED1A0A80EE201A174880ED111A9E
:105770009FED140A0E4880ED000A9FED120A80ED9D
:10578000010A9FED100A80ED020A9FED0E0A0A48F9
:1057900080ED000A9FED0B0A80ED010A9FED090ADA
:1057A00080ED020A00F052F800BF51E72405002006
:1057B000F808002020050020040900201005002022
:1057C0002805002000000000B008002000803B45B4
:1057D00000F07F4500B51820FCF778FABCEEC00A4F
:1057E00010EE100A1749487008464078012824D165
:1057F0000020FCF76BFA144880ED0C0A0420FCF73B
:1058000065FA114880ED0D0A0820FCF75FFA0E4892
:1058100080ED0E0A0C20FCF759FA0B4880ED0F0AB8
:105820001020FCF753FA084880ED100A1420FCF70A
:105830004DFA054880ED110A02E001200149087087
:1058400000BD000010050020B008002010B5FCF7D6
:10585000FFFC10B902200149887010BD100500201E
:1058600070B54FF480500D4908800020FDF712FA02
:105870000020FDF70FFA04460020FDF70BFA05465D
:105880000020FDF707FA06464FF480500349891EB1
:105890000880200400EB0520304470BD1A0402404B
:1058A0000EB501218803FBF7DDF904210220FBF787
:1058B00095FA1020019000208DF808000C208DF83A
:1058C000090001208DF80A0001A8FAF7DBFF0A2081
:1058D0008DF8000000208DF801000F208DF80200E7
:1058E00001208DF803006846FBF754F90EBD000057
:1058F00000B585B001210803FBF7B4F90020ADF82D
:1059000000004FF48270ADF802000020ADF80400F2
:10591000ADF80600ADF808004FF40070ADF80A00CD
:105920001020ADF80C000020ADF80E000720ADF8F7
:10593000100069460448FBF731FA01210248FBF7E1
:1059400013FA05B000BD00000030014010B50E484C
:105950000078012813D10D480078012812D12020A9
:105960000B49088020220B49A02000F017F82020C6
:105970000749891E088000200449087002E00020C1
:105980000549087010BD00005A0500205C05002084
:105990001A080240720900205B0500202DE9F04141
:1059A00007460D46164610200A4948833846FFF739
:1059B0007DF98046002404E0285DFFF777F9601C3C
:1059C000C4B2B442F8DB1020024908834046BDE867
:1059D000F08100000000024070B505460C46102022
:1059E000064948832846FFF761F906462046FFF737
:1059F0005DF9102001490883304670BD0000024067
:105A000070B505462C4630490869804701280FD1FA
:105A10002078472809D16078502806D1A0785328EB
:105A200003D12A480168E01C884727494869804714
:105A30002748007800EE100AB8EE400A254880EDAD
:105A4000000A234890ED021BB0EE410AF0EE610A15
:105A500051EC100B04F054FC1E4948601C4890EDBA
:105A6000041BB0EE410AF0EE610A51EC100B04F099
:105A700047FC18498860164890ED061BB0EE410AB5
:105A8000F0EE610A51EC100B04F03AFC1149C860C9
:105A90000F4890ED081BB0EE410AF0EE610A51ECA0
:105AA000100B04F02DFC0B490861094890ED0A1B0E
:105AB000B0EE410AF0EE610A51EC100B04F020FC4C
:105AC0000449486170BD0000DC050020200600206C
:105AD00020120020B806002010B52DED0C0BB0B040
