:020000040800F2
:10000000881600206D020008450B00083D0B000813
:10001000410B000887060008631500080000000077
:100020000000000000000000000000008D0D00082E
:10003000F906000800000000D50B0008D10D0008EB
:10004000870200088702000887020008870200086C
:10005000870200088702000887020008870200085C
:100060008702000887020008FD06000887020008D2
:10007000870200088702000887020008870200083C
:10008000870200088702000887020008870200082C
:10009000870200088702000887020008870200081C
:1000A000870200088702000887020008870200080C
:1000B00087020008870200088702000887020008FC
:1000C00087020008870200088702000887020008EC
:1000D0008702000815110008F1110008B512000888
:1000E00087020008870200088702000887020008CC
:1000F00087020008870200088702000887020008BC
:1001000087020008870200088702000887020008AB
:10011000870200088702000887020008870200089B
:10012000870200088702000887020008870200088B
:10013000870200088702000887020008870200087B
:10014000870200088702000887020008870200086B
:10015000870200088702000887020008870200085B
:10016000870200088702000887020008870200084B
:10017000870200088702000887020008870200083B
:10018000870200088702000800F002F800F05EF81D
:100190000AA090E8000C82448344AAF10107DA45E2
:1001A00001D100F053F8AFF2090EBAE80F0013F0D6
:1001B000010F18BFFB1A43F00103184764A60000A3
:1001C00084A600000A444FF0000C10F8013B13F025
:1001D000070408BF10F8014B1D1108BF10F8015BA0
:1001E000641E05D010F8016B641E01F8016BF9D193
:1001F00013F0080F1EBF10F8014BAD1C0C1B09D1EA
:100200006D1E58BF01F801CBFAD505E014F8016B5B
:1002100001F8016B6D1EF9D59142D6D370470000ED
:100220000023002400250026103A28BF78C1FBD8FF
:10023000520728BF30C148BF0B6070471FB509F097
:10024000C0FC00F08DF81FBD10B510BD00F024F902
:100250001146FFF7F3FF08F0BDFC00F042F903B4CC
:10026000FFF7F2FF03BC00F043F9000009488047A4
:1002700009480047FEE7FEE7FEE7FEE7FEE7FEE788
:10028000FEE7FEE7FEE7FEE704480549054A064BA0
:1002900070470000E90D000889010008881000205F
:1002A00088160020881200208812002010B54C10FB
:1002B00084EA530404D54042C1F1000138BF491E0D
:1002C0001B4204D55242C3F1000338BF5B1E00F04D
:1002D00059F814F0804F04D04042C1F1000138BFFA
:1002E000491E14F0004F04D05242C3F1000338BF3E
:1002F0005B1E10BD10B5203AC0F00B80B1E818505D
:10030000203AA0E81850B1E81850A0E81850BFF4FF
:10031000F5AF5FEA027C24BFB1E81850A0E818509E
:1003200044BF18C918C0BDE810405FEA827C24BFF2
:1003300051F8043B40F8043B08BF7047D20728BF80
:1003400031F8023B48BF11F8012B28BF20F8023BCF
:1003500048BF00F8012B7047704770477047000096
:1003600070B5064C7C44064D7D4403E02068204473
:100370008047241DAC42F9D170BD0000D8A4000014
:10038000F4A4000053EA020C00F069802DE9F04B60
:100390004FF00006002B1FBFB3FA83F503FA05F4F4
:1003A00024FA05F65E4012BF1643B2FA82F502FA4D
:1003B00005F4C5F120051EBF22FA05FC44EA0C0431
:1003C000203556EA044C4FEA144418BF641C4FF021
:1003D00000084FF00009904271EB030C39D300295B
:1003E00019BFB1FA81F701FA07F6B0FA80F700FAFF
:1003F00007F6C7F120071EBF20FA07FC46EA0C06E5
:100400002037B6FBF4FCA7EB0507103F07F01F0BE6
:10041000CBF120060CFA0BFB2CFA06F644BFB346D0
:100420000026202FA4BF5E464FF0000B5BEA060CAF
:1004300008BF4FF0010B19EB0B09ABFB027C48EB3B
:100440000608C01B06FB02CC0BFB03CC71EB0C01B6
:10045000C1E70B46024641464846BDE8F08B13B55E
:100460004FF000004FF00001AFF30080BDE81C40EA
:10047000704710B500F008F8006810BD10B50446CC
:1004800000F002F8046010BD0048704728100020FA
:1004900000487047281000207546FFF7F9FFAE4668
:1004A00005006946534620F00700854618B020B580
:1004B000FFF7EAFEBDE820404FF000064FF00007CE
:1004C0004FF000084FF0000B21F00701AC46ACE8FC
:1004D000C009ACE8C009ACE8C009ACE8C0098D4669
:1004E00070470446AFF300802046FFF7B8FE0000D7
:1004F00001491820ABBEFEE726000200704721B17B
:10050000826842F00102826003E0826822F0010208
:10051000826070470021084A1168084A1140D0E9FA
:1005200000231A4383681A43C3681A431143044AD9
:10053000C2F804137047000004230140E030FCFFC0
:100540000020014021B1826842F48072826003E0A1
:10055000826822F480728260704721B1826842F41E
:100560000072826003E0826822F400728260704749
:1005700030B50246002000235068104C20400D7911
:100580000C6844EA05242043506090680C4C2040DD
:10059000D1E903542C438D682C434D7944EA45043A
:1005A00020439060D06A20F470000C7D641EE4B299
:1005B000234340EA0350D06230BD0000FFFEFFFC41
:1005C000FDF7FFC0F0B504460D4600200021092DBF
:1005D00011DDE068A5F10A0606EB4607072606FAD4
:1005E00007F18843A5F10A0606EB460603FA06F171
:1005F0000843E0600CE0206905EB4507072606FA92
:1006000007F1884305EB450603FA06F1084320612C
:10061000072A0FDA606B561E06EB86071F2606FABE
:1006200007F18843561E06EB860605FA06F10843D5
:10063000606322E00D2A0FDA206BD61F06EB8607D7
:100640001F2606FA07F18843D61F06EB860605FA31
:1006500006F10843206310E0E06AA2F10D0606EB04
:1006600086071F2606FA07F18843A2F10D0606EB5E
:10067000860605FA06F10843E062F0BD816841F0A4
:1006800080418160704700BFFEE721B1026842F0FF
:100690000102026003E0026822F00102026070477A
:1006A00010B500220268134B1A40CC680B68234334
:1006B0004C6923438C692343CC6923430C6A23434D
:1006C0004C6A23438C6A23434C6B23438C6B234338
:1006D0001A430260426922F00702D1E90B34234336
:1006E0001A4342610B6943604B6883608B68C36047
:1006F00010BD00003F801CF07047000010B588B0AE
:10070000102000F08DF8002871D03B4800780228B6
:100710003AD1202039490880072004F04DF90446D9
:100720002146272004F0C6FB04F0400038B3202205
:100730006946612004F022F9FF21E22004F0BAFBAF
:100740002F48007801280ED1002007E01DF8002076
:100750002C49096820310A54411CC8B22028F5DB15
:100760000020274908702848007838B920222749F6
:10077000A82004F081FB01202349087000BF20203D
:100780001E49891E088032E020201C490880202252
:100790006946612004F0F2F8FF21E22004F08AFBB0
:1007A0001748007801280ED1002007E01DF800202E
:1007B0001449096820310A54411CC8B22028F5DBCD
:1007C00000200F490870072004F0F6F8044621467F
:1007D000272004F06FFBFF21E12004F06BFB0120D8
:1007E0000B49087020200549891E088000BF102091
:1007F00000F010F808B010BD720500201A08024081
:10080000750500207805002073050020A60900204A
:10081000740500200149086070470000143C014045
:1008200001460020034A12680A400AB1012000E094
:1008300000207047143C0140002123498279002A9E
:100840003AD00A46126803689A430B461A600A1D9A
:10085000126803689A430B1D1A60027911440A68F2
:1008600003681A430A60184A0832126803689A43F8
:10087000154B08331A601A1D126803689A43124B0D
:100880000C331A604279102A0ED11A1F12680368BD
:100890001A430D4B08331A601A1D126803681A4375
:1008A000094B0C331A600DE00749427911440A687C
:1008B00003681A430A6005E0027911440A68036874
:1008C0009A430A6070470000003C014001490860FB
:1008D000704700000C3C024070B504460A460026F2
:1008E000092502B909E0012A01D1160205E0022A10
:1008F00001D1160201E04FF4407600F09FF8054662
:10090000092D28D11548006820F44070134908606B
:1009100008460068304308600846006820F0F80088
:1009200008600846006844F0020108430B4908606B
:100930000846006840F48030086000F07FF8054603
:100940000648006820F00200044908600846006874
:1009500020F0F8000860284670BD0000103C0240FE
:1009600009201349096801F48031B1F5803F01D1B4
:1009700001201CE00E49096801F0100109B10620B0
:1009800015E00B49096801F4807109B102200EE0FD
:100990000749096801F0E00109B1072007E00449AF
:1009A000096801F0020109B1082000E00920704740
:1009B0000C3C02400348006840F0004001490860D8
:1009C00070470000103C024030B502460C46092535
:1009D00000F034F80546092D19D10E48006820F4BE
:1009E00040700C4908600846006840F400700860D8
:1009F0000846006840F001000860146000F01EF82E
:100A000005460448006820F00100024908602846B5
:100A100030BD0000103C02400548006800F0004076
:100A200028B1044802490C3908600348086070473F
:100A3000103C024023016745AB89EFCD08B5092082
:100A40000090FFF78DFF009002E0FFF789FF009014
:100A50009DF800000128F8D09DF8000008BDF0B511
:100A60000A4600210023002400BF3DE0012505FACD
:100A700001F3156805EA03049C4234D105684F0070
:100A80000326BE40B543056015794E00B5400668A3
:100A9000354305601579012D02D01579022D16D147
:100AA00085684F000326BE40B543856055794E00EA
:100AB000B540866835438560456801268E40B5435C
:100AC0004560456896798E40B6B235434560C56845
:100AD0004F000326BE40B543C560D5794E00B540F2
:100AE000C6683543C560491C1029BFD3F0BDF0B5B9
:100AF000002300244D07ED0E02FA05F3CE1000F19D
:100B0000200555F826504E07F70E0F26BE40B54378
:100B1000CF1000F1200646F82750CE1000F1200536
:100B200055F8265045EA0304CE1000F1200545F89B
:100B30002640F0BD418370470183704700BFFEE748
:100B400000BFFEE77047000070B5002100230F22B0
:100B5000C4781CB3174C246804F4E064C4F5E06462
:100B6000C4F30721C1F10404E3B20A4144789C4074
:100B7000E1B28478144021430C07210E0E4C057815
:100B80006155047804F01F050124AC4005786D110F
:100B9000AD0005F1E025C5F8004109E0047804F056
:100BA0001F050124AC40054D0678761145F8264016
:100BB00070BD00000CED00E000E400E080E100E02A
:100BC00002490143024A1160704700000000FA0523
:100BD0000CED00E07047000029B1064A126802439C
:100BE000044B1A6004E0034A12688243014B1A6006
:100BF000704700003038024029B1064A12680243AB
:100C0000044B1A6004E0034A12688243014B1A60E5
:100C1000704700004038024029B1064A126802437A
:100C2000044B1A6004E0034A12688243014B1A60C5
:100C30007047000044380240F0B500210022002433
:100C4000022500260223324F3F6807F00C0121B134
:100C5000042905D0082937D105E02E4F076036E07A
:100C60002C4F076033E02A4F3F1F3F68C7F3805681
:100C7000274F3F1F3F6807F03F036EB1254FB7FB7B
:100C8000F3F7DFF88CC0ACF1040CDCF800C0CCF357
:100C9000881C07FB0CF40CE01E4FB7FBF3F7DFF8E2
:100CA00070C0ACF1040CDCF800C0CCF3881C07FB6E
:100CB0000CF4174F3F1F3F68C7F301477F1C7D00AF
:100CC000B4FBF5F7076002E0124F076000BF00BFFA
:100CD0000F4F3F6807F0F00109090F4F7A5C076872
:100CE000D74047600A4F3F6807F4E051890A0A4F2E
:100CF0007A5C4768D7408760054F3F6807F46041DA
:100D0000490B054F7A5C4768D740C760F0BD0000CB
:100D1000083802400024F4007806002021B102883F
:100D200042F04002028004E002884FF6BF731A408E
:100D3000028070470246002013890B400BB101204E
:100D400000E0002070470146888970478181704724
:100D500010B50022028802F441520B884C882343CC
:100D60008C882343CC8823430C8923434C89234319
:100D70008C892343CC8923431A430280838B4FF20F
:100D8000FF74234083830B8A038210BD70470000E9
:100D900030B500228B071C0F0F2303FA04F20B4B14
:100DA0008C1053F824309343084C8D1044F82530B0
:100DB00023468C1053F824308C07240F00FA04F4D7
:100DC0002343024C8D1044F8253030BD08380140D3
:100DD0000448036840685A1C40F1000001490A6059
:100DE00048607047D804002010B51548006840F4EA
:100DF0007000134908601348006840F00100114971
:100E0000086000200F49083108600E4800680E494C
:100E100008400C4908600D48091D0860081F00685B
:100E200020F48020091F0860002006490C3108606A
:100E300000F024FF4FF0006001498039086010BDC8
:100E400088ED00E000380240FFFFF6FE103000247D
:100E500021B1028842F08002028004E002884FF64D
:100E60007F731A400280704721B1028842F001026C
:100E7000028004E002884FF6FE731A400280704739
:100E800070B5002400220023058C4FF6FE76354015
:100E90000584028C8388048B4FF68F752C40B51E19
:100EA0002C400D882C43751E2A408D892A434D887D
:100EB0002A43104DA84202D00F4DA84213D14FF63D
:100EC000F7752A40CD892A434FF6FB752A408D8855
:100ED0002A434FF6FF652B404FF6FF552B400D8AF6
:100EE0002B434D8A2B43838004838D6845630284A2
:100EF00070BD000000000140000401400A460021CE
:100F0000018B4FF6F77319401143018370470000BE
:100F100070B5002400220023058C4FF6EF76354093
:100F20000584028C8388048B48F6FF752C404FF6AD
:100F3000FF452C400D884FF6FF7606EA05252C4329
:100F40004FF6DF752A408D8906EA05152A434D883C
:100F500006EA05152A43154DA84202D0144DA842B1
:100F60001DD14FF67F752A40CD894FF6FF7606EAF0
:100F700005152A434FF6BF752A408D8806EA0515E8
:100F80002A434FF6FF352B404FF2FF752B400D8A59
:100F900006EA85052B434D8A06EA85052B438380A7
:100FA00004838D688563028470BD000000000140E9
:100FB000000401400A460021018B4FF2FF731940E3
:100FC0004FF6FF7303EA02231943018370470000C1
:100FD00070B5002400220023058C4FF6FF663540D3
:100FE0000584028C8388848B4FF68F752C404FF6D6
:100FF000FC752C400D882C434FF6FF552A408D89F7
:101000004FF6FF7606EA05252A434D8806EA0525B0
:101010002A43154DA84202D0144DA8421DD14FF2CB
:10102000FF752A40CD894FF6FF7606EA05252A434B
:101030004FF6FF352A408D8806EA05252A434EF6ED
:10104000FF752B404DF6FF752B400D8A06EA0515FE
:101050002B434D8A06EA05152B43838084838D68D4
:10106000C563028470BD000000000140000401401F
:101070000A460021818B4FF6F77319401143818393
:1010800070474163704781637047C16370470000D8
:1010900000220288184B98420ED0184B98420BD071
:1010A000B0F1804F08D0164B984205D0154B9842AE
:1010B00002D0154B984204D14FF68F731A404B88DB
:1010C0001A43124B984207D0114B984204D04FF666
:1010D000FF431A400B891A4302804B68C3620B8896
:1010E0000385054B984202D0044B984201D18B7A7C
:1010F0000386012383827047000001400004014001
:101100000004004000080040000C004000100040B7
:101110000014004010B540F227712C4800F05FF930
:10112000012803D10021294800F017FA40F2255187
:10113000264800F054F9012847D1244800F008FA65
:10114000C4B223494868804722490968401A0228E6
:1011500010D900202049088001202049087020482B
:101160000078012803D100201D49087002E0012009
:101170001B4908701A48007801280BD116480188CD
:101180000088401C144A10801648445416481749D9
:1011900008600AE0104801880088401C0E4A108050
:1011A000114844540F48114908600B480088B0F5B5
:1011B000007F04D108480088401E07490880044980
:1011C000486880470349086000BF10BD0010014017
:1011D000E0040020C4050020C8050020B005002060
:1011E000CA050020F8090020F80B0020B4050020F3
:1011F00010B50821274800F0E5F810B1254800F0A7
:10120000A7F92021234800F0DDF8012840D121482A
:1012100000F09EF9C4B22049486880471F49096818
:10122000401A022810D900201D4908701D48007876
:10123000012803D100201B49087002E00120194950
:10124000087001201849087016480078012808D154
:10125000134801780078401C114A10701348445418
:1012600007E00F4801780078401C0D4A10701048C4
:10127000445409494868804708490860084800788C
:10128000192804D106480078401E0549087000BF9F
:1012900010BD000000440040E00400206005002074
:1012A00064050020450500204405002004090020B5
:1012B0001D09002070B50821334800F083F810B1F3
:1012C000314800F045F940F227712F4800F087F8C7
:1012D00001281AD12D4802780078401C2B4B187039
:1012E0002B48815C284800F038F9284800784028CD
:1012F0000BD10120274908700020244908700022E2
:1013000040F22771204800F094F840F225511E4821
:1013100000F065F8012835D11B4800F019F9C5B275
:101320001D494868804704461C480068201A022866
:1013300014D900201A4908701A48007801280DD1E4
:1013400000201849087000BF06E017490A5C1049E0
:1013500040310A54411CC8B24028F6DB0F480460F3
:101360000F4801780078401C0D4A10700E48455413
:1013700010460078402804D110460078401E1146DF
:10138000087000BF70BD0000004800403806002013
:10139000FC0E002018060020E00400203406002087
:1013A0003906002019060020BC0E002021B18289D8
:1013B00042F40052828104E082894DF6FF731A40A4
:1013C0008281704702460020B1F5007F00D100BF46
:1013D00013880B400BB1012000E00020704770B56E
:1013E0000246002400230025002040F66A16B14280
:1013F00000D100BFC1F3421501F01F03012606FA18
:1014000003F3012D02D19689334006E0022D02D16B
:10141000168A334001E0968A33400C12012606FA00
:1014200004F41688344013B10CB1012000E0002010
:1014300070BDF0B50346002400260025002040F6CC
:101440006A17B94200D100BF1846C1F3421401F037
:101450001F06012707FA06F5012C01D10C3004E024
:10146000022C01D1103000E014301AB107682F436C
:10147000076002E00768AF430760F0BD2DE9FF4752
:1014800005460E460024A14600BFA046B08900B123
:1014900000BF2C8A24F44054F08804432C82AC8989
:1014A00041F20C608443B088318908437189084354
:1014B0000443AC81AC8A24F44074B0890443AC8208
:1014C0006846FFF7B9FB2048854202D01F48854295
:1014D00002D1DDF80C9001E0DDF80890A88900F455
:1014E000004040B109EBC90000EB09103168490028
:1014F000B0FBF1F707E009EBC90000EB0910316818
:101500008900B0FBF1F76420B7FBF0F0040120097B
:10151000642101FB1078A88900F4004040B132201A
:1015200000EBC800B0FBF1F000F00700044308E056
:10153000322000EB08106421B0FBF1F000F00F0046
:1015400004432C81BDE8FF870010014000140140D6
:1015500001468888C0F308007047C1F30802828002
:10156000704700BFFEE7000010B52DED028B9FED28
:10157000680AB0EE408A6748008800EE100AB8EEAC
:10158000400ADFED650A80EE201AB0EE040A21EE73
:10159000000AF1EE000A20EE200A604880ED010A00
:1015A0005C48408800EE100AB8EE400ADFED5A0AA7
:1015B00080EE201AB0EE040A21EE000AF0EE080ACE
:1015C00020EE200A554880ED040A5248808800EE3B
:1015D000100AB8EE400ADFED500A80EE201AB0EE95
:1015E000040A21EE000AF0EE080A20EE200A4B4819
:1015F00080ED030A4748C08800EE100AB8EE400AA2
:10160000DFED450A80EE201AB0EE040A21EE000A52
:10161000F0EE080A20EE200A404880ED020A3D481C
:10162000008900EE100AF8EE400A9FED3B1A80EEAA
:10163000810AF0EE040A20EE200AF0EE080A20EEFD
:10164000200A364880ED050A35480078032190FBD2
:10165000F1F201FB120020B1012818D0022842D17A
:101660002BE03048416800208847B0EE408ABFEE4A
:10167000000AB4EE408AF1EE10FA07D0274880ED58
:10168000068A27480078401C254908702CE0254828
:10169000416801208847B0EE408ABFEE000AB4EEF0
:1016A000408AF1EE10FA07D01C4880ED078A1C48EA
:1016B0000078401C1A49087016E01A484168022058
:1016C0008847B0EE408ABFEE000AB4EE408AF1EEE1
:1016D00010FA07D0114880ED008A11480078401CAC
:1016E0000F49087000E000BF00BF0F48006900F418
:1016F0000040B0F5004F04D10120084981F82000D6
:1017000003E00020054981F82000BDEC028B10BDEC
:1017100000000000C809002000F07F45D409002027
:101720009C050020A40500200010024010B54FF4D5
:1017300080710248FFF7FEF910BD0000000C024066
:1017400003480078012802D1002001490870704741
:10175000B005002010B504460749086980470749CD
:10176000C868804706488168204688470448C168A1
:101770002046884710BD000048050020CC05002009
:101780003804002010B504460749C8688047074957
:10179000886880470648C1682046884705484168F0
:1017A0002046884710BD0000280500207404002052
:1017B0004C0400203804002010B540F2B6310E4829
:1017C000FFF75FFC40F2B6310B48FFF75CFC40F2DC
:1017D000B6310948FFF759FC40F2B6310748FFF728
:1017E00050FC40F2B6310548FFF74DFC40F2B631EF
:1017F0000248FFF74AFC10BD00040040000800400A
:1018000000B58BB001210220FFF7F6F90121042079
:10181000FFF7E2F94FF4E070099002208DF82800FC
:1018200003208DF8290000208DF82A0001208DF872
:101830002B0009A96E48FFF712F9022206216C4815
:10184000FFF755F9022207216948FFF750F90222F4
:1018500008216748FFF74BF94FF4FA600790654895
:101860000068400800EE100AB8EE400A9FED621AC8
:10187000C0EE010A9FED610A80EE801ABCEEC10A3B
:1018800010EE100A401E80B2ADF818000020ADF82E
:101890002000ADF81A0006A95948FFF7F9FB6020AF
:1018A000ADF804000120ADF806004FF4617003901C
:1018B0000020ADF8100001A95148FFF7E1FA082116
:1018C0004F48FFF71BFB01A94D48FFF721FB0821FB
:1018D0004B48FFF76FFB01A94948FFF779FB082147
:1018E0004748FFF7C5FB01214548FFF7B1FA012141
:1018F0004348FFF7B9FA01210420FFF77DF90121E0
:101900000820FFF769F94FF4E040099002208DF8B4
:10191000280003208DF8290000208DF82A000120DE
:101920008DF82B0009A93748FFF799F802220C21FE
:101930003448FFF7DCF802220D213248FFF7D7F8D0
:1019400002220E212F48FFF7D2F84FF4FA600790D9
:1019500028480068400800EE100AF8EE400A9FEDA3
:10196000261A80EE810ADFED250A80EE201ABCEEF1
:10197000C10A10EE100A401E80B2ADF81800002017
:10198000ADF82000ADF81A0006A91F48FFF780FB4C
:101990006020ADF804000120ADF806004FF461703E
:1019A00003900020ADF8100001A91748FFF768FA6E
:1019B00008211548FFF7A2FA01A91348FFF7A8FA72
:1019C00008211148FFF7F6FA01A90F48FFF700FBBD
:1019D00008210D48FFF74CFB01210B48FFF738FAAF
:1019E00001210948FFF740FA00F010F80BB000BDE4
:1019F00000080240640600200000FA430000FA4498
:101A000000040040000C02400008004010B54FF4F4
:101A100061701249086048608860C8600861486168
:101A200001460F48FFF72DFB4FF461710C48FFF79B
:101A30002AFB4FF461710A48FFF727FB4FF46171ED
:101A40000848FFF71EFB4FF461710648FFF71BFBC8
:101A50004FF461710348FFF718FB10BD0808002020
:101A60000004004000080040002100EE901A0549E3
:101A7000415800EE901AB8EEE01ADFED031A81EE3D
:101A8000210A704700000E080000C84210B5044645
:101A900016484078012803D01448C078012804D1A2
:101AA00013484168642088471AE0104800780128EC
:101AB00000D100E000200F49097809B9012100E0B8
:101AC0000021084048B10A484168002088470A4878
:101AD000C1684FF47A70884702E0054988688047FA
:101AE000024800780349087010BD0000B0040020CF
:101AF000E0050020C4040020E0040020014908683B
:101B000049687047D80400202DE9F047244804684C
:101B100045684FF0E0208669002721480168426847
:101B200084EA010085EA020108431CD11D48002314
:101B3000026830463946FEF7B9FB4FF47A734FF02E
:101B4000000CA4FB032805FB038304FB0C3C134699
:101B5000181A6CEB01014FF47A7C10EB0C0041F188
:101B60000001BDE8F0874FF0E02080690D49096869
:101B7000B0FBF1F000220A4B19685B684FF47A78E9
:101B8000A1FB089A03FB08A301FB02311346B9EB42
:101B9000000261EB030112EB080041F10001E0E7F4
:101BA000D8040020C804002010B5024804F0DEFF6D
:101BB00010BD00007C0E00201CB501210820FFF79D
:101BC0000BF801208DF8040000208DF806008DF838
:101BD00005008DF807004FF48070009069460448B6
:101BE000FEF73DFF4FF480710148FEF7A3FF1CBDD7
:101BF000000C024010B50449096801F1400003F0EF
:101C00006DF9012010BD00001C06002070B50546CE
:101C10000E46134948688047044605F0010060B14C
:101C200010480068844208D90F48406980F00100DC
:101C30000D494861A0190B49086005F0020002280F
:101C40000CD10A480068844208D90748406980F0EE
:101C5000020005494861A0190449086070BD0000F0
:101C6000E00400200C0500200010024010050020B8
:101C7000704700B500F070FB00BD00000CB50020FF
:101C8000019000903448006840F480303249086088
:101C900000BF3148006800F4003000900198401CFB
:101CA0000190009818B90198B0F5A04FF1D12A48D9
:101CB000006800F4003010B10120009001E0002025
:101CC00000900098012846D123484030006840F039
:101CD00080502149403108602048006840F440406D
:101CE0001E4908601C48083000681B49083108601C
:101CF0000846006840F4004008600846006840F468
:101D0000A05008601648091F0860081F006840F0CE
:101D10008070091F086000BF0F48006800F0007065
:101D20000028F9D040F205700E4908600A480830D2
:101D3000006820F003000849083108600846006880
:101D400040F00200086000BF03480830006800F05F
:101D50000C000828F8D10CBD00380240007000408B
:101D600010544007003C024000B50246FFF7C6FE93
:101D7000034600BFFFF7C2FE99188842FAD300BDA0
:101D800070B50446FFF7C0FE054600BFFFF7BCFE76
:101D90002A19801A71F10001F8DB70BD10B5012419
:101DA000FEF73AFEF320FEF791FD02215820FEF7E0
:101DB00093FD3B4890ED0C0ADFED3A0A20EE200A35
:101DC000BDEEC00A10EE101A3748FEF7FDFD0928D7
:101DD00000D00024324890ED0D0ADFED320A20EEEB
:101DE000200ABDEEC00A10EE101A2F48001DFEF7A3
:101DF000EBFD092800D00024294890ED0E0ADFED04
:101E0000290A20EE200ABDEEC00A10EE101A26485C
:101E10000830FEF7D9FD092800D00024204890EDB5
:101E20000F0ADFED200A20EE200ABDEEC00A10EEF8
:101E3000101A1D480C30FEF7C7FD092800D00024F9
:101E4000174890ED100ADFED170A20EE200ABDEECC
:101E5000C00A10EE101A14481030FEF7B5FD09281C
:101E600000D000240E4890ED110ADFED0E0A20EE9E
:101E7000200ABDEEC00A10EE101A0B481430FEF70F
:101E8000A3FD092800D00024642107481830FEF77C
:101E90009BFD092800D00024FEF78CFD204610BDD4
:101EA000A40800200000C84200000E0800B58FB052
:101EB00001218805FEF790FE052004900020009087
:101EC00003900B901048029000200D904FF40050AA
:101ED0000890C0100690801009900C4801900020D6
:101EE0000E904FF400600790002005904FF40030F2
:101EF0000A9069460648FEF7D3FB01210448FEF725
:101F0000C4FB0FB000BD0000C80900204C200140F8
:101F10001064024010B502F069FD02F0E5FA1C48B9
:101F2000407820F080008030194948700846407899
:101F300020F07000403048700846407820F00E00D5
:101F4000001D48700846407820F00100487008469F
:101F5000007820F0E000803008700846007820F01B
:101F6000100008700846007820F008000870084645
:101F7000007820F00600801C08700846007820F0E9
:101F80000100401C0870088800F0C0FE10BD000071
:101F9000A005002010B50D4804F0E8FD7C230022C8
:101FA0003C210A4804F09CFD202301223C210748E3
:101FB00004F096FD802302223C21044804F090FDA9
:101FC0000348C1680A20884710BD0000040E0020A5
:101FD000E004002010B51C4804F0C8FD1B48C1688F
:101FE0003220884780236B22D021174804F078FDE7
:101FF0001648C1680520884700231922D0211248BD
:1020000004F06EFD00236B22D0210F4804F068FD20
:1020100000233722D0210C4804F062FD06231A2247
:10202000D021094804F05CFD18231B22D02106486A
:1020300004F056FD10231C22D021034804F050FD6B
:1020400002F036FE10BD000020080020E004002051
:1020500010B54FF48050064908801E2000F0F0FBB8
:102060004FF480500249891E0880012010BD0000F5
:102070001A04024010B52DED048B86B00446012CE5
:102080007DD1AB49086807F008F941EC190BA94963
:102090009FEDA92B9FEDAA1BB0EE490AF0EE690A4D
:1020A00008688047B0EE408AF0EE608A51EC180B69
:1020B00007F0C4F800909E49486807F0EEF841EC3C
:1020C000190B9C499FED9C2B9FED9D1BB0EE490A7F
:1020D000F0EE690A08688047B0EE408AF0EE608A48
:1020E00051EC180B07F0AAF801909149886807F0A5
:1020F000D4F841EC190B8F499FED8F2B9FED901B6E
:10210000B0EE490AF0EE690A08688047B0EE408AEE
:10211000F0EE608A51EC180B07F090F802908449B9
:10212000C86807F0BAF841EC190B82499FED822B81
:102130009FED831BB0EE490AF0EE690A08688047FC
:10214000B0EE408AF0EE608A51EC180B07F076F89A
:1021500003907749086907F0A0F841EC190B75491D
:102160009FED752B9FED761BB0EE490AF0EE690AE4
:1021700008688047B0EE408AF0EE608A00E01FE019
:1021800051EC180B07F05AF804906949486907F0B8
:1021900084F841EC190B67499FED672B9FED681B95
:1021A000B0EE490AF0EE690A08688047B0EE408A4E
:1021B000F0EE608A51EC180B07F040F805909BE0B8
:1021C0005B49086807F069F841EC190B59499FED24
:1021D0005E2B9FED5B1BB0EE490AF0EE690A0868C2
:1021E0008047B0EE408AF0EE608A51EC180B07F0A1
:1021F00025F800904E49486807F04FF841EC190B5C
:102200004C499FED512B9FED4E1BB0EE490AF0EE6D
:10221000690A08688047B0EE408AF0EE608A51ECA7
:10222000180B07F00BF801904149886807F035F862
:1022300041EC190B3F499FED442B9FED411BB0EE44
:10224000490AF0EE690A08688047B0EE408AF0EE6D
:10225000608A51EC180B06F0F1FF02903449C8680F
:1022600007F01BF841EC190B32499FED372B9FED1E
:10227000341BB0EE490AF0EE690A08688047B0EEF8
:10228000408AF0EE608A51EC180B06F0D7FF0390FD
:102290002749086907F001F841EC190B25499FED22
:1022A0002A2B9FED271BB0EE490AF0EE690A086859
:1022B0008047B0EE408AF0EE608A51EC180B06F0D1
:1022C000BDFF04901A49486906F0E7FF41EC190B7D
:1022D00018499FED1D2B9FED1A1BB0EE490AF0EE39
:1022E000690A08688047B0EE408AF0EE608A51ECD7
:1022F000180B06F0A3FF059015480099FEF7C1FEE4
:1023000013480199FEF7BFFE11480299FEF7BDFE82
:1023100010480399FEF7B5FE0E480499FEF7B3FE88
:102320000C480599FEF7B1FE06B0BDEC048B10BD5C
:1023300008080020A00400200000000000B08D402C
:102340000000000000B09D400000000000208C4014
:10235000000400400008004070B587B034480078A1
:10236000012863D13348007801280AD1002005E014
:102370003149095C0DF80010411CC8B21928F7DB7F
:1023800009E0002005E02D49095C0DF80010411C12
:10239000C8B21928F7DB00202549087000BF3AE0D1
:1023A0000024002316E000EB4002254D05EB8202DD
:1023B00002EB83018A785AB10D786D1C1DF8052057
:1023C0004D78EA408D782A40CD78AA40144300BF6A
:1023D000591CCBB2032BE6DBB4F5AF7F14D9A4F5BF
:1023E000AF7100EE101AF8EE400A9FED161A9FED3D
:1023F000160A00EE810ABCEEC00A10EE101A8AB26C
:10240000124921F8102004E04FF461720F4921F8BD
:102410001020411CC8B20C28C2DB9DF818009DF8A2
:10242000171040EA01200A49088000BF07B070BDBC
:1024300044050020450500201D0900200409002056
:102440008A9D00082FA13D3F000061444E090020F5
:1024500048050020014640F2B630814201DA0020F2
:10246000704740F23A70814201DD0220F8E7012016
:10247000F6E7000002490979024A1170704700002E
:102480004C040020B004002010B50446204603F0A0
:10249000A1FC204603F082FD2046FFF7EBFF20461B
:1024A00002F050F82046FFF7F1FA10BD70B52DED9F
:1024B000068B82B000BF3E498868804704460D46BF
:1024C0003C48007850B9B0230222E8213A4804F091
:1024D00007FB3A4830C0012036490870374903C924
:1024E000221A65EB01004FF47A7300219A1A814198
:1024F0005AD23348006800F40050002854D0022219
:10250000E8212D4804F0B7FAC0B28DF80400032288
:10251000E821294804F0AFFAC0B28DF805009DF813
:1025200005009DF8041000EB012000EE100AB8EE43
:10253000C00ADFED240A80EE201A234880ED001A3D
:1025400000201C4908702048D0ED000AB0EE600A57
:102550001E4804F08DF8B0EE408A1D48D0E9001006
:10256000621A65EB0001104607F0B5FA00EE100A9A
:102570001548D0ED000A70EEC80A80EE801A11EE00
:10258000106A304607F07CFA9FED120B53EC102BCB
:1025900006F080FF06F0D0FB0B494860084680ED4E
:1025A000008A0B4830C000BF02B0BDEC068B70BD86
:1025B000E0040020000600207C0E00200806002019
:1025C0001004024000007A44F0050020880E00202C
:1025D000100600200000000080842E4170B52DED13
:1025E000048B00BF1C498868804704460D461B4980
:1025F00003C9221A65EB0101104606F0C9FE9FEDE2
:10260000180B53EC102B06F045FF41EC180B134A46
:1026100030C2154B5868154B5B6803F11801134B1A
:102620005B68B0EE485AF0EE685A90ED024AD0ED81
:10263000013A90ED003AD1ED022A91ED012AD1ED57
:10264000001A93ED0B1AD3ED0A0A93ED090A02F072
:1026500005FDBDEC048B70BDE00400209804002053
:102660008DEDB5A0F7C6B03ECC05002028050020B2
:102670000146B5EEC00AF1EE10FA05DBF1EEC00A34
:10268000C1ED000A00207047DFED030AC1ED000A2A
:102690004FF0FF30F7E70000000000001CB50121FB
:1026A0000846FEF799FA01210420FEF795FA012168
:1026B0001020FEF791FA01210802FEF7ADFA03207F
:1026C0008DF804000F20009000208DF807000320F3
:1026D0008DF8050069461148FEF7C1F903208DF811
:1026E00004000120009000208DF8070003208DF8E1
:1026F000050069460A48FEF7B2F900208DF804008B
:102700004FF40040009000208DF8070003208DF862
:10271000050069460348FEF7A2F91CBD0008024007
:10272000000002400010024000B52DED060B2DED1B
:10273000068B83B0B0EE618AF0EE428A68469FED68
:10274000360A80ED000A9FED340A80ED010A9FED04
:10275000320A80ED020A00BF9FED300A28EE000A1F
:10276000B0EE408A9FED2D0A28EE800AF0EE408AF6
:10277000B0EE680A06F094F9B0EE409AB0EE480A5E
:1027800006F08EF9F0EE409AB0EE680A06F0D0F945
:10279000B0EE40AAB0EE480A06F0CAF9F0EE40AA40
:1027A0002AEE2A0ADDED0A0A20EE200ADDED090AEA
:1027B00009EEA00A69EE2A0A9DED0B1A00EE810AC5
:1027C0008DED000A9DED0A0A20EE090ADDED0B0AE7
:1027D0000AEE600A8DED010A2AEE290ADDED0A0AE9
:1027E00020EE200ADDED090AB1EE6A1A01EE200A98
:1027F00069EE290A9DED0B1A00EE810A8DED020AA1
:102800009DED000ADDED010A9DED021A03B0BDEC5D
:10281000068B06B000BD00000000000034FA8E3CBC
:1028200010B502F037F801F00FFDFFF711FC034877
:10283000C1686420884702F06FF810BDE0040020F2
:1028400010B5044600BF02210A48FEF773FA0028BB
:10285000F9D021460748FEF779FA00BF0121054863
:10286000FEF768FA0028F9D00248FEF76CFAC0B209
:1028700010BD0000003800402DE9F04F2DED088B11
:1028800089B0CC48007810B101280FD106E003F0E0
:102890009DF9012801D1C749087008E003F0DEF86E
:1028A000012802D10220C349087000E000BF00BF28
:1028B000C0480078022804D009B0BDEC088BBDE800
:1028C000F08F4FF00008C146002425460026374609
:1028D000B94840890102B948D0E90030591A60F17D
:1028E0000000B64AC2E90010B3488089002306CA36
:1028F000A0FB01CA03FB01A100FB0210410241EA57
:10290000DC5000F5FA60C117AD4A03C2AA488088BE
:102910000204A9480089DFF8A4C2DCE9001BA0FB7F
:1029200001CE03FB01E100FB0B104FEADC1141EA91
:102930004061511843EBE010CDE904109E484088F7
:102940004FEAC0329C48C088DFF870C2DCE9001B47
:10295000A0FB01CE03FB01E100FB0B104FEA1C21A1
:1029600041EA0061511843EB2020CDE9061094485C
:10297000D0E900204FF4FA63D21A70F100007DDA3A
:102980008E48D0E90010A1FB012300FB013301FBBD
:102990000030D10F41EA40084FEAE0798848D0E999
:1029A00000104FF4FA6AB1EB0A0260F10001104620
:1029B00006F08AFC41EC1B0B9FED821BB0EE4B0A2C
:1029C000F0EE6B0A05F04AFDB0EE40AAF0EE60AA08
:1029D0009FED7E0B53EC102B51EC1A0B06F05AFDB9
:1029E00007F0FAF8CDE90201DDE9021045104FEADF
:1029F0003104DDE902014FEA900040EA81764FEAB6
:102A0000A1076F48D0E90030724A9A1A70F1FF307E
:102A10003DDA6B4940F2DC5CD1E900B01BEB0C0203
:102A200040F10001104606F04FFC41EC1A0B9FEDFF
:102A3000651BB0EE4A0AF0EE6A0A05F00FFDB0EE33
:102A4000409AF0EE609A51EC190B07F0C5F8CDE909
:102A5000000107234FF0000CDDE90010A1FB032A61
:102A600000FB03A001FB0C00141945410B23DDE919
:102A70000010A1FB032A00FB03A000E008E001FB1B
:102A80000C0040104FEA32029619474100BF00BFC8
:102A90004B48D0E90010B1EB080160EB0900484A4F
:102AA000C2E90010DDE90410091B60EB0502CDE965
:102AB0000412DDE90610891B60EB0702CDE906125E
:102AC000454800680023DDE90612A0FB01CA03FBAC
:102AD00001A100FB02114FEA5C5040EAC12C4815ED
:102AE000DDE90421BCEB020260EB0101D00B40EAFE
:102AF0004140C913324AC2E902011046D0E902201E
:102B0000D21A984100DAD7E69FED340AB0EE408A37
:102B10002B49D1E90221104606F0E0FF00EE100A31
:102B2000DFED2F0A80EE201AF0EE418ADFED2D0A4C
:102B3000B0EE680A05F08CF9F7EE000A30EEC00A34
:102B4000DFED290A20EE200AB0EE408AB0EE480AF6
:102B5000264803F08DFDB0EE408AB0EE480A2448C6
:102B600003F0E0FBB0EE408A154890ED040ADFED7B
:102B7000210A20EE200ADFED200A08EE200A80ED6F
:102B8000040A1E4948688047B0F5FA6F04D20C4821
:102B900090ED040A80ED050A094890ED040AD0ED95
:102BA000050A30EE600A80ED040A00200149087031
:102BB00000BF81E64C060020A00F00204006002048
:102BC000800F002000000000000000400000000016
:102BD0000000144024FAFFFF480600200000000017
:102BE00080E6C547AEDC423E002A2D47F40F0020A8
:102BF000B00F00206666663FCDCCCC3DE0040020DF
:102C000070B50446002502F053FF02F0B7F802F059
:102C1000DDF820202F490880072001F0CDFE064670
:102C20003146272002F046F9FF21E12002F042F967
:102C3000FF21E22002F03EF905222749302002F070
:102C40001BF9052224492A2002F016F9032123202A
:102C500002F030F90121212002F02CF9012122207B
:102C600002F028F906213D2002F024F91D2001F090
:102C7000A3FE38B91C2001F09FFE18B97321502023
:102C800002F018F906213D2002F014F901213C2040
:102C900002F010F9F221242002F00CF93221252053
:102CA00002F008F90E21262002F004F9012C04D1CB
:102CB0000E21202002F0FEF803E00F21202002F078
:102CC000F9F820200349891E08800448047028462A
:102CD00070BD00001A08024068050020720500203F
:102CE00010B503494868804702494868804710BDCD
:102CF00050060020B805002003480078012801D1C3
:102D0000002070470120FCE7190600201FB504468B
:102D1000082010490880201200F01EF80090E0B250
:102D200000F01AF80190201200F016F80290E0B2BC
:102D300000F012F8039008200649891E0880DDE99A
:102D4000021040EA012040EA0140009940EA016097
:102D500004B010BD1A04024010B5044600BF0221A1
:102D60000A48FDF7E7FF0028F9D021460748FDF79C
:102D7000EDFF00BF01210548FDF7DCFF0028F9D079
:102D80000248FDF7E0FFC0B210BD0000003C00406B
:102D900010B52DED028B04469FED4F0AB0EE408A30
:102DA0004E4801780078401C4C4A1070052091FB79
:102DB000F0F200FB121020B1BFEE000ABDEC028B56
:102DC00010BD24B1012C2CD0022C7CD153E04448FE
:102DD0004078C0F3021004280CD04148407820F01D
:102DE000700040303E494870088801F041FEBFEE57
:102DF000000AE3E73A49088801F03AFE00EE100ABB
:102E0000B8EE400A9FED371AC0EE010A9FED360A70
:102E100020EE800ADFED350A20EE200AB0EE408A6F
:102E200056E02F484078C0F3021005280CD02C48FB
:102E3000407820F07000503029494870088801F02F
:102E400017FEBFEE000AB9E72549088801F010FE19
:102E500000EE100AF8EE400A9FED221A80EE810A79
:102E6000DFED210A20EE200ADFED200A20EE200A05
:102E7000B0EE408A2CE01A484078C0F302100628D1
:102E80000CD01748407820F070006030144948702A
:102E9000088801F0EDFDBFEE000A8FE710490888B1
:102EA00001F0E6FD00EE100AB8EE400A9FED0D1AA3
:102EB000C0EE010A9FED0C0A20EE800AF3EE0C0A28
:102EC00020EE200A00E002E0B0EE408A00E000BF01
:102ED00000BFB0EE480A71E700000000AC0500201A
:102EE000A0050020000000476F1203409A99894016
:102EF00030B52DED048B83B0054668469FEDB80ACA
:102F000080ED000A9FEDB60A80ED010A9FEDB40A3C
:102F100080ED020A00BFB34890F8D903012802D11E
:102F2000B04981F8D803AF4890F8D803012811D1EF
:102F3000AC4803F0FDFCAB48503003F0F9FCA94865
:102F4000A03003F0F5FCA849C868804703B0BDEC89
:102F5000048B30BDA34890ED401BB0EE410AF0EE6B
:102F6000610A53EC102B9FEDA11B51EC110B06F0E5
:102F700091FA41EC180B9B4890ED001BB0EE410A12
:102F8000F0EE610A53EC102B9FED9A1B51EC110BE4
:102F900006F080FA41EC190B53EC182B05F0FEFEFD
:102FA000904A03C28F4890ED541BB0EE410AF0EEF8
:102FB000610A53EC102B9FED8D1B51EC110B06F0A9
:102FC00069FA41EC180B874890ED141BB0EE410AEA
:102FD000F0EE610A53EC102B9FED861B51EC110BA8
:102FE00006F058FA41EC190B53EC182B05F0D6FEFD
:102FF0007C4AC2E91401104690ED681BB0EE410A0C
:10300000F0EE610A53EC102B9FED781B51EC110B85
:1030100006F040FA41EC180B724890ED281BB0EE18
:10302000410AF0EE610A53EC102B9FED721B51EC3C
:10303000110B06F02FFA41EC190B53EC182B05F08D
:10304000ADFE684AA03203C2664890F8DA0318B9A8
:103050006A488068848B0BE0624890EDA41BB0EE58
:10306000410AF0EE610A51EC100B06F0E7F8044655
:103070006348006890ED000A10EE101A084606F04A
:10308000FFFC584AC2E902015D48006890ED010A60
:1030900010EE101A084606F0F3FC524AC2E9160177
:1030A0005748006890ED020A10EE101A084606F024
:1030B000E7FC4C4AA032C2E902012946494803F024
:1030C000FBFAB0EE408AF0EE608A51EC180B05F086
:1030D00033FE009029464348503003F0EDFAB0EE3D
:1030E000408AF0EE608A51EC180B05F025FE019045
:1030F00029463C48A03003F0DFFAB0EE408AF0EEFB
:10310000608A51EC180B05F017FE0290002036493A
:10311000096808619DED000ADDED010A30EE600AE4
:10312000DDED020A70EE200A00EE104AB8EEC00A89
:1031300030EE800ABDEEC00A2B48006880ED020A1E
:103140009DED000AB1EE400ADDED010A30EE600AA5
:10315000DDED020A70EE600A00EE104AB8EEC00A19
:1031600030EE800ABDEEC00A1F48006880ED010AFB
:1031700000201D49096848619DED000ADDED010A46
:1031800030EE200ADDED020A70EE600A00EE104A11
:10319000B8EEC00A30EE800ABDEEC00A12480068E0
:1031A00080ED030A9DED000AB1EE400ADDED010A53
:1031B00030EE200ADDED020A70EE200A00EE104A21
:1031C000B8EEC00A30EE800ABDEEC00A06480068BC
:1031D00080ED000A044881680120884700BFB5E6F9
:1031E000000000005800002014050020000000A08E
:1031F0009999B93F000000C0CCCCEC3F48050020B5
:103200007404002070B52DED068B0446ED4890F84F
:10321000D80301280DD1EB48F03003F089FBEA48D0
:1032200003F086FBE848503003F082FBBDEC068BD0
:1032300070BDE44890F8DA0302286FD1E14890EDC0
:103240007C1BB0EE410AF0EE610A53EC102B9FEDAF
:10325000DF1B51EC110B06F01DF941EC180BD9489E
:1032600090ED3C1BB0EE410AF0EE610A53EC102BDE
:103270009FEDD81B51EC110B06F00CF941EC190B2A
:1032800053EC182B05F08AFDCF4A503A03C2CD48C3
:1032900090ED901BB0EE410AF0EE610A53EC102B5A
:1032A0009FEDCA1B51EC110B06F0F4F841EC180B22
:1032B000C44890ED501BB0EE410AF0EE610A53ECA9
:1032C000102B9FEDC41B51EC110B06F0E3F841EC01
:1032D000190B53EC182B05F061FDBA4A02F5A072E8
:1032E00003C2B84890ED641BB0EE410AF0EE610AEB
:1032F00053EC102B9FEDB71B51EC110B06F0CAF8E5
:1033000041EC180B9FEDB50B53EC102B05F046FD6F
:10331000AC4A02F5C87203C291E0FFE7B14989687F
:10332000C98BA1F5AF60B0494A680221904700EE11
:10333000100AB8EEC00A9FEDAD1AC0EE010A9FED6B
:10334000AC0A20EE800AB0EE408AA6498968498B13
:10335000C1F5AF60A4494A680221904700EE100A07
:10336000B8EEC00ADFEDA10A80EE201A9FEDA00A98
:1033700021EE000AF0EE408A9FED9E0A28EE000A38
:1033800010EE101A084606F07BFB41EC190B8D4835
:1033900090ED3C1BB0EE410AF0EE610A53EC102BAD
:1033A0009FED8C1B51EC110B06F074F841EC1A0BDD
:1033B00053EC192B05F0F2FC834A503A03C29FEDFF
:1033C0008D0A28EE800A10EE101A084606F058FB07
:1033D00041EC190B7B4890ED501BB0EE410AF0EE2A
:1033E000610A53EC102B9FED7B1B51EC110B06F087
:1033F00051F841EC1A0B53EC192B05F0CFFC714A34
:1034000002F5A07203C26F4890ED641BB0EE410A52
:10341000F0EE610A53EC102B9FED6E1B51EC110B7B
:1034200006F038F841EC190B9FED6C0B53EC102BA8
:1034300005F0B4FC634A02F5C87203C200BF6E48CF
:103440004068D0ED000AB0EE600A02F03FFC10EEDA
:10345000105A284606F014FB5B4A503AC2E90201B2
:1034600065484068D0ED010AB0EE600A02F02EFC1B
:1034700010EE105A284606F003FB534AC2E9020137
:103480005D48006890ED020A10EE101A084606F03A
:10349000F7FA4D4A5032C2E902012146A2F1A000DA
:1034A00003F00AF92146484803F006F92146464848
:1034B000503003F001F900BF424890ED401BB0EEE0
:1034C000410AF0EE610A9FED4D1B53EC112B51ECBC
:1034D000100B06F0DDF804D29FED480B394880ED63
:1034E000400B384890ED401BB0EE410AF0EE610A07
:1034F0009FED441B53EC112B51EC100B05F08EFF8C
:1035000004D29FED400B2F4880ED400B00BF00BF61
:103510002C4890ED541BB0EE410AF0EE610A9FED8D
:10352000371B53EC112B51EC100B06F0B1F804D201
:103530009FED320B234880ED540B224890ED541B35
:10354000B0EE410AF0EE610A9FED2E1B53EC112BF9
:1035500051EC100B05F062FF04D29FED2A0B1948C5
:1035600080ED540B00BF00BF164890ED681BB0EE15
:10357000410AF0EE610A9FED211B53EC112B51EC37
:10358000100B06F085F804D29FED1C0B0D4880ED62
:10359000680B0C4890ED681BB0EE410AF0EE610A32
:1035A0009FED181B53EC112B51EC100B05F036FF5F
:1035B00004D29FED140B034880ED680B00BF00BFE1
:1035C00034E600005800002098010020000000A010
:1035D0009999B93F000000C0CCCCEC3F000000003E
:1035E0000000000048050020A00400200000FA436D
:1035F000C1B8B23ECDCCCC3D740400200000002008
:10360000FB21E93F00000020FB21E9BF10B588B095
:10361000874803F00EFB3C21854803F085FB844876
:1036200003F032FB0321824803F07EFB804803F065
:103630002BFB7F4803F0FDFA3D217D4803F074FB2E
:103640007B4803F021FB002409E0794803F045FBA7
:1036500006A90855764803F06EFA601CC4B2052C22
:10366000F3DB734803F039FB8DF81D00704803F05D
:10367000C5FA6F4803F09FFA9DF819009DF81810DD
:1036800040EA012000B200EE100AB8EEC00A694814
:10369000406880ED030A9DF81B009DF81A1040EA6F
:1036A000012000B200EE100AB8EEC00A614840687E
:1036B00080ED050A9DF81D009DF81C1040EA0120D0
:1036C00000B200EE100AB8EEC00A5A48406880ED19
:1036D000040A5848406800F10C015648406800F15F
:1036E0000C0291ED021AD1ED010A91ED000A524847
:1036F000144602F068FF84ED000AC4ED010A84ED6F
:10370000021A03A803F076F94A48406890ED030ACC
:1037100048484068D0ED090A30EE600A45484068E4
:10372000D0ED060A80EE201A8DED031A414840685C
:1037300090ED040A3F484068D0ED0A0A30EE600A76
:103740003C484068D0ED070A80EE201A8DED041A3F
:103750003848406890ED050A36484068D0ED0B0ABD
:1037600030EE600A33484068D0ED080A80EE201A37
:103770008DED051A9DED030A20EE000ADDED040A29
:103780009DED041A00EE810ADDED050A9DED051A96
:1037900000EE810A2748406880ED0C0A2548406801
:1037A000D0ED0C0AB7EE001A30EEC10AF0EEC00AF6
:1037B0009FED220AF4EEC00AF1EE10FA05D21D4880
:1037C000406803A90EC90EC016E01D480088401CC1
:1037D0001B4908809FED1B1ADFED1A0A9FED190A9D
:1037E000684603F0FFF813494968D0E90023806870
:1037F000C1E90023886000BF134801880088401C8D
:10380000114A1080642910D10D4800880A2802DD71
:103810000120084908700A48008806494968486339
:103820000020094908800649088008B010BD000042
:10383000040E0020CC050020100E0020CDCC4C3E04
:10384000DC05002000000000DE05002010B500F0BF
:10385000F5FE00F089FF01F027F910BD10B52DED40
:10386000048B0446CA4890F8D803012822D1C948DD
:1038700003F05EF8C748503003F05AF8C548A0304E
:1038800003F056F8C448006890ED030AC04880ED84
:10389000F30AC148006890ED040ABD4880EDF40ABF
:1038A000BD48006890ED050AB94880EDF50ABDEC09
:1038B000048B10BDB64890EDB81BB0EE410AF0EE97
:1038C000610A53EC102B9FEDB51B51EC110B05F069
:1038D000E1FD41EC180BAE4890ED781BB0EE410ACB
:1038E000F0EE610A53EC102B9FEDAE1B51EC110B67
:1038F00005F0D0FD41EC190B53EC182B05F04EFAF6
:10390000A34A02F5F07203C2A14890EDCC1BB0EEC1
:10391000410AF0EE610A53EC102B9FEDA01B51EC15
:10392000110B05F0B7FD41EC180B994890ED8C1B7D
:10393000B0EE410AF0EE610A53EC102B9FED991B9B
:1039400051EC110B05F0A6FD41EC190B53EC182BB3
:1039500005F024FA8E4A02F50C7203C28C4890EDF1
:10396000E01BB0EE410AF0EE610A53EC102B9FED24
:103970008B1B51EC110B05F08DFD41EC180B8448AD
:1039800090EDA01BB0EE410AF0EE610A53EC102B53
:103990009FED841B51EC110B05F07CFD41EC190BE4
:1039A00053EC182B05F0FAF9794A02F5207203C29C
:1039B0007948006890ED030A7548D0EDF30A30EEBF
:1039C000600A10EE101A084606F05AF8714AC2E969
:1039D00002017148006890ED040A6D48D0EDF40AC8
:1039E00030EE600A10EE101A084606F049F8694AEF
:1039F0005032C2E902016848006890ED050A644847
:103A0000D0EDF50A30EE600A10EE101A084606F006
:103A100037F8604AA032C2E9020121465D4802F04F
:103A20004BFE21465B48503002F046FE2146594885
:103A3000A03002F041FE00BF554890ED7C1BB0EE77
:103A4000410AF0EE610A9FED591B53EC112B51EC2A
:103A5000100B05F01DFE04D29FED540B4C4880ED79
:103A60007C0B4B4890ED7C1BB0EE410AF0EE610AF6
:103A70009FED501B53EC112B51EC100B05F0CEFCBD
:103A800004D29FED4C0B424880ED7C0B00BF00BF81
:103A90003F4890ED901BB0EE410AF0EE610A9FEDB9
:103AA000431B53EC112B51EC100B05F0F1FD04D22C
:103AB0009FED3E0B364880ED900B354890ED901B06
:103AC000B0EE410AF0EE610A9FED3A1B53EC112B68
:103AD00051EC100B05F0A2FC04D29FED360B2C48E4
:103AE00080ED900B00BF00BF294890EDA41BB0EE05
:103AF000410AF0EE610A9FED311B53EC112B51ECA2
:103B0000100B05F0C5FD04D29FED2C0B204880ED75
:103B1000A40B1F4890EDA41BB0EE410AF0EE610A21
:103B20009FED281B53EC112B51EC100B05F076FC8C
:103B300004D29FED240B164880EDA40B00BF23494F
:103B40008968888B05F011FC41EC190B20499FED29
:103B5000212B9FED221BB0EE490AF0EE690A08689E
:103B60008047B0EE408AF0EE608A094890EDA41BD1
:103B7000B0EE410AF0EE610A53EC102B51EC180B39
:103B800005F00CF9034AA032C2E9040100BF8EE639
:103B900058000020380200204C040020000000A043
:103BA0009999B93F000000C0CCCCEC3F0000002048
:103BB0001857D63F000000201857D6BF000000005D
:103BC00000C072400000000000C072C04805002024
:103BD000A00400200000000000208C400000000035
:103BE00000E0954070B52DED028B0446FD4890F83D
:103BF000D803012822D1FC4802F09AFEFA4850303E
:103C000002F096FEF848A03002F092FEF7480068F5
:103C100090ED000AF34880EDF00AF448006890ED5A
:103C2000010AF04880EDF10AF048006890ED020AC0
:103C3000EC4880EDF20ABDEC028B70BDE94890F8CB
:103C4000D90300287DD1EA498968C98BA1F5AF6005
:103C5000E8494A680221904700EE100AB8EEC00A0F
:103C6000DFEDE50A80EE201AB6EE000A61EE000AEA
:103C700000EE104AB8EE400A20EE800ADFEDDF0ABF
:103C800080EE201A11EE105A284605F0F9FE41EC9C
:103C9000180BD44890EDB41BB0EE410AF0EE610A67
:103CA00053EC102B51EC180B05F078F8CD4A02F5C7
:103CB000347203C2CE498968498BA1F5AF60CD4902
:103CC0004A680221904700EE100AF8EEC00A9FED04
:103CD000CA1A80EE810AF6EE000A60EE200A00EEB3
:103CE000104AB8EE400A20EE800ADFEDC40A80EEEA
:103CF000201A11EE105A284605F0C2FE41EC180BAE
:103D0000B84890EDC81BB0EE410AF0EE610A53ECE2
:103D1000102B51EC180B05F041F8B24A02F548722D
:103D200003C2B3498968898BA1F5AF60B1494A687C
:103D30000221904700EE100AB8EEC00A9FEDAE1ABD
:103D400000E0ABE0C0EE010AB6EE000A60EE800AC9
:103D500000EE104AB8EE400A20EE800ADFEDA70A16
:103D600080EE201A11EE105A284605F089FE41EC2B
:103D7000180B9C4890EDDC1BB0EE410AF0EE610A96
:103D800053EC102B51EC180B05F008F8954A02F58E
:103D90005C7203C200BF934890EDB41BB0EE410AC1
:103DA000F0EE610A9FED961B53EC112B51EC100BBA
:103DB00005F06EFC04D29FED920B8A4880EDB40BA7
:103DC000884890EDB41BB0EE410AF0EE610A9FED19
:103DD0008E1B53EC112B51EC100B05F01FFB04D282
:103DE0009FED890B7F4880EDB40B00BF00BF7D487D
:103DF00090EDC81BB0EE410AF0EE610A9FED801B0A
:103E000053EC112B51EC100B05F042FC04D29FED4A
:103E10007C0B744880EDC80B724890EDC81BB0EE67
:103E2000410AF0EE610A9FED781B53EC112B51EC27
:103E3000100B05F0F3FA04D29FED730B694880ED87
:103E4000C80B00BF00BF674890EDDC1BB0EE410A15
:103E5000F0EE610A9FED6E1B53EC112B51EC100B31
:103E600005F016FC04D29FED6A0B5E4880EDDC0B7A
:103E70005C4890EDDC1BB0EE410AF0EE610A9FED6C
:103E8000661B53EC112B51EC100B05F0C7FA04D252
:103E90009FED610B534880EDDC0B00BF5348006879
:103EA00090ED000A4F48D0EDF00A30EE600A10EEB7
:103EB000101A084605F0E4FD4B4AC2E902014B48DE
:103EC000006890ED010A4748D0EDF10A30EE600A33
:103ED00010EE101A084605F0D3FD434A5032C2E9ED
:103EE00002014248006890ED020A3E48D0EDF20A15
:103EF00030EE600A10EE101A084605F0C1FD3A4A8D
:103F0000A032C2E902012146374802F0D5FB214622
:103F10003548503002F0D0FB21463348A03002F043
:103F2000CBFB00BF2F4890EDB81BB0EE410AF0EE7E
:103F3000610A9FED3B1B53EC112B51EC100B05F06C
:103F4000A7FB04D29FED360B264880EDB80B254821
:103F500090EDB81BB0EE410AF0EE610A9FED321B06
:103F600053EC112B51EC100B05F058FA04D29FEDD5
:103F70002E0B1C4880EDB80B00BF00BF194890ED18
:103F8000CC1BB0EE410AF0EE610A9FED251B53EC0D
:103F9000112B51EC100B05F07BFB04D29FED200B95
:103FA000104880EDCC0B0F4890EDCC1BB0EE410AD1
:103FB000F0EE610A9FED1C1B53EC112B51EC100B22
:103FC00005F02CFA04D29FED180B064880EDCC0BBF
:103FD00000BF00BF034890EDE01BB0EE410AF0EED9
:103FE000610A25E058000020280300204C0400202E
:103FF00048050020A00400200000FA4300007A4495
:10400000000000000000244000000000000024C068
:104010000000000000000040000000000000000060
:10402000000000000000E03F000000000000E0BFD2
:104030001FED051B53EC112B51EC100B05F028FB69
:1040400004D21FED090B0D4880EDE00B0B4890EDFD
:10405000E01BB0EE410AF0EE610A1FED0D1B53ECC0
:10406000112B51EC100B05F0D9F904D21FED120BF6
:10407000024880EDE00B00BF00BFDCE558000020E7
:1040800010B588B0044601210846FCF7A5FD0121C2
:104090001020FCF7C1FD072209212648FCF727FD67
:1040A00007220A212348FCF722FD02208DF81C007C
:1040B00003208DF81D0000208DF81E0001208DF8D2
:1040C0001F004002069006A91A48FCF7C8FC4FF4EE
:1040D0008060069006A91748FCF7C1FC25208DF8E2
:1040E000040000208DF8050003208DF80600012053
:1040F0008DF8070001A8FCF727FD02940020ADF819
:104100000C00ADF80E00ADF81000ADF814000C2056
:10411000ADF8120002A90848FDF7B0F9012240F2FB
:1041200025510548FDF785F901210348FDF73EF9C2
:1041300008B010BD000002400010014010B5064854
:10414000007838B9012240F227710448FDF771F96F
:10415000012010BD0020FCE71806002000480040A8
:1041600070B52DED068B0446B0EE408A00EE104A85
:10417000B8EE400ADFED2C0A80EE201A11EE105A3C
:10418000284605F07DFC41EC1A0BB0EE4A1AF0EE21
:104190006A1ADFED260AB0EE480A254802F04AF90D
:1041A000F0EE408A23494868804700EE100AB8EED6
:1041B000400AB0EE409A9FED200AB4EEC09AF1EEAC
:1041C00010FA22DD1A4890ED000AF7EE000AB4EE6C
:1041D000600AF1EE10FA14D190ED020AF2EE040A30
:1041E00020EE200A80ED020A90ED000AF2EE040AA9
:1041F00080EE201A80ED001A90ED020A0F4880ED43
:10420000000A01200E49087102E000200C490871E3
:104210000A4890ED000A38EEC00A0A4880ED000A0C
:10422000BDEC068B70BD000000007A440000000069
:1042300018070020E004002000401C46680400200D
:104240004C0400206404002000B585B001218803DF
:10425000FCF7D2FC0020ADF800004FF48270ADF8FE
:1042600002000020ADF80400ADF80600ADF808002B
:104270004FF40070ADF80A001020ADF80C000020DB
:10428000ADF80E000720ADF8100069460448FCF7B1
:104290005FFD01210248FCF741FD05B000BD0000B3
:1042A0000038004010B5044600BF02210A48FCF760
:1042B00041FD0028F9D021460748FCF747FD00BF23
:1042C00001210548FCF736FD0028F9D00248FCF72B
:1042D0003AFDC0B210BD00000030014030B587B0DB
:1042E000044604A802F086FB01A802F083FB434ABF
:1042F000526892ED000AB0EE402A404A526892EDB0
:10430000010AF0EE401A3E4A526802F118003D4A96
:10431000916890ED021AD0ED010A90ED000A8847ED
:104320008DED040ACDED050A8DED061A9DED060A08
:10433000DFED350A30EE600A8DED060A9DED060AC6
:10434000DFED310A80EE201A8DED061A9DED060A8A
:10435000DFED2E0A20EE200A8DED060ADDED060ABD
:10436000B0EE600A2046FFF7FBFEDDED060AB0EE78
:10437000600A204601F032FBDDED060AB0EE600A6D
:10438000204600F0C9FD054685B9214890ED020A96
:104390002048D0ED000A204890ED001A70EEC10AC6
:1043A00030EE200A1A4880ED020A05E01B4890ED25
:1043B000000A174880ED020A194890ED000A1448D7
:1043C00080ED050A134890ED000A134880ED000ABD
:1043D0000F4890ED020ADFED130A20EE200A124882
:1043E00080ED000A0A4890ED050ADFED0E0A20EE86
:1043F000200A0D4880ED010A07B030BD740400208A
:1044000028050020A004002000F07F45CDCC1C41F1
:10441000000700205C0400206C04002060040020E1
:10442000640400200000C842E806002010B588B0EF
:10443000044601210220FCF7CFFB01218804FCF790
:10444000DBFB07220A212648FCF751FB07220B2140
:104450002348FCF74CFB02208DF81C0003208DF84C
:104460001D0000208DF81E0001208DF81F00800225
:10447000069006A91A48FCF7F2FA4FF4006006907D
:1044800006A91748FCF7EBFA27208DF80400002056
:104490008DF8050001208DF806008DF8070001A8B1
:1044A000FCF752FB02940020ADF80C00ADF80E00B2
:1044B000ADF81000ADF814000C20ADF8120002A900
:1044C0000848FCF7DBFF012240F225510548FCF7C4
:1044D000B0FF01210348FCF769FF08B010BD0000E0
:1044E000000402400048004000B585B00121C80327
:1044F000FCF782FB0020ADF800004FF48270ADF8AD
:1045000002000020ADF80400ADF806000120ADF86F
:1045100008004002ADF80A001820ADF80C00002099
:10452000ADF80E000720ADF8100069460448FCF70E
:104530000FFC01210248FCF7F1FB05B000BD0000B3
:10454000003C004070B504463748006890F8D80336
:10455000012848D10020354908803348006890F888
:10456000D903012800D170BD3148007800B9FAE7BD
:104570002F48C078012800D1F5E72D484078012860
:1045800000D1F0E72A488078012800D1EBE7294ADA
:104590009268908B274A5169884708B9012500E045
:1045A0000025244A9268108B224A516988470228C4
:1045B00001D1012000E00020054085B11E4800889F
:1045C00020441D4908800846008840F6B8318842DA
:1045D00027DD00201449096881F8D80321E0002074
:1045E000154908801DE000201349088011488068A3
:1045F000808B40F28E31884205DA0C4800882044D6
:104600000A49088002E0002008490880074800881D
:1046100040F6B831884204DD01200349096881F879
:10462000D80300BF9FE7000038040020C00400202A
:10463000B004002048050020C20400201FB53C2221
:10464000D021464802F017FAC0B28DF808003B228C
:10465000D021424802F00FFAC0B28DF809009DF84F
:1046600008009DF8091040EA012000B2ADF80000F2
:104670003E22D021394802F0FEF9C0B28DF80A007E
:104680003D22D021354802F0F6F9C0B28DF80B007A
:104690009DF80A009DF80B1040EA012000B2ADF829
:1046A00002004022D0212D4802F0E5F9C0B28DF879
:1046B0000C003F22D021294802F0DDF9C0B28DF86C
:1046C0000D009DF80C009DF80D1040EA012000B28D
:1046D000ADF80400BDF9000000EE100AB8EEC00A03
:1046E0001F4880ED000ABDF9020000EE100AB8EE86
:1046F000C00A1B4880ED010ABDF9040000EE100A53
:10470000B8EEC00A164880ED020A90ED000AD0ED1E
:104710000C0A30EE600A80ED060A90ED010AD0ED39
:104720000D0A30EE600A80ED070A90ED020AD0ED26
:104730000E0A30EE600A80ED080A90ED081AD0EDFE
:10474000070A90ED060A074801F066FD044880ED6F
:10475000060AC0ED070A80ED081A1FBD20080020D8
:10476000A40800202C0800201FB54422D021464870
:1047700002F081F9C0B28DF808004322D0214248EE
:1047800002F079F9C0B28DF809009DF808009DF893
:10479000091040EA012000B2ADF800004622D02105
:1047A000394802F068F9C0B28DF80A004522D021DC
:1047B000354802F060F9C0B28DF80B009DF80A0090
:1047C0009DF80B1040EA012000B2ADF8020048222B
:1047D000D0212D4802F04FF9C0B28DF80C004722CD
:1047E000D021294802F047F9C0B28DF80D009DF89C
:1047F0000C009DF80D1040EA012000B2ADF8040055
:10480000BDF9000000EE100AB8EEC00A1F4880EDA6
:10481000030ABDF9020000EE100AB8EEC00A1B48F8
:1048200080ED040ABDF9040000EE100AB8EEC00ADB
:10483000164880ED050A90ED030AD0ED0F0A30EE20
:10484000600A80ED090A90ED040AD0ED100A30EEFE
:10485000600A80ED0A0A90ED050AD0ED110A30EEEB
:10486000600A80ED0B0A90ED0B1AD0ED0A0A90ED6C
:10487000090A074801F0A7FE044880ED090AC0EDC7
:104880000A0A80ED0B1A1FBD20080020A408002092
:10489000700800201CB501210220FCF79DF90120C1
:1048A0008DF8040000208DF8060003208DF8050027
:1048B00001208DF807000003009069461548FCF7B9
:1048C000CEF84FF4805013491831088002208DF83B
:1048D00004004FF46040009000208DF80600012095
:1048E0008DF8070003208DF8050069460948FCF79C
:1048F000B6F805220D210748FCF7F9F805220E212C
:104900000448FCF7F4F805220F210248FCF7EFF801
:104910001CBD00000004024070B500241DE04FF4EF
:1049200080500F490880A02101EB4401C8B2FDF777
:1049300087FF0020FDF784FF06460020FDF780FF7B
:10494000054645EA0620074921F814004FF4805037
:104950000349891E0880601CC4B2062CDFDD70BDCF
:104960001A040240A00F00200348007808B9012073
:1049700070470020FCE70000750500202DE9F0419C
:1049800007460D46164610200A4948833846FFF769
:1049900089FC8046002405E0FF20FFF783FC2855B2
:1049A000601CC4B2B442F7DB1020024908834046C1
:1049B000BDE8F0810000024070B5044610200749B0
:1049C00048832046FFF76EFCFF20FFF76BFC05468F
:1049D000102002490883284670BD000000000240F4
:1049E0000120014908707047190600201CB50121FB
:1049F0000620FCF7F1F801208DF8040000208DF866
:104A0000060003208DF8050001208DF8070008201E
:104A1000009069461448FCF722F808201249183122
:104A2000088002208DF804004FF4E0500090002030
:104A30008DF8060001208DF8070003208DF8050091
:104A400069460A48FCF70BF806220A210748FCF7DA
:104A50004EF806220B210548FCF749F806220C21E6
:104A60000248FCF744F81CBD000402400008024064
:104A70001CB5044608200B4908802012FEF76CF98B
:104A8000ADF80000E0B2FEF767F9ADF802000820CB
:104A90000449891E0880BDF80200BDF8001040EAF4
:104AA00001201CBD1A04024010B57748007800F0C0
:104AB000010048B9744802F0E6F928B1734801F0E2
:104AC00099FF7148AFF300807148007800F0010051
:104AD00048B96F4802F0D7F928B16E4801F08AFF53
:104AE0006B48AFF300806C480078012868D16B48B0
:104AF0000068E0B99FED6A0A6A4880ED0C0A9FEDF4
:104B0000680A80ED0D0A9FED660A80ED0E0A9FEDA2
:104B1000640A80ED0F0A9FED620A80ED100A9FED96
:104B2000600A80ED110A01205C49086010BD5B48F5
:104B3000006840F6B831884243DC58480068401CA1
:104B400056490860514890ED000A5648D0ED000AD9
:104B500030EE200A4D4880ED000A90ED010A5148E0
:104B6000D0ED010A30EE200A484880ED010A90EDB0
:104B7000020A4C48D0ED020A30EE200A434880ED8C
:104B8000020A444890ED000A4648D0ED030A30EE90
:104B9000200A404880ED000A90ED010A4148D0ED1E
:104BA000040A30EE200A3B4880ED010A90ED020A2B
:104BB0003C48D0ED050A30EE200A364880ED020A66
:104BC00060E0002035490860334908702F4890EDB7
:104BD000000ADFED350A80EE201A324880ED0C1A0B
:104BE0002A4890ED010ADFED300A80EE201A2D48A8
:104BF00080ED0D1A254890ED020ADFED2B0A80EEBC
:104C0000201A9FED2A0A31EE400A264880ED0E0A4E
:104C1000204890ED000ADFED240A80EE201A21489A
:104C200080ED0F1A1B4890ED010ADFED1F0A80EEA0
:104C3000201A1C4880ED101A164890ED020ADFED8C
:104C40001A0A80EE201A174880ED111A9FED140AF7
:104C50000E4880ED000A9FED120A80ED010A9FEDDB
:104C6000100A80ED020A9FED0E0A0A4880ED000A44
:104C70009FED0B0A80ED010A9FED090A80ED020A03
:104C800000F052F800BF51E73C050020EC0800207E
:104C900038050020F80800202805002040050020E5
:104CA00000000000A408002000803B4500F07F4584
:104CB00000B51820FCF7D8FEBCEEC00A10EE100AB2
:104CC0001749487008464078012824D10020FCF795
:104CD000CBFE144880ED0C0A0420FCF7C5FE1148F9
:104CE00080ED0D0A0820FCF7BFFE0E4880ED0E0A8D
:104CF0000C20FCF7B9FE0B4880ED0F0A1020FCF7E2
:104D0000B3FE084880ED100A1420FCF7ADFE0548FC
:104D100080ED110A02E001200149087000BD000089
:104D200028050020A408002010B5FDF737F810B9B9
:104D300002200149887010BD2805002070B54FF48D
:104D400080500D4908800020FDF77AFD0020FDF716
:104D500077FD04460020FDF773FD05460020FDF7B2
:104D60006FFD06464FF480500349891E08802004D9
:104D700000EB0520304470BD1A0402400EB501213D
:104D80008803FBF749FF04210220FCF701F81020FB
:104D9000019000208DF808000C208DF809000120FA
:104DA0008DF80A0001A8FBF747FD0A208DF80000E6
:104DB00000208DF801000F208DF8020001208DF8F1
:104DC00003006846FBF7C0FE0EBD000000B585B0CD
:104DD00001210803FBF720FF0020ADF800004FF48D
:104DE0008270ADF802000020ADF80400ADF80600B6
:104DF000ADF808004FF40070ADF80A001020ADF8CF
:104E00000C000020ADF80E000720ADF81000694638
:104E10000448FBF79DFF01210248FBF77FFF05B027
:104E200000BD00000030014010B50E480078012898
:104E300013D10D480078012812D120200B49088099
:104E400020220B49A02000F017F820200749891ED6
:104E5000088000200449087002E00020054908701D
:104E600010BD000072050020740500201A080240E1
:104E700066090020730500202DE9F04107460D4624
:104E8000164610200A4948833846FFF70BFA804639
:104E9000002404E0285DFFF705FA601CC4B2B442A8
:104EA000F8DB1020024908834046BDE8F08100008D
:104EB0000000024070B505460C46102006494883A4
:104EC0002846FFF7EFF906462046FFF7EBF91020DA
:104ED00001490883304670BD0000024070B50546A8
:104EE0002C460A490869804760B92078472809D1CB
:104EF0006078502806D1A078532803D1044801686F
:104F00000448884701494869804770BD1C06002055
:104F1000600600201700002070B52DED0A8B0446B6
:104F2000F0EE408A9FED400AB0EE408A9FED3E0AC7
:104F3000B0EE409A3D4890ED000AB0EE409A90EDF8
:104F4000010AB0EE408A00EE104AB8EE400ADFEDEA
:104F5000380A80EE201A11EE105A284604F090FD0F
:104F600041EC1A0BB0EE4A1AF0EE6A1AF0EE480A5B
:104F7000B0EE680A2F4801F05DFAB0EE408A2E4884
:104F800090ED000AF0EEC00A9FED2C0A30EE800A88
:104F900010EE105A284604F073FD41EC1C0B284912
:104FA0009FED282B9FED291BB0EE4C0AF0EE6C0A0A
:104FB00008688047B0EE40AAF0EE60AA1E48D0ED27
:104FC000000A30EEC80AF0EEC00A10EE905A2846E9
:104FD00004F056FD41EC1B0B53EC1A2B04F058FB6C
:104FE00003D20020BDEC0A8B70BD00EE104AB8EE73
:104FF000400ADFED0F0A80EE201A11EE105A284603
:1050000004F03EFD41EC1A0BB0EE4A1AF0EE6A1ABB
:10501000F0EE490AB0EE480A0E4801F00BFA0E48CD
:1050200080ED000A0120DDE700000000F00500200F
:1050300000007A442807002064040020CDCC4C3EB8
:10504000A00400200000000000000000000000009C
:105050000000F03F380700206004002010B52DED5F
:105060000C0BB0B09FEDFE0B53EC102B9DED3A0BEB
:1050700051EC100B03F04EFFCDE92C013398139047
:1050800004F0FEFCCDE918013498139004F0F8FC0C
:10509000CDE916013598139004F0F2FCCDE9140126
:1050A0009DED300ADFEDF00A20EE200A8DED120AA8
:1050B0009DED120A00F00AFE8DED130A139804F01C
:1050C000DFFCCDE91E019DED310ADFEDE70A20EEA0
:1050D000200A8DED120A9DED120A00F0F7FD8DED0C
:1050E000130A139804F0CCFCCDE91C01DDED320A63
:1050F0009FEDDD0A20EE800A8DED120A9DED120A69
:1051000000F0E4FD8DED130A139804F0B9FCCDE92D
:105110001A019DED1E0B51EC100B03F00DFED3494F
:10512000096808609DED1C0B51EC100B03F004FEA8
:10513000CE49096848609DED1A0B51EC100B03F045
:10514000FBFDCA49096888609DED140B53EC102BD8
:105150009DED140B51EC100B04F09CF9CDE90E0100
:105160009DED160B53EC102B9DED160B51EC100B17
:1051700004F090F9CDE90A019DED180B53EC102BCA
:105180009DED180B51EC100B04F084F9CDE90801EA
:105190009DED0A0B53EC102B9DED080B51EC100B01
:1051A00003F0FCFDCDE90C019DED0E0B53EC102B33
:1051B0009DED0C0B51EC100B03F0F0FDCDE910014F
:1051C0009DED100B51EC100B03F0B6FD13902FA8C2
:1051D0009DED130AFDF74CFA9DED2F0AB5EEC00ABE
:1051E000F1EE10FA01D13CB010BD2F9804F048FC4C
:1051F000CDE912019DED120B53EC102B9DED180B18
:1052000051EC100B03F086FECDE918012F9804F045
:1052100037FCCDE912019DED120B53EC102B9DEDE7
:10522000160B51EC100B03F075FECDE916012F980B
:1052300004F026FCCDE912019DED120B53EC102B6E
:105240009DED140B51EC100B03F064FECDE914013D
:10525000874890ED010AD0ED030A20EE200AD0ED38
:10526000000A90ED021A00EEC10AF0EE000A20EEEC
:10527000200A8DED130A139804F002FCCDE92A01EF
:105280007B4890ED000AD0ED010A20EE200AD0ED17
:10529000020A90ED031A00EE810AF0EE000A20EEF9
:1052A000200A8DED130A139804F0EAFBCDE92801DA
:1052B0006F4890ED010A60EE000A90ED020A90ED51
:1052C000021A40EE010AB7EE000AB0EE001A01EE33
:1052D000600A8DED130A139804F0D2FBCDE9260184
:1052E0009DED280B53EC102B9DED140B51EC100B86
:1052F00004F0D0F8CDE912019DED260B53EC102BF4
:105300009DED160B51EC100B04F0C4F8CDE9100123
:105310009DED120B53EC102B9DED100B51EC100B6F
:1053200004F0C4FACDE924019DED260B53EC102BBB
:105330009DED180B51EC100B04F0ACF8CDE9120107
:105340009DED2A0B53EC102B9DED140B51EC100B23
:1053500004F0A0F8CDE910019DED120B53EC102BD9
:105360009DED100B51EC100B04F0A0FACDE92201D9
:105370009DED2A0B53EC102B9DED160B51EC100BF1
:1053800004F088F8CDE912019DED280B53EC102BA9
:105390009DED180B51EC100B04F07CF8CDE91001D9
:1053A0009DED120B53EC102B9DED100B51EC100BDF
:1053B00004F07CFACDE920019DED240B53EC102B79
:1053C0009FED2C0B51EC100B04F064F8CDE91201A9
:1053D0009DED1E0B53EC102B9DED120B51EC100BA1
:1053E00003F0DCFCCDE91E019DED220B53EC102BEC
:1053F0009FED200B51EC100B04F04CF8CDE912019D
:105400009DED1C0B53EC102B9DED120B51EC100B72
:1054100003F0C4FCCDE91C019DED200B53EC102BD7
:105420009FED140B51EC100B04F034F8CDE9120190
:105430009DED1A0B53EC102B9DED120B51EC100B44
:1054400003F0ACFCCDE91A010948C068059004F0EE
:1054500017FBCDE906019DED1A0B53EC102B0DE067
:1054600000000000000000408DC1793D7404002060
:10547000E0070020000000000000F03F9DED060B5B
:1054800051EC100B04F006F8CDE90A01FB488068E6
:10549000019004F0F5FACDE902019DED1C0B53ECEF
:1054A000102B9DED020B51EC100B03F0F3FFCDE937
:1054B0000601F24890ED010AB1EE400A8DED010AB5
:1054C000019804F0DDFACDE902019DED1E0B53ECCD
:1054D000102B9DED020B51EC100B03F0DBFFCDE91F
:1054E00004019DED060B53EC102B9DED040B51ECCC
:1054F000100B04F0DBF9CDE908019DED0A0B53EC2C
:10550000102B9DED080B51EC100B04F0CFF9CDE9F9
:105510000C019DED2C0B53EC102B9DED0C0B51EC65
:10552000100B03F0B7FFCDE91001D44800680D90CF
:1055300004F0A6FACDE90E019DED100B53EC102BF3
:105540009DED0E0B51EC100B03F028FCCDE9120180
:105550009DED120B51EC100B03F0EEFBC7490860F8
:105560000846C068059004F08BFACDE906019DED70
:105570001C0B53EC102B9DED060B51EC100B03F0A4
:1055800089FFCDE90A01BD488068019004F078FAEE
:10559000CDE902019DED1A0B53EC102B9DED020B92
:1055A00051EC100B03F076FFCDE90601B34800681B
:1055B000019004F065FACDE902019DED1E0B53EC5C
:1055C000102B9DED020B51EC100B03F063FFCDE9A6
:1055D00004019DED060B53EC102B9DED040B51ECDB
:1055E000100B03F0DBFBCDE908019DED0A0B53EC3A
:1055F000102B9DED080B51EC100B04F057F9CDE981
:105600000C019DED2C0B53EC102B9DED0C0B51EC74
:10561000100B03F03FFFCDE91001984840680D9052
:1056200004F02EFACDE90E019DED100B53EC102B7A
:105630009DED0E0B51EC100B03F0B0FBCDE9120108
:105640009DED120B51EC100B03F076FB8B4948607B
:105650000846C068059004F013FACDE906019DEDF7
:105660001E0B53EC102B9DED060B51EC100B03F0B1
:1056700011FFCDE90A0181484068019004F000FA69
:10568000CDE902019DED1A0B53EC102B9DED020BA1
:1056900051EC100B03F0FEFECDE9060177480068DF
:1056A000019004F0EDF9CDE902019DED1C0B53ECE6
:1056B000102B9DED020B51EC100B03F0EBFECDE92E
:1056C00004019DED060B53EC102B9DED040B51ECEA
:1056D000100B04F0EBF8CDE908019DED0A0B53EC3B
:1056E000102B9DED080B51EC100B03F057FBCDE98F
:1056F0000C019DED2C0B53EC102B9DED0C0B51EC84
:10570000100B03F0C7FECDE910015C4880680D90D6
:1057100004F0B6F9CDE90E019DED100B53EC102B02
:105720009DED0E0B51EC100B03F038FBCDE912018F
:105730009DED120B51EC100B03F0FEFA4F498860FF
:1057400008468068059004F09BF9CDE906019DEDBF
:105750001E0B53EC102B9DED060B51EC100B03F0C0
:1057600099FECDE90A0145484068019004F088F9A6
:10577000CDE902019DED1C0B53EC102B9DED020BAE
:1057800051EC100B03F086FECDE906013B480068A2
:10579000019004F075F9CDE902019DED1A0B53EC6F
:1057A000102B9DED020B51EC100B03F073FECDE9B5
:1057B00004019DED060B53EC102B9DED040B51ECF9
:1057C000100B03F0EBFACDE908019DED0A0B53EC49
:1057D000102B9DED080B51EC100B04F067F8CDE990
:1057E0000C019DED2C0B53EC102B9DED0C0B51EC93
:1057F000100B03F04FFECDE910012048C0680D905A
:1058000004F03EF9CDE90E019DED100B53EC102B89
:105810009DED0E0B51EC100B03F0C0FACDE9120117
:105820009DED120B51EC100B03F086FA1349C86082
:10583000084690ED000A20EE000AD0ED010A90ED36
:10584000011A00EE810AD0ED020A90ED021A00EE74
:10585000810AD0ED030A90ED031A00EE810A8DED66
:10586000130A2FA89DED130AFCF702FF9DED2F0AE6
:10587000B5EEC00AF1EE10FA02D1B4E4E007002060
:10588000544890ED000ADDED2F0A80EE201A80EDDD
:10589000001A90ED010ADDED2F0A80EE201A80ED4E
:1058A000011A90ED020ADDED2F0A80EE201A80ED3C
:1058B000021A90ED030ADDED2F0A80EE201A80ED2A
:1058C000031A90ED010A60EE000A90ED020A90EDD5
:1058D000021A40EE010AB7EE000AB0EE001A01EE1D
:1058E000600A8DED120AD0ED000A90ED010A20EE5B
:1058F000800AD0ED020A90ED031A00EE810AF0EE64
:10590000000A20EE200A8DED110ADDED120A9DED50
:10591000110A01F057FB8DED130A9DED130A00F0FB
:10592000AFF92D4880ED000A2A4890ED000AD0ED2D
:10593000020A20EE200AD0ED010A90ED031A00EED3
:10594000C10AF0EE000A20EE200A8DED120A9DED4C
:10595000120A00F0F5FB8DED130A9DED130A00F01D
:105960008FF91D4880ED010A1A4890ED000A60EE9B
:10597000000A90ED010A90ED011A40EE010AB7EE1F
:10598000000AB0EE001A11EE200A8DED120AD0EDD9
:10599000010A90ED020A20EE800AD0ED000A90ED97
:1059A000031A00EEC10AF0EE000A20EE200A8DED87
:1059B000110ADDED120A9DED110A01F003FB8DEDD8
:1059C000130A9DED130A00F05BF9034880ED020A0B
:1059D00000BF08E4E0070020F007002070B52DEDBF
:1059E000048B0446F0EE408A9FED160AB0EE408A22
:1059F0001548006890ED040AB0EE408A00EE104AA7
:105A0000B8EE400ADFED110A80EE201A11EE105AAE
:105A1000284604F035F841EC190BB0EE491AF0EEC7
:105A2000691AF0EE480A0A4890ED000A094800F0A9
:105A300001FDB0EE408A084880ED008ABDEC048B81
:105A400070BD0000000000005006002000007A44F5
:105A500064040020480700205C04002010B51248B0
:105A6000007878B910480078012803D100200E4949
:105A7000087002E001200C490870482000F078F816
:105A8000002010BD08480078012803D100200649F5
:105A9000087002E0012004490870FFF74FF903493C
:105AA00008600120EDE700005D06002048060020A8
:105AB0001CB501210520FBF78FF801208DF80400AB
:105AC00000208DF8060003208DF8050001208DF8D8
:105AD00007002020009069462348FAF7C0FF012004
