:020000040800F2
:10000000E81500206D020008E10A0008D90A00087E
:10001000DD0A000823060008FF14000800000000A5
:10002000000000000000000000000000290D000892
:100030009506000800000000710B00086D0D000817
:10004000870200088702000887020008870200086C
:10005000870200088702000887020008870200085C
:100060008702000887020008990600088702000836
:10007000870200088702000887020008870200083C
:10008000870200088702000887020008870200082C
:10009000870200088702000887020008870200081C
:1000A000870200088702000887020008870200080C
:1000B00087020008870200088702000887020008FC
:1000C00087020008870200088702000887020008EC
:1000D00087020008B11000088D11000851120008B5
:1000E00087020008870200088702000887020008CC
:1000F00087020008870200088702000887020008BC
:1001000087020008870200088702000887020008AB
:10011000870200088702000887020008870200089B
:10012000870200088702000887020008870200088B
:10013000870200088702000887020008870200087B
:10014000870200088702000887020008870200086B
:10015000870200088702000887020008870200085B
:10016000870200088702000887020008870200084B
:10017000870200088702000887020008870200083B
:10018000870200088702000800F002F800F05EF81D
:100190000AA090E8000C82448344AAF10107DA45E2
:1001A00001D100F053F8AFF2090EBAE80F0013F0D6
:1001B000010F18BFFB1A43F00103184754CA00008F
:1001C00074CA00000A444FF0000C10F8013B13F011
:1001D000070408BF10F8014B1D1108BF10F8015BA0
:1001E000641E05D010F8016B641E01F8016BF9D193
:1001F00013F0080F1EBF10F8014BAD1C0C1B09D1EA
:100200006D1E58BF01F801CBFAD505E014F8016B5B
:1002100001F8016B6D1EF9D59142D6D370470000ED
:100220000023002400250026103A28BF78C1FBD8FF
:10023000520728BF30C148BF0B6070471FB50BF095
:10024000B8FE00F05BF81FBD10B510BD00F0F2F86D
:100250001146FFF7F3FF0AF0B5FE00F010F903B402
:10026000FFF7F2FF03BC00F011F9000009488047D6
:1002700009480047FEE7FEE7FEE7FEE7FEE7FEE788
:10028000FEE7FEE7FEE7FEE704480549054A064BA0
:1002900070470000850D000889010008E80F002064
:1002A000E8150020E8110020E811002010B54C10DE
:1002B00084EA530404D54042C1F1000138BF491E0D
:1002C0001B4204D55242C3F1000338BF5B1E00F04D
:1002D00027F814F0804F04D04042C1F1000138BF2C
:1002E000491E14F0004F04D05242C3F1000338BF3E
:1002F0005B1E10BD704770477047000070B5064C1C
:100300007C44064D7D4403E0206820448047241D42
:10031000AC42F9D170BD00002CC9000048C90000F2
:1003200053EA020C00F069802DE9F04B4FF0000613
:10033000002B1FBFB3FA83F503FA05F424FA05F680
:100340005E4012BF1643B2FA82F502FA05F4C5F117
:1003500020051EBF22FA05FC44EA0C04203556EAAB
:10036000044C4FEA144418BF641C4FF000084FF0CF
:100370000009904271EB030C39D3002919BFB1FA7F
:1003800081F701FA07F6B0FA80F700FA07F6C7F12D
:1003900020071EBF20FA07FC46EA0C062037B6FBF2
:1003A000F4FCA7EB0507103F07F01F0BCBF120066D
:1003B0000CFA0BFB2CFA06F644BFB3460026202F9E
:1003C000A4BF5E464FF0000B5BEA060C08BF4FF07F
:1003D000010B19EB0B09ABFB027C48EB0608C01BB9
:1003E00006FB02CC0BFB03CC71EB0C01C1E70B4607
:1003F000024641464846BDE8F08B13B54FF0000079
:100400004FF00001AFF30080BDE81C40704710B50D
:1004100000F008F8006810BD10B5044600F002F8BE
:10042000046010BD00487047880F002000487047E6
:10043000880F00207546FFF7F9FFAE4605006946B4
:10044000534620F00700854618B020B5FFF71CFF83
:10045000BDE820404FF000064FF000074FF00008C5
:100460004FF0000B21F00701AC46ACE8C009ACE846
:10047000C009ACE8C009ACE8C0098D467047044625
:10048000AFF300802046FFF7EAFE00000149182084
:10049000ABBEFEE726000200704721B1826842F041
:1004A0000102826003E0826822F0010282607047EC
:1004B0000021084A1168084A1140D0E900231A4374
:1004C00083681A43C3681A431143044AC2F80413E9
:1004D0007047000004230140E030FCFF0020014091
:1004E00021B1826842F48072826003E0826822F463
:1004F00080728260704721B1826842F4007282602B
:1005000003E0826822F400728260704730B50246D0
:10051000002000235068104C20400D790C6844EAFC
:1005200005242043506090680C4C2040D1E90354CE
:100530002C438D682C434D7944EA45042043906058
:10054000D06A20F470000C7D641EE4B2234340EABC
:100550000350D06230BD0000FFFEFFFCFDF7FFC07E
:10056000F0B504460D4600200021092D11DDE0689C
:10057000A5F10A0606EB4607072606FA07F18843A7
:10058000A5F10A0606EB460603FA06F10843E06009
:100590000CE0206905EB4507072606FA07F18843BA
:1005A00005EB450603FA06F108432061072A0FDA36
:1005B000606B561E06EB86071F2606FA07F1884376
:1005C000561E06EB860605FA06F10843606322E034
:1005D0000D2A0FDA206BD61F06EB86071F2606FAB8
:1005E00007F18843D61F06EB860605FA06F1084395
:1005F000206310E0E06AA2F10D0606EB86071F26D5
:1006000006FA07F18843A2F10D0606EB860605FA05
:1006100006F10843E062F0BD816841F080418160ED
:10062000704700BFFEE721B1026842F0010202609C
:1006300003E0026822F001020260704710B5002258
:100640000268134B1A40CC680B6823434C69234360
:100650008C692343CC6923430C6A23434C6A2343AC
:100660008C6A23434C6B23438C6B23431A430260F5
:10067000426922F00702D1E90B3423431A43426155
:100680000B6943604B6883608B68C36010BD0000DA
:100690003F801CF07047000010B588B0102000F0BB
:1006A0008DF8002871D03B48007802283AD12020EC
:1006B00039490880072005F08BFD04462146272094
:1006C00006F052FB04F0400038B320226946612056
:1006D00005F060FDFF21E22006F046FB2F48007880
:1006E00001280ED1002007E01DF800202C490968E0
:1006F00020310A54411CC8B22028F5DB00202749CC
:1007000008702848007838B920222749A82006F028
:100710000DFB01202349087000BF20201E49891EBF
:10072000088032E020201C49088020226946612090
:1007300005F030FDFF21E22006F016FB1748007897
:1007400001280ED1002007E01DF800201449096897
:1007500020310A54411CC8B22028F5DB00200F4983
:100760000870072005F034FD04462146272006F0D6
:10077000FBFAFF21E12006F0F7FA01200B4908708F
:1007800020200549891E088000BF102000F010F8C5
:1007900008B010BD320500201A08024035050020BF
:1007A00038050020330500206609002034050020AC
:1007B0000149086070470000143C014001460020D8
:1007C000034A12680A400AB1012000E00020704785
:1007D000143C0140002123498279002A3AD00A467C
:1007E000126803689A430B461A600A1D1268036870
:1007F0009A430B1D1A60027911440A6803681A4370
:100800000A60184A0832126803689A43154B083385
:100810001A601A1D126803689A43124B0C331A604F
:100820004279102A0ED11A1F126803681A430D4B21
:1008300008331A601A1D126803681A43094B0C33F7
:100840001A600DE00749427911440A6803681A43A7
:100850000A6005E0027911440A6803689A430A6055
:1008600070470000003C01400149086070470000EB
:100870000C3C024070B504460A460026092502B920
:1008800009E0012A01D1160205E0022A01D116026F
:1008900001E04FF4407600F09FF80546092D28D17D
:1008A0001548006820F44070134908600846006845
:1008B000304308600846006820F0F80008600846E9
:1008C000006844F0020108430B49086008460068CC
:1008D00040F48030086000F07FF805460648006864
:1008E00020F00200044908600846006820F0F80083
:1008F0000860284670BD0000103C024009201349E2
:10090000096801F48031B1F5803F01D101201CE07C
:100910000E49096801F0100109B1062015E00B49E4
:10092000096801F4807109B102200EE007490968E5
:1009300001F0E00109B1072007E00449096801F06E
:10094000020109B1082000E0092070470C3C024078
:100950000348006840F0004001490860704700000B
:10096000103C024030B502460C46092500F034F830
:100970000546092D19D10E48006820F440700C4935
:1009800008600846006840F4007008600846006887
:1009900040F001000860146000F01EF805460448AD
:1009A000006820F0010002490860284630BD0000C0
:1009B000103C02400548006800F0004028B104489F
:1009C00002490C390860034808607047103C024037
:1009D00023016745AB89EFCD08B509200090FFF7EB
:1009E0008DFF009002E0FFF789FF00909DF8000066
:1009F0000128F8D09DF8000008BDF0B50A46002196
:100A00000023002400BF3DE0012505FA01F315682D
:100A100005EA03049C4234D105684F000326BE401A
:100A2000B543056015794E00B5400668354305604D
:100A30001579012D02D01579022D16D185684F0048
:100A40000326BE40B543856055794E00B5408668A3
:100A500035438560456801268E40B543456045684D
:100A600096798E40B6B235434560C5684F0003267F
:100A7000BE40B543C560D5794E00B540C668354324
:100A8000C560491C1029BFD3F0BDF0B50023002478
:100A90004D07ED0E02FA05F3CE1000F1200555F8D2
:100AA00026504E07F70E0F26BE40B543CF1000F17B
:100AB000200646F82750CE1000F1200555F82650A4
:100AC00045EA0304CE1000F1200545F82640F0BDAC
:100AD000418370470183704700BFFEE700BFFEE718
:100AE0007047000070B5002100230F22C4781CB3AA
:100AF000174C246804F4E064C4F5E064C4F30721EF
:100B0000C1F10404E3B20A4144789C40E1B2847824
:100B1000144021430C07210E0E4C057861550478D2
:100B200004F01F050124AC4005786D11AD0005F1FE
:100B3000E025C5F8004109E0047804F01F05012410
:100B4000AC40054D0678761145F8264070BD000092
:100B50000CED00E000E400E080E100E00249014328
:100B6000024A1160704700000000FA050CED00E039
:100B70007047000029B1064A12680243044B1A600C
:100B800004E0034A12688243014B1A607047000078
:100B90003038024029B1064A12680243044B1A60F9
:100BA00004E0034A12688243014B1A607047000058
:100BB0004038024029B1064A12680243044B1A60C9
:100BC00004E0034A12688243014B1A607047000038
:100BD00044380240F0B500210022002402250026FE
:100BE0000223324F3F6807F00C0121B1042905D0E0
:100BF000082937D105E02E4F076036E02C4F0760FB
:100C000033E02A4F3F1F3F68C7F38056274F3F1FEF
:100C10003F6807F03F036EB1254FB7FBF3F7DFF8EE
:100C20008CC0ACF1040CDCF800C0CCF3881C07FBD2
:100C30000CF40CE01E4FB7FBF3F7DFF870C0ACF11B
:100C4000040CDCF800C0CCF3881C07FB0CF4174F35
:100C50003F1F3F68C7F301477F1C7D00B4FBF5F7DA
:100C6000076002E0124F076000BF00BF0F4F3F68F0
:100C700007F0F00109090F4F7A5C0768D740476019
:100C80000A4F3F6807F4E051890A0A4F7A5C4768C7
:100C9000D7408760054F3F6807F46041490B054F17
:100CA0007A5C4768D740C760F0BD00000838024052
:100CB0000024F4003406002021B1028842F04002F2
:100CC000028004E002884FF6BF731A40028070472A
:100CD0000246002013890B400BB1012000E00020E8
:100CE00070470146888970478181704710B500229E
:100CF000028802F441520B884C8823438C8823439A
:100D0000CC8823430C8923434C8923438C89234378
:100D1000CC8923431A430280838B4FF2FF74234014
:100D200083830B8A038210BD7047000030B5002218
:100D30008B071C0F0F2303FA04F20B4B8C1053F894
:100D400024309343084C8D1044F8253023468C10F2
:100D500053F824308C07240F00FA04F42343024C88
:100D60008D1044F8253030BD083801400448036830
:100D700040685A1C40F1000001490A604860704711
:100D80009804002010B51548006840F4700013491D
:100D900008601348006840F0010011490860002015
:100DA0000F49083108600E4800680E4908400C4998
:100DB00008600D48091D0860081F006820F48020A5
:100DC000091F0860002006490C31086001F052F844
:100DD0004FF0006001498039086010BD88ED00E0E7
:100DE00000380240FFFFF6FE1030002421B10288D7
:100DF00042F08002028004E002884FF67F731A40BE
:100E00000280704721B1028842F00102028004E0B2
:100E100002884FF6FE731A400280704770B50024B6
:100E200000220023058C4FF6FE7635400584028CA7
:100E30008388048B4FF68F752C40B51E2C400D888F
:100E40002C43751E2A408D892A434D882A43104D14
:100E5000A84202D00F4DA84213D14FF6F7752A4091
:100E6000CD892A434FF6FB752A408D882A434FF6D9
:100E7000FF652B404FF6FF552B400D8A2B434D8AC3
:100E80002B43838004838D684563028470BD00001A
:100E900000000140000401400A460021018B4FF68A
:100EA000F7731940114301837047000070B50024A7
:100EB00000220023058C4FF6EF7635400584028C26
:100EC0008388048B48F6FF752C404FF6FF452C4075
:100ED0000D884FF6FF7606EA05252C434FF6DF75A1
:100EE0002A408D8906EA05152A434D8806EA05152C
:100EF0002A43154DA84202D0144DA8421DD14FF6E9
:100F00007F752A40CD894FF6FF7606EA05152A43FC
:100F10004FF6BF752A408D8806EA05152A434FF61D
:100F2000FF352B404FF2FF752B400D8A06EA8505F1
:100F30002B434D8A06EA85052B43838004838D6805
:100F40008563028470BD0000000001400004014080
:100F50000A460021018B4FF2FF7319404FF6FF73D1
:100F600003EA0223194301837047000070B500248F
:100F700000220023058C4FF6FF6635400584028C65
:100F80008388848B4FF68F752C404FF6FC752C4070
:100F90000D882C434FF6FF552A408D894FF6FF767A
:100FA00006EA05252A434D8806EA05252A43154DFC
:100FB000A84202D0144DA8421DD14FF2FF752A401D
:100FC000CD894FF6FF7606EA05252A434FF6FF3511
:100FD0002A408D8806EA05252A434EF6FF752B40E8
:100FE0004DF6FF752B400D8A06EA05152B434D8AF9
:100FF00006EA05152B43838084838D68C5630284CC
:1010000070BD000000000140000401400A460021BC
:10101000818B4FF6F7731940114381837047416309
:10102000704781637047C1637047000000220288E7
:10103000184B98420ED0184B98420BD0B0F1804F0D
:1010400008D0164B984205D0154B984202D0154B4C
:10105000984204D14FF68F731A404B881A43124BB3
:10106000984207D0114B984204D04FF6FF431A40E4
:101070000B891A4302804B68C3620B880385054BBA
:10108000984202D0044B984201D18B7A0386012307
:1010900083827047000001400004014000040040CA
:1010A00000080040000C0040001000400014004008
:1010B00010B540F227712C4800F05FF9012803D1E8
:1010C0000021294800F017FA40F22551264800F087
:1010D00054F9012847D1244800F008FAC4B2234942
:1010E0004868804722490968401A022810D9002020
:1010F00020490880012020490870204800780128F4
:1011000003D100201D49087002E001201B4908702E
:101110001A48007801280BD1164801880088401C25
:10112000144A1080164844541648174908600AE0CB
:10113000104801880088401C0E4A10801148445411
:101140000F48114908600B480088B0F5007F04D1B2
:1011500008480088401E07490880044948688047BD
:101160000349086000BF10BD00100140A00400202A
:101170008405002088050020700500208A050020D5
:10118000B8090020B80B00207405002010B5082114
:10119000274800F0E5F810B1254800F0A7F9202114
:1011A000234800F0DDF8012840D1214800F09EF9E5
:1011B000C4B22049486880471F490968401A02287C
:1011C00010D900201D4908701D480078012803D15E
:1011D00000201B49087002E0012019490870012015
:1011E0001849087016480078012808D1134801787A
:1011F0000078401C114A10701348445407E00F480F
:1012000001780078401C0D4A107010484454094978
:10121000486880470849086008480078192804D1C0
:1012200006480078401E0549087000BF10BD000048
:1012300000440040A00400202005002024050020D8
:101240000505002004050020C4080020DD0800205A
:1012500070B50821334800F083F810B1314800F030
:1012600045F940F227712F4800F087F801281AD17C
:101270002D4802780078401C2B4B18702B48815C5D
:10128000284800F038F92848007820280BD10120A0
:1012900027490870002024490870002240F2277175
:1012A000204800F094F840F225511E4800F065F8FF
:1012B000012835D11B4800F019F9C5B21D4948680D
:1012C000804704461C480068201A022814D90020D0
:1012D0001A4908701A48007801280DD100201849D1
:1012E000087000BF06E017490A5C104920310A5413
:1012F000411CC8B22028F6DB0F4804600F48017873
:101300000078401C0D4A10700E4845541046007875
:10131000202804D110460078401E1146087000BFF6
:1013200070BD000000480040F80500209C0E002021
:10133000D8050020A0040020F4050020F9050020B5
:10134000D90500207C0E002021B1828942F4005290
:10135000828104E082894DF6FF731A4082817047D2
:1013600002460020B1F5007F00D100BF13880B407A
:101370000BB1012000E00020704770B50246002448
:1013800000230025002040F66A16B14200D100BFBC
:10139000C1F3421501F01F03012606FA03F3012DE4
:1013A00002D19689334006E0022D02D1168A3340DD
:1013B00001E0968A33400C12012606FA04F41688DE
:1013C000344013B10CB1012000E0002070BDF0B535
:1013D0000346002400260025002040F66A17B94283
:1013E00000D100BF1846C1F3421401F01F060127C7
:1013F00007FA06F5012C01D10C3004E0022C01D1D2
:10140000103000E014301AB107682F43076002E083
:101410000768AF430760F0BD2DE9FF4705460E465C
:101420000024A14600BFA046B08900B100BF2C8AAD
:1014300024F44054F08804432C82AC8941F20C60BF
:101440008443B08831890843718908430443AC81DF
:10145000AC8A24F44074B0890443AC826846FFF738
:10146000B9FB2048854202D01F48854202D1DDF8F1
:101470000C9001E0DDF80890A88900F4004040B12C
:1014800009EBC90000EB091031684900B0FBF1F726
:1014900007E009EBC90000EB091031688900B0FBD7
:1014A000F1F76420B7FBF0F004012009642101FB8F
:1014B0001078A88900F4004040B1322000EBC80049
:1014C000B0FBF1F000F00700044308E0322000EB2D
:1014D00008106421B0FBF1F000F00F0004432C81F0
:1014E000BDE8FF87001001400014014001468888D4
:1014F000C0F308007047C1F308028280704700BF44
:10150000FEE7000010B52DED028B9FED680AB0EEEE
:10151000408A6748008800EE100AB8EE400ADFED06
:10152000650A80EE201AB0EE040A21EE000AF1EE00
:10153000000A20EE200A604880ED010A5C484088DD
:1015400000EE100AB8EE400ADFED5A0A80EE201ACB
:10155000B0EE040A21EE000AF0EE080A20EE200A9E
:10156000554880ED040A5248808800EE100AB8EE13
:10157000400ADFED500A80EE201AB0EE040A21EE98
:10158000000AF0EE080A20EE200A4B4880ED030A1C
:101590004748C08800EE100AB8EE400ADFED450A61
:1015A00080EE201AB0EE040A21EE000AF0EE080ADE
:1015B00020EE200A404880ED020A3D48008900EEF6
:1015C000100AF8EE400A9FED3B1A80EE810AF0EE19
:1015D000040A20EE200AF0EE080A20EE200A36481F
:1015E00080ED050A35480078032190FBF1F201FBFC
:1015F000120020B1012818D0022842D12BE0304837
:10160000416800208847B0EE408ABFEE000AB4EE81
:10161000408AF1EE10FA07D0274880ED068A274865
:101620000078401C254908702CE0254841680120BD
:101630008847B0EE408ABFEE000AB4EE408AF1EE71
:1016400010FA07D01C4880ED078A1C480078401C1F
:101650001A49087016E01A48416802208847B0EE1F
:10166000408ABFEE000AB4EE408AF1EE10FA07D0CD
:10167000114880ED008A11480078401C0F4908701D
:1016800000E000BF00BF0F48006900F40040B0F563
:10169000004F04D10120084981F8200003E0002018
:1016A000054981F82000BDEC028B10BD0000000050
:1016B0008809002000F07F45940900205C05002087
:1016C000640500200010024010B54FF480710248FC
:1016D000FFF7FEF910BD0000000C0240034800783F
:1016E000012802D1002001490870704770050020D0
:1016F00010B504460749086980470749C86880470C
:1017000006488168204688470448C16820468847C3
:1017100010BD0000080500208C050020F803002003
:1017200010B504460749C86880470749886880475C
:101730000648C168204688470548416820468847D2
:1017400010BD0000E8040020340400200C04002038
:10175000F803002010B540F2B6310E48FFF75FFCE9
:1017600040F2B6310B48FFF75CFC40F2B631094855
:10177000FFF759FC40F2B6310748FFF750FC40F242
:10178000B6310548FFF74DFC40F2B6310248FFF78D
:101790004AFC10BD000400400008004000B58BB0BA
:1017A00001210220FFF7F6F901210420FFF7E2F9F9
:1017B0004FF4E070099002208DF8280003208DF886
:1017C000290000208DF82A0001208DF82B0009A99E
:1017D0006E48FFF712F9022206216C48FFF755F90F
:1017E000022207216948FFF750F9022208216748C1
:1017F000FFF74BF94FF4FA6007906548006840081E
:1018000000EE100AB8EE400A9FED621AC0EE010A1F
:101810009FED610A80EE801ABCEEC10A10EE100A3C
:10182000401E80B2ADF818000020ADF82000ADF8E1
:101830001A0006A95948FFF7F9FB6020ADF804002B
:101840000120ADF806004FF4617003900020ADF860
:10185000100001A95148FFF7E1FA08214F48FFF7AE
:101860001BFB01A94D48FFF721FB08214B48FFF75F
:101870006FFB01A94948FFF779FB08214748FFF7AB
:10188000C5FB01214548FFF7B1FA01214348FFF7A5
:10189000B9FA01210420FFF77DF901210820FFF7A3
:1018A00069F94FF4E040099002208DF828000320E8
:1018B0008DF8290000208DF82A0001208DF82B00DA
:1018C00009A93748FFF799F802220C213448FFF79D
:1018D000DCF802220D213248FFF7D7F802220E2150
:1018E0002F48FFF7D2F84FF4FA60079028480068B5
:1018F000400800EE100AF8EE400A9FED261A80EE2E
:10190000810ADFED250A80EE201ABCEEC10A10EE36
:10191000100A401E80B2ADF818000020ADF820007B
:10192000ADF81A0006A91F48FFF780FB6020ADF84C
:1019300004000120ADF806004FF461700390002010
:10194000ADF8100001A91748FFF768FA08211548FB
:10195000FFF7A2FA01A91348FFF7A8FA08211148D6
:10196000FFF7F6FA01A90F48FFF700FB08210D4821
:10197000FFF74CFB01210B48FFF738FA012109481A
:10198000FFF740FA00F010F80BB000BD000802406D
:10199000200600200000FA430000FA440004004042
:1019A000000C02400008004010B54FF4617012496D
:1019B000086048608860C8600861486101460F4857
:1019C000FFF72DFB4FF461710C48FFF72AFB4FF432
:1019D00061710A48FFF727FB4FF461710848FFF770
:1019E0001EFB4FF461710648FFF71BFB4FF461715A
:1019F0000348FFF718FB10BDC80700200004004093
:101A000000080040002100EE901A0549415800EE00
:101A1000901AB8EEE01ADFED031A81EE210A704742
:101A200000000E080000C84238B5002000900124D4
:101A3000924801690020884700B938BDAA238F4821
:101A4000006840302146621CD4B243548B48006881
:101A500040302146621CD4B24354032387480068B7
:101A600040302146621CD4B24354002383480068AE
:101A700040302146621CD4B2435481488068808B38
:101A800000909DF801307D48006840302146621C7E
:101A9000D4B243549DF80030784800684030214665
:101AA000621CD4B2435476488068008B00909DF845
:101AB00001307248006840302146621CD4B2435461
:101AC0009DF800306D48006840302146621CD4B259
:101AD00043546B488068C08B00909DF80130674884
:101AE000006840302146621CD4B243549DF8003057
:101AF0006248006840302146621CD4B243546048BA
:101B00008068408B00909DF801305C480068403050
:101B10002146621CD4B243549DF8003057480068F7
:101B200040302146621CD4B2435455488068008C32
:101B300000909DF801305148006840302146621CF9
:101B4000D4B243549DF800304C48006840302146E0
:101B5000621CD4B243544A488068408C00909DF87F
:101B600001304648006840302246611CCCB28354A4
:101B70009DF800304148006840302146621CD4B2D4
:101B800043543F488068808C00909DF801303B486A
:101B9000006840302146621CD4B243549DF80030A6
:101BA0003648006840302146621CD4B24354344861
:101BB0008068C08C00909DF801303048006840304B
:101BC0002146621CD4B243549DF800302B48006873
:101BD00040302146621CD4B2435429488068008DAD
:101BE00000909DF801302548006840302146621C75
:101BF000D4B243549DF8003020480068403021465C
:101C0000621CD4B243541E488068808D00909DF8B9
:101C100001301A48006840302146621CD4B2435457
:101C20009DF800301548006840302146621CD4B24F
:101C30004354601FC1B21148006880F84410002569
:101C4000012007E00D4909684031095C2944CDB203
:101C5000411CC8B2A042F5DB08480068403021466C
:101C6000621CD4B24554601E0449096881F84000E2
:101C700002498868804700BFDFE600003805002081
:101C80000805002010B5044616484078012803D006
:101C90001448C078012804D113484168642088475B
:101CA0001AE010480078012800D100E000200F4918
:101CB000097809B9012100E00021084048B10A482B
:101CC0004168002088470A48C1684FF47A70884705
:101CD00002E0054988688047024800780349087097
:101CE00010BD000070040020A00500208404002026
:101CF000A004002001490868496870479804002042
:101D00002DE9F0472448046845684FF0E0208669D3
:101D1000002721480168426884EA010085EA02013F
:101D200008431CD11D480023026830463946FEF79F
:101D3000BDFA4FF47A734FF0000CA4FB032805FBA7
:101D4000038304FB0C3C1346181A6CEB01014FF49F
:101D50007A7C10EB0C0041F10001BDE8F0874FF0F8
:101D6000E02080690D490968B0FBF1F000220A4BC0
:101D700019685B684FF47A78A1FB089A03FB08A303
:101D800001FB02311346B9EB000261EB030112EBD8
:101D9000080041F10001E0E79804002088040020D9
:101DA00010B5024807F0DAF810BD00003C0E002024
:101DB0001CB501210820FEF7DDFE01208DF804008E
:101DC00000208DF806008DF805008DF807004FF40F
:101DD0008070009069460448FEF70FFE4FF4807152
:101DE0000148FEF775FE1CBD000C024010B502F064
:101DF000CDFD00F03BFC03F099FB05F02BFD01202D
:101E000010BD000070B505460E461349486880476E
:101E1000044605F0010060B110480068844208D90A
:101E20000F48406980F001000D494861A0190B4935
:101E3000086005F0020002280CD10A4800688442BC
:101E400008D90748406980F0020005494861A01997
:101E50000449086070BD0000A0040020CC040020EC
:101E600000100240D0040020704700B500F070FB65
:101E700000BD00000CB500200190009034480068BF
:101E800040F480303249086000BF3148006800F4F7
:101E9000003000900198401C0190009818B90198FA
:101EA000B0F5A04FF1D12A48006800F4003010B11D
:101EB0000120009001E0002000900098012846D108
:101EC00023484030006840F080502149403108608C
:101ED0002048006840F440401E4908601C48083013
:101EE00000681B49083108600846006840F400405B
:101EF00008600846006840F4A05008601648091FB2
:101F00000860081F006840F08070091F086000BF6B
:101F10000F48006800F000700028F9D040F205700A
:101F20000E4908600A480830006820F0030008499C
:101F3000083108600846006840F00200086000BFF1
:101F400003480830006800F00C000828F8D10CBDE8
:101F5000003802400070004010544007003C02402E
:101F600000B50246FFF7C6FE034600BFFFF7C2FEFC
:101F700099188842FAD300BD70B50446FFF7C0FE39
:101F8000054600BFFFF7BCFE2A19801A71F1000157
:101F9000F8DB70BD10B50124FEF70CFDF320FEF751
:101FA00063FC02215820FEF765FC3B4890ED0C0ACB
:101FB000DFED3A0A20EE200ABDEEC00A10EE101A3C
:101FC0003748FEF7CFFC092800D00024324890EDB6
:101FD0000D0ADFED320A20EE200ABDEEC00A10EE37
:101FE000101A2F48001DFEF7BDFC092800D0002460
:101FF000294890ED0E0ADFED290A20EE200ABDEEF9
:10200000C00A10EE101A26480830FEF7ABFC09286B
:1020100000D00024204890ED0F0ADFED200A20EECA
:10202000200ABDEEC00A10EE101A1D480C30FEF753
:1020300099FC092800D00024174890ED100ADFED24
:10204000170A20EE200ABDEEC00A10EE101A14483E
:102050001030FEF787FC092800D000240E4890EDD0
:10206000110ADFED0E0A20EE200ABDEEC00A10EEC6
:10207000101A0B481430FEF775FC092800D0002414
:10208000642107481830FEF76DFC092800D00024B1
:10209000FEF75EFC204610BD640800200000C84228
:1020A00000000E0800B58FB001218805FEF762FD23
:1020B000052004900020009003900B90104802909F
:1020C00000200D904FF400500890C0100690801032
:1020D00009900C48019000200E904FF4006007908A
:1020E000002005904FF400300A9069460648FEF73C
:1020F000A5FA01210448FEF796FA0FB000BD0000D2
:10210000880900204C2001401064024010B504F002
:10211000C7FB03F061F91C48407820F08000803054
:10212000194948700846407820F0700040304870E7
:102130000846407820F00E00001D487008464078A0
:1021400020F0010048700846007820F0E000803060
:1021500008700846007820F01000087008460078E3
:1021600020F0080008700846007820F00600801C67
:1021700008700846007820F00100401C08700888AC
:1021800001F04AFA10BD00006005002010B50D48AE
:1021900006F0E4FE7C2300223C210A4806F098FE6B
:1021A000202301223C21074806F092FE80230222D0
:1021B0003C21044806F08CFE0348C1680A20884789
:1021C00010BD0000C40D0020A004002010B51C4864
:1021D00006F0C4FE1B48C1683220884780236B226A
:1021E000D021174806F074FE1648C16805208847BC
:1021F00000231922D021124806F06AFE00236B2228
:10220000D0210F4806F064FE00233722D0210C486D
:1022100006F05EFE06231A22D021094806F058FE79
:1022200018231B22D021064806F052FE10231C2240
:10223000D021034806F04CFE04F094FC10BD0000D1
:10224000E0070020A004002010B54FF4805006499C
:1022500008801E2000F03AFD4FF480500249891E8C
:102260000880012010BD00001A04024010B52DEDB9
:10227000048B86B00446012C7DD1AB49086809F077
:1022800004FA41EC190BA9499FEDA92B9FEDAA1B5C
:10229000B0EE490AF0EE690A08688047B0EE408A5D
:1022A000F0EE608A51EC180B09F0C0F900909E49DD
:1022B000486809F0EAF941EC190B9C499FED9C2B09
:1022C0009FED9D1BB0EE490AF0EE690A0868804751
:1022D000B0EE408AF0EE608A51EC180B09F0A6F9D6
:1022E00001909149886809F0D0F941EC190B8F49A8
:1022F0009FED8F2B9FED901BB0EE490AF0EE690A1F
:1023000008688047B0EE408AF0EE608A51EC180B06
:1023100009F08CF902908449C86809F0B6F941ECDB
:10232000190B82499FED822B9FED831BB0EE490A6A
:10233000F0EE690A08688047B0EE408AF0EE608AE5
:1023400051EC180B09F072F903907749086909F00C
:102350009CF941EC190B75499FED752B9FED761B90
:10236000B0EE490AF0EE690A08688047B0EE408A8C
:10237000F0EE608A00E01FE051EC180B09F056F90E
:1023800004906949486909F080F941EC190B6749E3
:102390009FED672B9FED681BB0EE490AF0EE690ACE
:1023A00008688047B0EE408AF0EE608A51EC180B66
:1023B00009F03CF905909BE05B49086809F065F974
:1023C00041EC190B59499FED5E2B9FED5B1BB0EE65
:1023D000490AF0EE690A08688047B0EE408AF0EEDC
:1023E000608A51EC180B09F021F900904E494868B9
:1023F00009F04BF941EC190B4C499FED512B9FED26
:102400004E1BB0EE490AF0EE690A08688047B0EE4C
:10241000408AF0EE608A51EC180B09F007F9019040
:102420004149886809F031F941EC190B3F499FEDAA
:10243000442B9FED411BB0EE490AF0EE690A086893
:102440008047B0EE408AF0EE608A51EC180B09F03C
:10245000EDF802903449C86809F017F941EC190BFE
:1024600032499FED372B9FED341BB0EE490AF0EE59
:10247000690A08688047B0EE408AF0EE608A51EC45
:10248000180B09F0D3F803902749086909F0FDF803
:1024900041EC190B25499FED2A2B9FED271BB0EE30
:1024A000490AF0EE690A08688047B0EE408AF0EE0B
:1024B000608A51EC180B09F0B9F804901A49486980
:1024C00009F0E3F841EC190B18499FED1D2B9FED26
:1024D0001A1BB0EE490AF0EE690A08688047B0EEB0
:1024E000408AF0EE608A51EC180B09F09FF80590D5
:1024F00015480099FEF793FD13480199FEF791FDE9
:1025000011480299FEF78FFD10480399FEF787FDE9
:102510000E480499FEF785FD0C480599FEF783FDEA
:1025200006B0BDEC048B10BDC8070020600400207D
:102530000000000000B08D400000000000B09D4091
:102540000000000000208C40000400400008004013
:1025500070B587B034480078012863D133480078DB
:1025600001280AD1002005E03149095C0DF800106E
:10257000411CC8B21928F7DB09E0002005E02D490D
:10258000095C0DF80010411CC8B21928F7DB0020C7
:102590002549087000BF3AE00024002316E000EB54
:1025A0004002254D05EB820202EB83018A785AB185
:1025B0000D786D1C1DF805204D78EA408D782A4075
:1025C000CD78AA40144300BF591CCBB2032BE6DBE5
:1025D000B4F5AF7F14D9A4F5AF7100EE101AF8EE80
:1025E000400A9FED161A9FED160A00EE810ABCEE16
:1025F000C00A10EE101A8AB2124921F8102004E025
:102600004FF461720F4921F81020411CC8B20C2808
:10261000C2DB9DF818009DF8171040EA01200A4916
:10262000088000BF07B070BD04050020050500202C
:10263000DD080020C40800207AC100082FA13D3F1A
:10264000000061440E09002008050020014640F208
:10265000B630814201DA0020704740F23A70814280
:1026600001DD0220F8E70120F6E7000010B512486E
:1026700001780078401C104A1070052091FBF0F2A0
:1026800000FB1210052813D2DFE800F00306090C46
:102690000F0000F077FD0CE002F09EF909E0FFF773
:1026A000C3F906E000F068FE03E003F0FFFF00E07E
:1026B00000BF00BF10BD00001400002038B58E49D7
:1026C0008868804701287DD1002400200090AA223C
:1026D00089482146641C03685A5455222146641CCB
:1026E00003685A5401222146641C03685A54641C2E
:1026F00082488068808B00909DF801207E482146AA
:10270000641C03685A549DF800202146641C036829
:102710005A547A488068008B00909DF801207648D2
:102720002146641C03685A549DF800200368204623
:10273000611CCCB21A5471488068408B00909DF89F
:1027400001206D4803682046611CCCB21A549DF8E4
:102750000020694803682046611CCCB21A546748BF
:102760008068C08B00909DF8012063480368204674
:10277000611CCCB21A549DF800205F4803682046C3
:10278000611CCCB21A545D488068008C00909DF8A2
:102790000120594803682046611CCCB21A549DF8A8
:1027A0000020554803682046611CCCB21A54534897
:1027B0008068408C00909DF801204F4803682046B7
:1027C000611C00E097E0CCB21A549DF800204A4802
:1027D00003682046611CCCB21A5448488068808C3B
:1027E00000909DF80120444803682046611CCCB24B
:1027F0001A549DF80020404803682046611CCCB262
:102800001A543E488068C08C00909DF801203A48D8
:1028100003682046611CCCB21A549DF8002036484B
:1028200003682046611CCCB21A5434488068008D7D
:1028300000909DF80120304803682046611CCCB20E
:102840001A549DF800202C4803682046611CCCB225
:102850001A542A488068808D00909DF801202648EF
:1028600003682046611CCCB21A549DF8002022480F
:1028700003682046611CCCB21A5420488068408D01
:1028800000909DF801201C4803682046611CCCB2D2
:102890001A549DF80020184803682046611CCCB2E9
:1028A0001A5416488068C08D00909DF80120124887
:1028B00003682046611CCCB21A549DF800200E48D3
:1028C00003682046611CCCB21A540B480068C470DF
:1028D0000025002006E008490968095C2944CDB2BA
:1028E000411CC8B2A042F6DB034800680555024906
:1028F000C868804700BF38BDDC05002008050020FF
:1029000002490979024A1170704700000C04002046
:102910007004002010B50446204605F041FC204616
:1029200005F00EFD2046FFF7EBFF204602F082FD8A
:102930002046FFF7A7F910BD70B52DED068B82B0CC
:1029400000BF3E498868804704460D463C480078F1
:1029500050B9B0230222E8213A4806F0B9FA3A48C1
:1029600030C0012036490870374903C9221A65EB87
:1029700001004FF47A7300219A1A81415AD23348E8
:10298000006800F40050002854D00222E8212D48AD
:1029900006F069FAC0B28DF804000322E821294844
:1029A00006F061FAC0B28DF805009DF805009DF8AB
:1029B000041000EB012000EE100AB8EEC00ADFEDB3
:1029C000240A80EE201A234880ED001A00201C49BA
:1029D00008702048D0ED000AB0EE600A1E4806F0EC
:1029E00019F8B0EE408A1D48D0E90010621A65EB74
:1029F0000001104609F067FA00EE100A1548D0ED04
:102A0000000A70EEC80A80EE801A11EE106A304695
:102A100009F02EFA9FED120B53EC102B08F032FF49
:102A200008F082FB0B494860084680ED008A0B489D
:102A300030C000BF02B0BDEC068B70BDA00400200A
:102A4000C00500203C0E0020C805002010040240F4
:102A500000007A44B0050020480E0020D005002078
:102A60000000000080842E4170B52DED048B00BF66
:102A70001C498868804704460D461B4903C9221A31
:102A800065EB0101104608F07BFE9FED180B53EC3F
:102A9000102B08F0F7FE41EC180B134A30C2154B0F
:102AA0005868154B5B6803F11801134B5B68B0EE77
:102AB000485AF0EE685A90ED024AD0ED013A90ED96
:102AC000003AD1ED022A91ED012AD1ED001A93EDE1
:102AD0000B1AD3ED0A0A93ED090A04F0FBF9BDECD9
:102AE000048B70BDA0040020580400208DEDB5A01B
:102AF000F7C6B03E8C050020E80400200146B5EE84
:102B0000C00AF1EE10FA05DBF1EEC00AC1ED000AD1
:102B100000207047DFED030AC1ED000A4FF0FF30DF
:102B2000F7E70000000000001CB501210846FEF791
:102B300021F801210420FEF71DF801211020FEF7E5
:102B400019F801210802FEF735F803208DF804007A
:102B50000F20009000208DF8070003208DF805005D
:102B600069461148FDF749FF03208DF80400012054
:102B7000009000208DF8070003208DF805006946BD
:102B80000A48FDF73AFF00208DF804004FF400409A
:102B9000009000208DF8070003208DF8050069469D
:102BA0000348FDF72AFF1CBD000802400000024058
:102BB0000010024000B52DED060B2DED068B83B005
:102BC000B0EE618AF0EE428A68469FED360A80EDEB
:102BD000000A9FED340A80ED010A9FED320A80ED74
:102BE000020A00BF9FED300A28EE000AB0EE408ACC
:102BF0009FED2D0A28EE800AF0EE408AB0EE680ABA
:102C000008F046F9B0EE409AB0EE480A08F040F9F4
:102C1000F0EE409AB0EE680A08F082F9B0EE40AAF1
:102C2000B0EE480A08F07CF9F0EE40AA2AEE2A0A33
:102C3000DDED0A0A20EE200ADDED090A09EEA00A00
:102C400069EE2A0A9DED0B1A00EE810A8DED000A4D
:102C50009DED0A0A20EE090ADDED0B0A0AEE600A74
:102C60008DED010A2AEE290ADDED0A0A20EE200A7E
:102C7000DDED090AB1EE6A1A01EE200A69EE290AB1
:102C80009DED0B1A00EE810A8DED020A9DED000A02
:102C9000DDED010A9DED021A03B0BDEC068B06B016
:102CA00000BD00000000000034FA8E3C10B503F0B7
:102CB000FDF902F0C5F8FFF7C7FA0348C1686420C0
:102CC000884703F035FA10BDA004002010B5044673
:102CD00000BF02210A48FDF7FBFF0028F9D021467A
:102CE0000748FEF701F800BF01210548FDF7F0FF96
:102CF0000028F9D00248FDF7F4FFC0B210BD000073
:102D0000003800402DE9F04F2DED088B89B0CC48FC
:102D1000007810B101280FD106E004F027FF012848
:102D200001D1C749087008E004F068FE012802D10B
:102D30000220C349087000E000BF00BFC04800780F
:102D4000022804D009B0BDEC088BBDE8F08F4FF02D
:102D50000008C1460024254600263746B948408968
:102D60000102B948D0E90030591A60F10000B64AB2
:102D7000C2E90010B3488089002306CAA0FB01CA3B
:102D800003FB01A100FB0210410241EADC5000F507
:102D9000FA60C117AD4A03C2AA4880880204A94854
:102DA0000089DFF8A4C2DCE9001BA0FB01CE03FB15
:102DB00001E100FB0B104FEADC1141EA40615118C0
:102DC00043EBE010CDE904109E4840884FEAC03242
:102DD0009C48C088DFF870C2DCE9001BA0FB01CE74
:102DE00003FB01E100FB0B104FEA1C2141EA0061EB
:102DF000511843EB2020CDE906109448D0E900207B
:102E00004FF4FA63D21A70F100007DDA8E48D0E9EF
:102E10000010A1FB012300FB013301FB0030D10FA7
:102E200041EA40084FEAE0798848D0E900104FF4C1
:102E3000FA6AB1EB0A0260F10001104608F03CFCAE
:102E400041EC1B0B9FED821BB0EE4B0AF0EE6B0AC0
:102E500007F0FCFCB0EE40AAF0EE60AA9FED7E0BFE
:102E600053EC102B51EC1A0B08F00CFD09F0ACF8E8
:102E7000CDE90201DDE9021045104FEA3104DDE938
:102E800002014FEA900040EA81764FEAA1076F48BD
:102E9000D0E90030724A9A1A70F1FF303DDA6B497E
:102EA00040F2DC5CD1E900B01BEB0C0240F1000108
:102EB000104608F001FC41EC1A0B9FED651BB0EECB
:102EC0004A0AF0EE6A0A07F0C1FCB0EE409AF0EE52
:102ED000609A51EC190B09F077F8CDE9000107234E
:102EE0004FF0000CDDE90010A1FB032A00FB03A05A
:102EF00001FB0C00141945410B23DDE90010A1FB77
:102F0000032A00FB03A000E008E001FB0C004010D6
:102F10004FEA32029619474100BF00BF4B48D0E943
:102F20000010B1EB080160EB0900484AC2E900104B
:102F3000DDE90410091B60EB0502CDE90412DDE9AF
:102F40000610891B60EB0702CDE9061245480068B0
:102F50000023DDE90612A0FB01CA03FB01A100FB6F
:102F600002114FEA5C5040EAC12C4815DDE904210A
:102F7000BCEB020260EB0101D00B40EA4140C913F7
:102F8000324AC2E902011046D0E90220D21A984121
:102F900000DAD7E69FED340AB0EE408A2B49D1E93A
:102FA0000221104608F092FF00EE100ADFED2F0A12
:102FB00080EE201AF0EE418ADFED2D0AB0EE680AAD
:102FC00007F03EF9F7EE000A30EEC00ADFED290AFD
:102FD00020EE200AB0EE408AB0EE480A264805F0FE
:102FE00019FDB0EE408AB0EE480A244805F06CFBAB
:102FF000B0EE408A154890ED040ADFED210A20EE7C
:10300000200ADFED200A08EE200A80ED040A1E499E
:1030100048688047B0F5FA6F04D20C4890ED040A76
:1030200080ED050A094890ED040AD0ED050A30EE5E
:10303000600A80ED040A00200149087000BF81E6A3
:103040000C060020000F002000060020E00E0020EB
:1030500000000000000000400000000000001440DC
:1030600024FAFFFF080600200000000080E6C547A4
:10307000AEDC423E002A2D47540F0020100F0020E6
:103080006666663FCDCCCC3DA004002070B50446FA
:10309000002504F0DDFC03F0CBFD03F0F1FD202062
:1030A0002F490880072003F093F806463146272071
:1030B00003F05AFEFF21E12003F056FEFF21E2203B
:1030C00003F052FE05222749302003F02FFE05228F
:1030D00024492A2003F02AFE0321232003F044FE82
:1030E0000121212003F040FE0121222003F03CFEBB
:1030F00006213D2003F038FE1D2003F069F838B9A1
:103100001C2003F065F818B97321502003F02CFE41
:1031100006213D2003F028FE01213C2003F024FE7F
:10312000F221242003F020FE3221252003F01CFE92
:103130000E21262003F018FE012C04D10E212020A0
:1031400003F012FE03E00F21202003F00DFE2020EB
:103150000349891E088004480470284670BD000099
:103160001A080240280500203205002010B5034946
:103170004868804702494868804710BD1006002013
:10318000780500207CB5002001900090012475484E
:1031900001690020884700B97CBDAA2371480068F6
:1031A00040302146621CD4B243546E48006840301F
:1031B0002146621CD4B2435401236A48006840305F
:1031C0002146621CD4B24354002366480068403054
:1031D0002146621CD4B243546348406890ED010A12
:1031E000DFED620A20EE200ABDEEC00A10EE100AE2
:1031F00080B201909DF805305A4800684030214661
:10320000621CD4B243549DF80430564800684030E4
:103210002146621CD4B243545348406890ED000AE2
:10322000DFED520A20EE200ABDEEC00A10EE100AB1
:1032300080B201909DF805304A4800684030214630
:10324000621CD4B243549DF80430464800684030B4
:103250002146621CD4B243544348406890ED020AB0
:10326000DFED420A20EE200ABDEEC00A10EE100A81
:1032700080B201909DF805303A4800684030214600
:10328000621CD4B243549DF8043036480068403084
:103290002146621CD4B243543548006890ED020ABE
:1032A000DFED320A20EE200ABCEEC00A8DED000AE6
:1032B0009DF803302B48006840302146621CD4B290
:1032C00043549DF802302748006840302146621C74
:1032D000D4B243549DF80130224800684030214662
:1032E000621CD4B243549DF800301E480068403040
:1032F0002146621CD4B243541E4803781948006822
:1033000040302146621CD4B2435401231548006862
:1033100040302146621CD4B24354601FC1B21148F0
:10332000006880F844100025012007E00D49096875
:103330004031095C2944CDB2411CC8B2A042F5DB42
:103340000848006840302146621CD4B24554601ED3
:103350000449096881F8400002498868804700BF35
:103360001AE7000038050020340400200000C8429D
:103370000C040020E804002038B50020009001244F
:103380007D4801690020884700B938BDAA237A48E2
:10339000006840302146621CD4B24354764800682D
:1033A00040302146621CD4B2435406237248006860
:1033B00040302146621CD4B2435400236E4800685A
:1033C00040302146621CD4B243546C4800680088E7
:1033D00080B200909DF80130674800684030214677
:1033E000621CD4B243549DF80030634800684030FA
:1033F0002146621CD4B2435460480068808880B281
:1034000000909DF801305C48006840302146621C05
:10341000D4B243549DF800305748006840302146EC
:10342000621CD4B2435455480068008980B20090B1
:103430009DF801305048006840302146621CD4B2EB
:1034400043549DF800304C48006840302146621CCF
:10345000D4B2435449480068808980B200909DF8F6
:1034600001304548006840302146621CD4B24354C4
:103470009DF800304048006840302146621CD4B2BC
:1034800043543E480068008A80B200909DF80130A5
:103490003948006840302146621CD4B243549DF83C
:1034A00000303548006840302146621CD4B2435495
:1034B00032480068808A80B200909DF801302E4822
:1034C000006840302146621CD4B243549DF800305D
:1034D0002948006840302146621CD4B24354002081
:1034E00000909DF801302448006840302146621C5D
:1034F000D4B243549DF800301F4800684030214644
:10350000621CD4B24354002000909DF801301A4848
:10351000006840302146621CD4B243549DF800300C
:103520001548006840302146621CD4B24354601FE5
:10353000C1B21148006880F844100025012007E05E
:103540000D4909684031095C2944CDB2411CC8B21B
:10355000A042F5DB0848006840302146621CD4B226
:103560004554601E0449096881F840000249886892
:10357000804700BF09E7000038050020D404002080
:1035800070B505460E461E4801690120884700B9FE
:1035900070BD07201A49096881F84000AA2118481F
:1035A000006880F841101648006880F84210EF214A
:1035B0001348006880F8431002211148006880F821
:1035C00044100F48006880F845600D48006880F896
:1035D00046500024012007E0094909684031095C90
:1035E0002144CCB2411CC8B20728F5DB044800686E
:1035F00080F8474002498868804700BFC8E700005C
:103600003805002003480078012801D100207047C8
:103610000120FCE7D90500201FB504460820104909
:103620000880201200F01EF80090E0B200F01AF8B6
:103630000190201200F016F80290E0B200F012F8AB
:10364000039008200649891E0880DDE9021040EA3F
:10365000012040EA0140009940EA016004B010BD39
:103660001A04024010B5044600BF02210A48FDF7C3
:103670002FFB0028F9D021460748FDF735FB00BF96
:1036800001210548FDF724FB0028F9D00248FDF789
:1036900028FBC0B210BD0000003C004010B52DED6D
:1036A000028B04469FED4F0AB0EE408A4E480178E7
:1036B0000078401C4C4A1070052091FBF0F200FB92
:1036C000121020B1BFEE000ABDEC028B10BD24B178
:1036D000012C2CD0022C7CD153E044484078C0F31C
:1036E000021004280CD04148407820F0700040308F
:1036F0003E494870088803F015F9BFEE000AE3E779
:103700003A49088803F00EF900EE100AB8EE400AB4
:103710009FED371AC0EE010A9FED360A20EE800AAF
:10372000DFED350A20EE200AB0EE408A56E02F4841
:103730004078C0F3021005280CD02C48407820F0C7
:103740007000503029494870088803F0EBF8BFEE4C
:10375000000AB9E72549088803F0E4F800EE100AEA
:10376000F8EE400A9FED221A80EE810ADFED210A71
:1037700020EE200ADFED200A20EE200AB0EE408A7B
:103780002CE01A484078C0F3021006280CD01748E5
:10379000407820F07000603014494870088803F0C9
:1037A000C1F8BFEE000A8FE71049088803F0BAF8A5
:1037B00000EE100AB8EE400A9FED0D1AC0EE010AA5
:1037C0009FED0C0A20EE800AF3EE0C0A20EE200A90
:1037D00000E002E0B0EE408A00E000BF00BFB0EEC3
:1037E000480A71E7000000006C0500206005002019
:1037F000000000476F1203409A99894030B52DEDC3
:10380000048B83B0054668469FEDB80A80ED000A38
:103810009FEDB60A80ED010A9FEDB40A80ED020A21
:1038200000BFB34890F8D903012802D1B04981F80C
:10383000D803AF4890F8D803012811D1AC4805F05F
:1038400049FAAB48503005F045FAA948A03005F0D8
:1038500041FAA849C868804703B0BDEC048B30BD6D
:10386000A34890ED401BB0EE410AF0EE610A53EC24
:10387000102B9FEDA11B51EC110B08F003F841EC4C
:10388000180B9B4890ED001BB0EE410AF0EE610A68
:1038900053EC102B9FED9A1B51EC110B07F0F2FF2C
:1038A00041EC190B53EC182B07F070FC904A03C243
:1038B0008F4890ED541BB0EE410AF0EE610A53ECD4
:1038C000102B9FED8D1B51EC110B07F0DBFF41EC32
:1038D000180B874890ED141BB0EE410AF0EE610A18
:1038E00053EC102B9FED861B51EC110B07F0CAFF18
:1038F00041EC190B53EC182B07F048FC7C4AC2E949
:103900001401104690ED681BB0EE410AF0EE610A1A
:1039100053EC102B9FED781B51EC110B07F0B2FF0D
:1039200041EC180B724890ED281BB0EE410AF0EE06
:10393000610A53EC102B9FED721B51EC110B07F039
:10394000A1FF41EC190B53EC182B07F01FFC684A40
:10395000A03203C2664890F8DA0318B96A48806852
:10396000848B0BE0624890EDA41BB0EE410AF0EEB0
:10397000610A51EC100B07F059FE044663480068D9
:1039800090ED000A10EE101A084608F071FA584A35
:10399000C2E902015D48006890ED010A10EE101ABC
:1039A000084608F065FA524AC2E91601574800680D
:1039B00090ED020A10EE101A084608F059FA4C4A27
:1039C000A032C2E902012946494805F047F8B0EEA5
:1039D000408AF0EE608A51EC180B07F0A5FB0090CE
:1039E00029464348503005F039F8B0EE408AF0EEF1
:1039F000608A51EC180B07F097FB019029463C4870
:103A0000A03005F02BF8B0EE408AF0EE608A51EC61
:103A1000180B07F089FB02900020364909680861FD
:103A20009DED000ADDED010A30EE600ADDED020ACF
:103A300070EE200A00EE104AB8EEC00A30EE800A9E
:103A4000BDEEC00A2B48006880ED020A9DED000A19
:103A5000B1EE400ADDED010A30EE600ADDED020A4A
:103A600070EE600A00EE104AB8EEC00A30EE800A2E
:103A7000BDEEC00A1F48006880ED010A00201D4904
:103A8000096848619DED000ADDED010A30EE200A6B
:103A9000DDED020A70EE600A00EE104AB8EEC00AD0
:103AA00030EE800ABDEEC00A1248006880ED030ABD
:103AB0009DED000AB1EE400ADDED010A30EE200A6C
:103AC000DDED020A70EE200A00EE104AB8EEC00AE0
:103AD00030EE800ABDEEC00A0648006880ED000A9C
:103AE000044881680120884700BFB5E60000000057
:103AF00018000020D4040020000000A09999B93FCC
:103B0000000000C0CCCCEC3F0805002034040020AD
:103B100070B52DED068B0446ED4890F8D8030128CA
:103B20000DD1EB48F03005F0D5F8EA4805F0D2F8B1
:103B3000E848503005F0CEF8BDEC068B70BDE44887
:103B400090F8DA0302286FD1E14890ED7C1BB0EECB
:103B5000410AF0EE610A53EC102B9FEDDF1B51EC94
:103B6000110B07F08FFE41EC180BD94890ED3C1B70
:103B7000B0EE410AF0EE610A53EC102B9FEDD81B1A
:103B800051EC110B07F07EFE41EC190B53EC182B96
:103B900007F0FCFACF4A503A03C2CD4890ED901B93
:103BA000B0EE410AF0EE610A53EC102B9FEDCA1BF8
:103BB00051EC110B07F066FE41EC180BC44890ED78
:103BC000501BB0EE410AF0EE610A53EC102B9FED52
:103BD000C41B51EC110B07F055FE41EC190B53ECD3
:103BE000182B07F0D3FABA4A02F5A07203C2B848FC
:103BF00090ED641BB0EE410AF0EE610A53EC102B1D
:103C00009FEDB71B51EC110B07F03CFE41EC180B7C
:103C10009FEDB50B53EC102B07F0B8FAAC4A02F548
:103C2000C87203C291E0FFE7B1498968C98BA1F569
:103C3000AF60B0494A680221904700EE100AB8EE22
:103C4000C00A9FEDAD1AC0EE010A9FEDAC0A20EE4E
:103C5000800AB0EE408AA6498968498BC1F5AF60F9
:103C6000A4494A680221904700EE100AB8EEC00A43
:103C7000DFEDA10A80EE201A9FEDA00A21EE000AD6
:103C8000F0EE408A9FED9E0A28EE000A10EE101A10
:103C9000084608F0EDF841EC190B8D4890ED3C1BFF
:103CA000B0EE410AF0EE610A53EC102B9FED8C1B35
:103CB00051EC110B07F0E6FD41EC1A0B53EC192BFC
:103CC00007F064FA834A503A03C29FED8D0A28EE4A
:103CD000800A10EE101A084608F0CAF841EC190BD9
:103CE0007B4890ED501BB0EE410AF0EE610A53ECB8
:103CF000102B9FED7B1B51EC110B07F0C3FD41EC2A
:103D00001A0B53EC192B07F041FA714A02F5A07215
:103D100003C26F4890ED641BB0EE410AF0EE610AF9
:103D200053EC102B9FED6E1B51EC110B07F0AAFD0D
:103D300041EC190B9FED6C0B53EC102B07F026FA9E
:103D4000634A02F5C87203C200BF6E484068D0EDF6
:103D5000000AB0EE600A04F09FF910EE105A2846EF
:103D600008F086F85B4A503AC2E9020165484068AB
:103D7000D0ED010AB0EE600A04F08EF910EE105A90
:103D8000284608F075F8534AC2E902015D48006808
:103D900090ED020A10EE101A084608F069F84D4A34
:103DA0005032C2E902012146A2F1A00004F056FE01
:103DB0002146484804F052FE21464648503004F05F
:103DC0004DFE00BF424890ED401BB0EE410AF0EEC0
:103DD000610A9FED4D1B53EC112B51EC100B07F0BA
:103DE0004FFE04D29FED480B394880ED400B384818
:103DF00090ED401BB0EE410AF0EE610A9FED441BCE
:103E000053EC112B51EC100B07F000FD04D29FED89
:103E1000400B2F4880ED400B00BF00BF2C4890EDB9
:103E2000541BB0EE410AF0EE610A9FED371B53ECD4
:103E3000112B51EC100B07F023FE04D29FED320B37
:103E4000234880ED540B224890ED541BB0EE410AFC
:103E5000F0EE610A9FED2E1B53EC112B51EC100B71
:103E600007F0D4FC04D29FED2A0B194880ED540BC7
:103E700000BF00BF164890ED681BB0EE410AF0EE9F
:103E8000610A9FED211B53EC112B51EC100B07F035
:103E9000F7FD04D29FED1C0B0D4880ED680B0C481C
:103EA00090ED681BB0EE410AF0EE610A9FED181B21
:103EB00053EC112B51EC100B07F0A8FC04D29FED32
:103EC000140B034880ED680B00BF00BF34E6000010
:103ED0001800002058010020000000A09999B93F67
:103EE000000000C0CCCCEC3F00000000000000004F
:103EF00008050020600400200000FA43C1B8B23E6B
:103F0000CDCCCC3D3404002000000020FB21E93F53
:103F100000000020FB21E9BF10B588B0874805F0FC
:103F200080F83C21854805F0F7F8844805F0A4F8AE
:103F30000321824805F0F0F8804805F09DF87F489D
:103F400005F06FF83D217D4805F0E6F87B4805F067
:103F500093F8002409E0794805F0B7F806A9085558
:103F6000764804F0E0FF601CC4B2052CF3DB734814
:103F700005F0ABF88DF81D00704805F037F86F4874
:103F800005F011F89DF819009DF8181040EA01207D
:103F900000B200EE100AB8EEC00A6948406880ED31
:103FA000030A9DF81B009DF81A1040EA012000B298
:103FB00000EE100AB8EEC00A6148406880ED050ABC
:103FC0009DF81D009DF81C1040EA012000B200EE93
:103FD000100AB8EEC00A5A48406880ED040A5848F2
:103FE000406800F10C015648406800F10C0291ED68
:103FF000021AD1ED010A91ED000A5248144604F06C
:10400000B4FC84ED000AC4ED010A84ED021A03A891
:1040100004F0E8FE4A48406890ED030A48484068CA
:10402000D0ED090A30EE600A45484068D0ED060A36
:1040300080EE201A8DED031A4148406890ED040A85
:104040003F484068D0ED0A0A30EE600A3C484068BC
:10405000D0ED070A80EE201A8DED041A384840682A
:1040600090ED050A36484068D0ED0B0A30EE600A44
:1040700033484068D0ED080A80EE201A8DED051A0D
:104080009DED030A20EE000ADDED040A9DED041A01
:1040900000EE810ADDED050A9DED051A00EE810AAC
:1040A0002748406880ED0C0A25484068D0ED0C0A8E
:1040B000B7EE001A30EEC10AF0EEC00A9FED220AF8
:1040C000F4EEC00AF1EE10FA05D21D48406803A9CB
:1040D0000EC90EC016E01D480088401C1B49088010
:1040E0009FED1B1ADFED1A0A9FED190A684604F0CE
:1040F00071FE13494968D0E900238068C1E90023B3
:10410000886000BF134801880088401C114A108055
:10411000642910D10D4800880A2802DD01200849D1
:1041200008700A4800880649496848630020094920
:1041300008800649088008B010BD0000C40D0020AA
:104140008C050020D00D0020CDCC4C3E9C050020DD
:10415000000000009E05002010B501F07BFE01F07C
:104160000FFF02F0FBFB10BD10B52DED048B0446D4
:10417000CA4890F8D803012822D1C94804F0AAFD02
:10418000C748503004F0A6FDC548A03004F0A2FD99
:10419000C448006890ED030AC04880EDF30AC148A6
:1041A000006890ED040ABD4880EDF40ABD4800683F
:1041B00090ED050AB94880EDF50ABDEC048B10BD01
:1041C000B64890EDB81BB0EE410AF0EE610A53EC30
:1041D000102B9FEDB51B51EC110B07F053FB41EC7D
:1041E000180BAE4890ED781BB0EE410AF0EE610A74
:1041F00053EC102B9FEDAE1B51EC110B07F042FB63
:1042000041EC190B53EC182B06F0C0FFA34A02F542
:10421000F07203C2A14890EDCC1BB0EE410AF0EE63
:10422000610A53EC102B9FEDA01B51EC110B07F012
:1042300029FB41EC180B994890ED8C1BB0EE410A1C
:10424000F0EE610A53EC102B9FED991B51EC110B12
:1042500007F018FB41EC190B53EC182B06F096FFF6
:104260008E4A02F50C7203C28C4890EDE01BB0EE52
:10427000410AF0EE610A53EC102B9FED8B1B51ECC1
:10428000110B07F0FFFA41EC180B844890EDA01BCE
:10429000B0EE410AF0EE610A53EC102B9FED841B47
:1042A00051EC110B07F0EEFA41EC190B53EC182B03
:1042B00006F06CFF794A02F5207203C27948006863
:1042C00090ED030A7548D0EDF30A30EE600A10EE67
:1042D000101A084607F0CCFD714AC2E90201714884
:1042E000006890ED040A6D48D0EDF40A30EE600AE3
:1042F00010EE101A084607F0BBFD694A5032C2E9B9
:1043000002016848006890ED050A6448D0EDF50A9E
:1043100030EE600A10EE101A084607F0A9FD604A58
:10432000A032C2E9020121465D4804F097FB214614
:104330005B48503004F092FB21465948A03004F00D
:104340008DFB00BF554890ED7C1BB0EE410AF0EEAE
:10435000610A9FED591B53EC112B51EC100B07F028
:104360008FFB04D29FED540B4C4880ED7C0B4B48E7
:1043700090ED7C1BB0EE410AF0EE610A9FED501B00
:1043800053EC112B51EC100B07F040FA04D29FEDC7
:104390004C0B424880ED7C0B00BF00BF3F4890EDC6
:1043A000901BB0EE410AF0EE610A9FED431B53EC07
:1043B000112B51EC100B07F063FB04D29FED3E0B69
:1043C000364880ED900B354890ED901BB0EE410AD9
:1043D000F0EE610A9FED3A1B53EC112B51EC100BE0
:1043E00007F014FA04D29FED360B2C4880ED900BA9
:1043F00000BF00BF294890EDA41BB0EE410AF0EECB
:10440000610A9FED311B53EC112B51EC100B07F09F
:1044100037FB04D29FED2C0B204880EDA40B1F48E6
:1044200090EDA41BB0EE410AF0EE610A9FED281B4F
:1044300053EC112B51EC100B07F0E8F904D29FED6F
:10444000240B164880EDA40B00BF23498968888B94
:1044500007F083F941EC190B20499FED212B9FEDCB
:10446000221BB0EE490AF0EE690A08688047B0EEF8
:10447000408AF0EE608A094890EDA41BB0EE410A34
:10448000F0EE610A53EC102B51EC180B06F07EFE97
:10449000034AA032C2E9040100BF8EE618000020E2
:1044A000F80100200C040020000000A09999B93FF9
:1044B000000000C0CCCCEC3F000000201857D63FD5
:1044C000000000201857D6BF0000000000C0724056
:1044D0000000000000C072C0080500206004002039
:1044E0000000000000208C400000000000E095402B
:1044F00070B52DED028B0446FD4890F8D8030128D5
:1045000022D1FC4804F0E6FBFA48503004F0E2FB0C
:10451000F848A03004F0DEFBF748006890ED000A90
:10452000F34880EDF00AF448006890ED010AF04885
:1045300080EDF10AF048006890ED020AEC4880ED49
:10454000F20ABDEC028B70BDE94890F8D90300284F
:104550007DD1EA498968C98BA1F5AF60E8494A680D
:104560000221904700EE100AB8EEC00ADFEDE50A1E
:1045700080EE201AB6EE000A61EE000A00EE104A44
:10458000B8EE400A20EE800ADFEDDF0A80EE201A46
:1045900011EE105A284607F06BFC41EC180BD4487A
:1045A00090EDB41BB0EE410AF0EE610A53EC102B13
:1045B00051EC180B06F0EAFDCD4A02F5347203C245
:1045C000CE498968498BA1F5AF60CD494A6802217F
:1045D000904700EE100AF8EEC00A9FEDCA1A80EE6E
:1045E000810AF6EE000A60EE200A00EE104AB8EEEC
:1045F000400A20EE800ADFEDC40A80EE201A11EE98
:10460000105A284607F034FC41EC180BB84890EDDE
:10461000C81BB0EE410AF0EE610A53EC102B51ECCE
:10462000180B06F0B3FDB24A02F5487203C2B34953
:104630008968898BA1F5AF60B1494A68022190472A
:1046400000EE100AB8EEC00A9FEDAE1A00E0ABE033
:10465000C0EE010AB6EE000A60EE800A00EE104AD3
:10466000B8EE400A20EE800ADFEDA70A80EE201A9D
:1046700011EE105A284607F0FBFB41EC180B9C4842
:1046800090EDDC1BB0EE410AF0EE610A53EC102B0A
:1046900051EC180B06F07AFD954A02F55C7203C2E4
:1046A00000BF934890EDB41BB0EE410AF0EE610AF2
:1046B0009FED961B53EC112B51EC100B07F0E0F91A
:1046C00004D29FED920B8A4880EDB40B884890EDA0
:1046D000B41BB0EE410AF0EE610A9FED8E1B53EC65
:1046E000112B51EC100B07F091F804D29FED890BC0
:1046F0007F4880EDB40B00BF00BF7D4890EDC81B24
:10470000B0EE410AF0EE610A9FED801B53EC112BD5
:1047100051EC100B07F0B4F904D29FED7C0B7448F8
:1047200080EDC80B724890EDC81BB0EE410AF0EE68
:10473000610A9FED781B53EC112B51EC100B07F025
:1047400065F804D29FED730B694880EDC80B00BF7C
:1047500000BF674890EDDC1BB0EE410AF0EE610A45
:104760009FED6E1B53EC112B51EC100B07F088F9E9
:1047700004D29FED6A0B5E4880EDDC0B5C4890ED47
:10478000DC1BB0EE410AF0EE610A9FED661B53ECB4
:10479000112B51EC100B07F039F804D29FED610B8F
:1047A000534880EDDC0B00BF5348006890ED000AD1
:1047B0004F48D0EDF00A30EE600A10EE101A0846AD
:1047C00007F056FB4B4AC2E902014B48006890EDE6
:1047D000010A4748D0EDF10A30EE600A10EE101AD7
:1047E000084607F045FB434A5032C2E902014248FD
:1047F000006890ED020A3E48D0EDF20A30EE600A01
:1048000010EE101A084607F033FB3A4AA032C2E90C
:1048100002012146374804F021F92146354850303D
:1048200004F01CF921463348A03004F017F900BF0A
:104830002F4890EDB81BB0EE410AF0EE610A9FEDF3
:104840003B1B53EC112B51EC100B07F019F904D260
:104850009FED360B264880EDB80B254890EDB81B30
:10486000B0EE410AF0EE610A9FED321B53EC112BC2
:1048700051EC100B06F0CAFF04D29FED2E0B1C4822
:1048800080EDB80B00BF00BF194890EDCC1BB0EE17
:10489000410AF0EE610A9FED251B53EC112B51EC00
:1048A000100B07F0EDF804D29FED200B104880EDBF
:1048B000CC0B0F4890EDCC1BB0EE410AF0EE610A34
:1048C0009FED1C1B53EC112B51EC100B06F09EFFBF
:1048D00004D29FED180B064880EDCC0B00BF00BF43
:1048E000034890EDE01BB0EE410AF0EE610A25E0CE
:1048F00018000020E80200200C0400200805002019
:10490000600400200000FA4300007A440000000028
:104910000000244000000000000024C0000000004F
:104920000000004000000000000000000000000047
:104930000000E03F000000000000E0BF1FED051B8D
:1049400053EC112B51EC100B07F09AF804D21FED29
:10495000090B0D4880EDE00B0B4890EDE01BB0EE2D
:10496000410AF0EE610A1FED0D1B53EC112B51ECC7
:10497000100B06F04BFF04D21FED120B024880ED26
:10498000E00B00BF00BFDCE51800002010B51149A6
:1049900008780978491C0F4A1170C11700EB917112
:1049A0008910A0EB810131B1012907D0022908D07B
:1049B00003290CD108E000F035FB09E003F0B8F959
:1049C00006E003F0FDF803E0FDF778FE00E000BF2D
:1049D00000BF10BD160000207CB5002001900090A3
:1049E0000124A24801690020884700B97CBDAA23A0
:1049F0009E48006840302146621CD4B243549B4814
:104A0000006840302146621CD4B2435402239748C8
:104A1000006840302146621CD4B2435400239348BE
:104A2000006840302146621CD4B24354904840682C
:104A300090ED060ABDEEC00A10EE100A00B2019019
:104A40009DF805308948006840302146621CD4B288
:104A500043549DF804308548006840302146621C6C
:104A6000D4B243548248406890ED070ABDEEC00AB4
:104A700010EE100A00B201909DF805307B480068E6
:104A800040302146621CD4B243549DF8043077482C
:104A9000006840302146621CD4B2435474484068D8
:104AA00090ED080ABDEEC00A10EE100A00B20190A7
:104AB0009DF805306D48006840302146621CD4B234
:104AC00043549DF804306948006840302146621C18
:104AD000D4B243546648406890ED090ABDEEC00A5E
:104AE00010EE100A00B201909DF805305F48006892
:104AF00040302146621CD4B243549DF804305B48D8
:104B0000006840302146621CD4B243545848406883
:104B100090ED0A0ABDEEC00A10EE100A00B2019034
:104B20009DF805305148006840302146621CD4B2DF
:104B300043549DF804304D48006840302146621CC3
:104B4000D4B243544A48406890ED0B0ABDEEC00A07
:104B500010EE100A00B201909DF80530434800683D
:104B600040302146621CD4B243549DF804303F4883
:104B7000006840302146621CD4B243543D4840682E
:104B800090ED030ABDEEC00A10EE100A00B20190CB
:104B90009DF805303548006840302146621CD4B28B
:104BA00043549DF804303148006840302146621C6F
:104BB000D4B243542F48406890ED040ABDEEC00AB9
:104BC00010EE100A00B201909DF8053027480168E8
:104BD00040312046621CD4B20B549DF80430234867
:104BE000006840302146621CD4B2435421484068DA
:104BF00090ED050ABDEEC00A10EE100A00B2019059
:104C00009DF805301948006840302146621CD4B236
:104C100043549DF804301548006840302146621C1A
:104C2000D4B24354601FC1B21048006880F84410E9
:104C30000025012007E00D4909684031095C29443D
:104C4000CDB2411CC8B2A042F5DB08480068403034
:104C50002146621CD4B24554601E0449096881F89B
:104C6000400002498868804700BFBFE63805002041
:104C7000E80400208C05002010B588B0044601210E
:104C80000846FBF777FF01211020FBF793FF07226F
:104C900009212648FBF7F9FE07220A212348FBF7E2
:104CA000F4FE02208DF81C0003208DF81D0000206A
:104CB0008DF81E0001208DF81F004002069006A905
:104CC0001A48FBF79AFE4FF48060069006A9174831
:104CD000FBF793FE25208DF8040000208DF80500D9
:104CE00003208DF8060001208DF8070001A8FBF7CE
:104CF000F9FE02940020ADF80C00ADF80E00ADF8FE
:104D00001000ADF814000C20ADF8120002A90848FC
:104D1000FCF782FB012240F225510548FCF757FBC6
:104D200001210348FCF710FB08B010BD0000024051
:104D30000010014010B50648007838B9012240F251
:104D400027710448FCF743FB012010BD0020FCE75D
:104D5000D80500200048004070B52DED068B0446B4
:104D6000B0EE408A00EE104AB8EE400ADFED2C0AA1
:104D700080EE201A11EE105A284607F079F841EC1F
:104D80001A0BB0EE4A1AF0EE6A1ADFED260AB0EE00
:104D9000480A254803F020FDF0EE408A2349486880
:104DA000804700EE100AB8EE400AB0EE409A9FED40
:104DB000200AB4EEC09AF1EE10FA22DD1A4890ED06
:104DC000000AF7EE000AB4EE600AF1EE10FA14D110
:104DD00090ED020AF2EE040A20EE200A80ED020AAB
:104DE00090ED000AF2EE040A80EE201A80ED001A1F
:104DF00090ED020A0F4880ED000A01200E4908716B
:104E000002E000200C4908710A4890ED000A38EED3
:104E1000C00A0A4880ED000ABDEC068B70BD000098
:104E200000007A4400000000D8060020A004002002
:104E300000401C46280400200C040020240400200C
:104E400000B585B001218803FBF7A4FE0020ADF872
:104E500000004FF48270ADF802000020ADF80400AD
:104E6000ADF80600ADF808004FF40070ADF80A0088
:104E70001020ADF80C000020ADF80E000720ADF8B2
:104E8000100069460448FBF731FF01210248FBF797
:104E900013FF05B000BD00000038004010B5044607
:104EA00000BF02210A48FBF713FF0028F9D0214672
:104EB0000748FBF719FF00BF01210548FBF708FF72
:104EC0000028F9D00248FBF70CFFC0B210BD00006B
:104ED0000030014030B587B0044604A803F082FFDB
:104EE00001A803F07FFF434A526892ED000AB0EE3A
:104EF000402A404A526892ED010AF0EE401A3E4ABA
:104F0000526802F118003D4A916890ED021AD0ED06
:104F1000010A90ED000A88478DED040ACDED050ADF
:104F20008DED061A9DED060ADFED350A30EE600ABA
:104F30008DED060A9DED060ADFED310A80EE201A9E
:104F40008DED061A9DED060ADFED2E0A20EE200AF1
:104F50008DED060ADDED060AB0EE600A2046FFF789
:104F6000FBFEDDED060AB0EE600A204602F006FD0B
:104F7000DDED060AB0EE600A204601F009FF0546A5
:104F800085B9214890ED020A2048D0ED000A20485A
:104F900090ED001A70EEC10A30EE200A1A4880ED3A
:104FA000020A05E01B4890ED000A174880ED020A4E
:104FB000194890ED000A144880ED050A134890ED59
:104FC000000A134880ED000A0F4890ED020ADFED59
:104FD000130A20EE200A124880ED000A0A4890EDDC
:104FE000050ADFED0E0A20EE200A0D4880ED010AC9
:104FF00007B030BD34040020E80400206004002025
:1050000000F07F45CDCC1C41C00600201C040020D0
:105010002C04002020040020240400200000C842AA
:10502000A806002038B5B8498868804701287DD196
:10503000002400200090AA22B3482146641C036883
:105040005A5455222146641C03685A5402222146B0
:10505000641C03685A54641CAC48406890ED000A14
:10506000DFEDAB0A20EE200ABDEEC00A10EE100AFA
:1050700080B200909DF80120A3482146641C03687B
:105080005A549DF800202146641C03685A549F48D6
:10509000406890ED010ADFED9E0A20EE200ABDEE89
:1050A000C00A10EE100A80B200909DF801209648C8
:1050B0002146641C03685A549DF80020036820466A
:1050C000611CCCB21A549148406890ED020ADFEDA1
:1050D000900A20EE200ABDEEC00A10EE100A80B23F
:1050E00000909DF80120884803682046611CCCB2DE
:1050F0001A549DF80020844803682046611CCCB2F5
:105100001A548448406890ED060ABDEEC00A10EEBD
:10511000100A80B200909DF801207B480368204669
:10512000611CCCB21A549DF8002000E0EBE07648F8
:1051300003682046611CCCB21A547648406890ED52
:10514000070ABDEEC00A10EE100A80B200909DF86A
:1051500001206D4803682046611CCCB21A549DF8AA
:105160000020694803682046611CCCB21A54694883
:10517000406890ED080ABDEEC00A10EE100A80B239
:1051800000909DF80120604803682046611CCCB265
:105190001A549DF800205C4803682046611CCCB27C
:1051A0001A545C48406890ED090ABDEEC00A10EE42
:1051B000100A80B200909DF80120534803682046F1
:1051C000611CCCB21A549DF800204F480368204659
:1051D000611CCCB21A544F48406890ED0A0ABDEEEB
:1051E000C00A10EE100A80B200909DF801204648D7
:1051F00003682046611CCCB21A549DF80020424836
:1052000003682046611CCCB21A544248406890EDB5
:105210000B0ABDEEC00A10EE100A80B200909DF895
:105220000120394803682046611CCCB21A549DF80D
:105230000020354803682046611CCCB21A54364819
:10524000406890ED000ABDEEC00A10EE100A80B270
:1052500000909DF801202C4803682046611CCCB2C8
:105260001A549DF80020284803682046611CCCB2DF
:105270001A542948406890ED010ABDEEC00A10EEAC
:10528000100A80B200909DF801201F480368204654
:10529000611CCCB21A549DF800201B4803682046BC
:1052A000611CCCB21A541C48406890ED020ABDEE55
:1052B000C00A10EE100A80B200909DF8012012483A
:1052C00003682046611CCCB21A549DF800200E4899
:1052D00003682046611CCCB21A540B480068C470A5
:1052E0000025002006E008490968095C2944CDB280
:1052F000411CC8B2A042F6DB0348006805550249CC
:10530000C868804700BF38BDDC0500203404002099
:105310000000C842E80400208C05002010B588B0C9
:10532000044601210220FBF725FC01218804FBF73C
:1053300031FC07220A212648FBF7A7FB07220B2195
:105340002348FBF7A2FB02208DF81C0003208DF8F8
:105350001D0000208DF81E0001208DF81F00800226
:10536000069006A91A48FBF748FB4FF40060069028
:1053700006A91748FBF741FB27208DF80400002001
:105380008DF8050001208DF806008DF8070001A8B2
:10539000FBF7A8FB02940020ADF80C00ADF80E005E
:1053A000ADF81000ADF814000C20ADF8120002A901
:1053B0000848FCF731F8012240F225510548FCF776
:1053C00006F801210348FBF7BFFF08B010BD00003D
:1053D000000402400048004000B585B00121C80328
:1053E000FBF7D8FB0020ADF800004FF48270ADF859
:1053F00002000020ADF80400ADF806000120ADF871
:1054000008004002ADF80A001820ADF80C0000209A
:10541000ADF80E000720ADF8100069460448FBF710
:1054200065FC01210248FBF747FC05B000BD000008
:10543000003C004070B504463748006890F8D80337
:10544000012848D10020354908803348006890F889
:10545000D903012800D170BD3148007800B9FAE7BE
:105460002F48C078012800D1F5E72D484078012861
:1054700000D1F0E72A488078012800D1EBE7294ADB
:105480009268908B274A5169884708B9012500E046
:105490000025244A9268108B224A516988470228C5
:1054A00001D1012000E00020054085B11E480088A0
:1054B00020441D4908800846008840F6B8318842DB
:1054C00027DD00201449096881F8D80321E0002075
:1054D000154908801DE000201349088011488068A4
:1054E000808B40F28E31884205DA0C4800882044D7
:1054F0000A49088002E0002008490880074800881F
:1055000040F6B831884204DD01200349096881F87A
:10551000D80300BF9FE70000F803002080040020AC
:105520007004002008050020820400202DE9F041CD
:105530000025002400270026A046FE49C8688047B1
:1055400001286FD100BF1BE01F2D01D1BDE8F08104
:10555000F84800682030405DAA2801D1012000E011
:105560000020F449096820316A1C895CAF2901D107
:10557000012100E00021084000B103E0681CC5B231
:10558000202DE1DB00BFEB4800682030E91C405CC7
:10559000001DC7B22C46E74800682030A91C10F84F
:1055A0000180002508E0E348006820306119405C74
:1055B0003044C6B2681CC5B2BD42F4DBDD480068A9
:1055C0002030E119405CB0427ED1B8F1110F7CD09F
:1055D00006DCB8F1020F0AD0B8F1100F76D12FE037
:1055E000B8F1120F73D0B8F1130FF7D11FE3D248FF
:1055F0000078012806D0022808D003280AD0042801
:1056000011D10BE0012000F0F7FD0DE0022000F0C9
:10561000F3FD09E0032000F0EFFD05E0042000F0B9
:10562000EBFD01E0FEE300BF00BFC3480078401C73
:10563000C0B2C1490870052801D101200870FDE3FE
:10564000BC4800682030621D835CBA480068203086
:10565000221D805C43EA002000EE100AB8EEC00A6A
:1056600010EE101A084606F003FCB44A1268F03235
:10567000C2E90601AF4800682030E21D835CAD48F6
:1056800000682030A21D805C43EA002000EE100A72
:10569000B8EEC00A10EE101A084606F0E9FBA74A59
:1056A0001268F032C2E90801A2480068203004F113
:1056B0000902835C9F4800682030521E805C43EAE8
:1056C000002000EE100A03E0B9E3BAE0B5E3BEE162
:1056D000B8EEC00A10EE101A084606F0C9FB974A49
:1056E0001268F032C2E90A0192480068203004F1E1
:1056F0000B02835C8F4800682030521E805C43EAB6
:10570000002000EE100AB8EEC00A10EE101A08468B
:1057100006F0AEFB894A126802F5A072C2E90601E2
:1057200084480068203004F10D02835C81480068E1
:105730002030521E805C43EA002000EE100AB8EED2
:10574000C00A10EE101A084606F092FB7B4A126857
:1057500002F5A072C2E9080176480068203004F121
:105760000F02835C734800682030521E805C43EA5D
:10577000002000EE100AB8EEC00A10EE101A08461B
:1057800006F076FB6D4A126802F5A072C2E90A01C2
:1057900068480068203004F11102835C65480068A5
:1057A0002030521E805C43EA002000EE100AB8EE62
:1057B000C00A10EE101A084606F05AFB5F4A12683B
:1057C00002F5C872C2E906015A480068203004F1A7
:1057D0001302835C574800682030521E805C43EA05
:1057E000002000EE100AB8EEC00A10EE101A0846AB
:1057F00006F03EFB514A126802F5C872C2E9080180
:105800004C480068203004F11502835C4948006868
:105810002030521E805C43EA002000EE100AB8EEF1
:10582000C00A10EE101A084606F022FB434A12681E
:1058300002F5C872C2E90A0110213046FDF7A0FE48
:10584000FCE23C4800682030621D835C39480068F7
:105850002030221D805C43EA002000EE100AB8EEE2
:10586000C00A10EE101A084606F002FB334A12680E
:1058700002F53472C2E906012E4800682030E21DAC
:10588000835C2C4800682030A21D805C43EA002025
:1058900000EE100AB8EEC00A10EE101A084606F024
:1058A000E7FA264A126802F53472C2E90801214873
:1058B0000068203004F10902835C1E480068203033
:1058C000521E805C43EA002000EE100AB8EEC00AC7
:1058D00010EE101A084606F0CBFA184A126802F5C4
:1058E0003472C2E90A0113480068203004F10B0247
:1058F000835C104800682030521E805C43EA002020
:1059000000EE100AB8EEC00A10EE101A084606F0B3
:10591000AFFA0A4A126802F54872C2E90601054860
:105920000068203004F10D02835C024800682030DA
:10593000521E05E03805002015000020F803002065
:10594000805C43EA002000EE100AB8EEC00A10EEB8
:10595000101A084606F08CFAFE4A126802F54872E0
:10596000C2E90801FC480068203004F10F02835CA2
:10597000F94800682030521E805C43EA002000EEA7
:10598000100AB8EEC00A10EE101A084606F070FAB7
:10599000F04A126802F54872C2E90A01EE4800684E
:1059A000203004F11102835CEB4800682030521E65
:1059B000805C43EA002000EE100AB8EEC00A10EE48
:1059C000101A084606F054FAE24A126802F55C72B0
:1059D000C2E90601E0480068203004F11302835C4C
:1059E000DD4800682030521E805C43EA002000EE53
:1059F000100AB8EEC00A10EE101A084606F038FA7F
:105A0000D44A126802F55C72C2E90801D248006803
:105A1000203004F11502835CCF4800682030521E0C
:105A2000805C43EA002000EE100AB8EEC00A10EED7
:105A3000101A084606F01CFAC64A126802F55C7293
:105A4000C2E90A0111213046FDF79AFDF6E1C2488C
:105A500000682030621D835CBF4800682030221D32
:105A6000805C43EA002000EE100AB8EEC00A10EE97
:105A7000101A084606F0FCF9B64A1268C2E9060197
:105A8000B54800682030E21D835CB34800682030D0
:105A9000A21D805C43EA002000EE100AB8EEC00AA6
:105AA00010EE101A084606F0E3F9AA4A1268C2E995
:105AB0000801A9480068203004F10902835CA64867
:105AC00000682030521E805C43EA002000EE100A7D
:105AD000B8EEC00A10EE101A084606F0C9F99D4A41
